:020000040800F2
:1000000038080020F1010008FF400008853B000887
:10001000FD40000821040008814E00080000000097
:100020000000000000000000000000000341000884
:10003000FF04000800000000014100088943000897
:100040000B0200080B0200080B0200080B0200085C
:100050000B0200080B0200080B0200080B0200084C
:100060000B0200080B0200080B02000851040008F4
:100070000B0200080B0200080B0200080B0200082C
:100080000B02000800000000210300080B0200081A
:100090000B0200080B0200080B0200080B0200080C
:1000A000014400080D4400080B0200080B02000880
:1000B0000B0200080B0200080B0200080B020008EC
:1000C0000B0200080B0200080B0200080B020008DC
:1000D0000B0200080B0200080B020008754E000816
:1000E000010500080B0200080B0200080B020008C3
:1000F0000B0200080B0200080B02000800000000C1
:10010000000000000B020008000000000B020008C5
:100110000B020008000000000B0200080B020008A0
:100120000B0200080B0200080B0200080B0200087B
:100130000B02000800000000000000000B02000895
:100140000B0200080B020008000000000000000085
:10015000000000000000000000000000000000009F
:100160000000000000000000000000000B0200087A
:100170000B0200080000000000000000000000006A
:10018000000000000B02000800000000000000005A
:10019000000000000000000000000000000000005F
:1001A00000000000000000000B0200080B02000825
:1001B0000B0200080B0200080B0200080000000000
:1001C000000000000B02000800000000000000001A
:1001D0000B0200080B020008DFF810D000F08EF8C8
:1001E000004800476D4F0008AFF30080380800203A
:1001F0000648804706480047FEE7FEE7FEE7FEE7C1
:10020000FEE7FEE7FEE7FEE7FEE7FEE7F143000854
:10021000D90100082DE9F05F0546002092469B4673
:1002200088460646814640241BE02846414647460C
:10023000224600F053F853465A46C01A914110D353
:1002400011461846224600F03AF82D1A67EB0108CD
:100250004F4622460120002100F031F817EB00093B
:100260004E41201EA4F10104DFDC484631462A46F7
:100270004346BDE8F09F40EA01039B0703D009E035
:1002800008C9121F08C0042AFAD203E011F8013B82
:1002900000F8013B521EF9D27047D2B201E000F8DB
:1002A000012B491EFBD270470022F6E710B513461A
:1002B0000A4604461946FFF7F0FF204610BD202AE3
:1002C00004DB203A00FA02F1002070479140C2F1AD
:1002D000200320FA03F3194390407047202A04DBDF
:1002E000203A21FA02F00021704721FA02F3D040AF
:1002F000C2F120029140084319467047064C074D51
:1003000006E0E06840F0010394E8070098471034E5
:10031000AC42F6D3FFF764FF2454000844540008AD
:1003200010B5044801F004F8BDE81040024800F0A0
:10033000FFBF00006C010020D801002070B504460A
:10034000006881688268C1F3400112F0010F28D073
:1003500039BB816801F00D01012914D18168124A6D
:100360001140891C816021680320086001F088FD2C
:10037000054612E001F084FD401B02280DD92068DB
:100380008068C00709D0E06D40F01000E065206E85
:1003900040F001002066012070BD20688068C00721
:1003A000E8D1002070BD0000C0FFFF7F70B504469B
:1003B0000068816811F0010F2DD18168174A114240
:1003C0001AD18168D5432940491C816001F058FD4C
:1003D00006461BE0816811F0010F03D181682940B6
:1003E000491C816001F04CFD801B02280ED9206859
:1003F0000068C043C00709D0E06D40F01000E06520
:10040000206E40F001002066012070BD2068016868
:10041000C943C907DED1002070BD00003F00008045
:10042000FEE70000DFED070A074930EE200A10EE74
:10043000100A884203DDDFED050A30EE600A03F0A2
:100440002BBF0000DB0FC93FDB0FC940DB0FC940EA
:10045000014801F09EBA0000D40300200D49026853
:100460008A4201D20C4901E00B492031D2B2142357
:10047000083AB2FBF3F2436C02F01F0223F00303CD
:100480001944816404498031C164012191400165AE
:100490007047000008040240000802400179074A42
:1004A00002EB81024265054A4432491E826501F031
:1004B0001F0201219140C16570470000FC08024005
:1004C00030B5D0E913456560446D14B1D0E91645E7
:1004D000656090F8444004F01F050124AC40056CB1
:1004E0006C60046863608368102B036803D09960B4
:1004F0000068C26030BD9A600068C16030BD70475E
:1005000010B54FF4806001F085FB4FF4006001F0FE
:1005100081FBBDE810404FF4005001F07BBB72B688
:10052000FEE70000F8B500260446009690F8580053
:100530000D4601280BD0012084F858002046FFF713
:10054000FDFE0100E06D04D040F010002AE0022022
:10055000F8BD20F4885040F00200E0652068826811
:10056000134B1A4005F080431A4342F00042826068
:10057000104A20680EE0009B5B1C0093934209D355
:10058000E06D20F0020040F01000E06584F8586053
:100590000120F8BD8368DB0FEDD1E06D20F0020093
:1005A00040F00100E06584F858600846F8BD00009E
:1005B000C0FFFF3F02DE0400704700002DE9F84F46
:1005C0004FF000080446CDF800800D4694F85820FE
:1005D000DFF80094616947464046012A0AD00126A7
:1005E000FD4A84F8586041B1296A012905D0A36EFB
:1005F000EBB129E00220BDE8F88F6868092838D1FE
:10060000A96A4FF4785041B12B6801F07C0100EAEF
:1006100053400843E96A084302E0296800EA514070
:100620002168CB6C13400343CB64606621E0C4E9CE
:100630001971A96A286A31B101F07C01401E084392
:10064000E96A084300E0401E29682B79C1F3846100
:1006500003F01F0399400143A06E401EA066636E25
:1006600043EA0103636604D12068C16C1140194359
:10067000C164206803F097FA58B995F8250098B13D
:100680002068C16895F8262021F4401141EA4251C2
:10069000C160206803F08FFA8246206803F083FA75
:1006A0005AEA00000DD0FBE095F8260095F82410DA
:1006B000400540EA01512068C26822F4401211430B
:1006C000E6E7A86A30B1E86A20B195F8250001286C
:1006D0005ED003E095F82500012804D02068C168A9
:1006E00021F0007103E02068C16841F00071C16031
:1006F00095F83000012852D02068016921F00201EC
:100700000161AA6829682068B2F1004F38D003F06F
:100710006DFA2068416921F00041416120686969F2
:10072000C268C2F3C102520091402A69042A44D02F
:1007300000EB82002B68026EDFF8A0C203F0F843E2
:1007400002EA0C020B431A4342F0004101662068A2
:100750002A69A96900EB8200026E22F080720A43C6
:100760000266297F22682869012923D05FF00001F1
:1007700002EB8000026E22F000720A4302668FE0F4
:10078000002203F033FA2068416941F00041C4E7D8
:10079000E06D40F02000E0654FF00108A8E7D5E9E2
:1007A0000D1001432068026922F4FF7242F0020238
:1007B0001143A5E74FF00071DAE7002103F0E9F9F2
:1007C000400320684FF0000172D003F0E2F990FA84
:1007D000A0F0B0FA80F1286842036ED090FAA0F041
:1007E000B0FA80F0814204D100221146206803F063
:1007F00014FA0121206803F0CCF9400320684FF07F
:1008000001015DD003F0C5F990FAA0F0B0FA80F1D3
:100810002868420359D090FAA0F0B0FA80F08142E3
:1008200004D100220121206803F0F7F90221206899
:1008300003F0AFF9400320684FF0020148D003F005
:10084000A8F990FAA0F0B0FA80F12868420344D0E9
:1008500090FAA0F0B0FA80F0814204D10022022187
:10086000206803F0DAF90321206803F092F94003CD
:1008700020684FF0030133D003F08BF990FAA0F019
:10088000B0FA80F1286842032FD090FAA0F0B0FAB5
:1008900080F0814204D100220321206803F0BDF9D9
:1008A0002068816811F0010F22D0AFE000E004E081
:1008B00003F06FF9C0F384618DE7C0F3846091E7C2
:1008C00003F067F9C0F38461A2E7C0F38460A6E790
:1008D00003F05FF9C0F38461B7E7C0F38460BBE75E
:1008E00003F057F9C0F38461CCE7C0F38460D0E72C
:1008F000EB6829684B4550F8B03FC1F3120101D1B4
:100900000B4300E08B430360E86848457ED12868CC
:1009100041031CD090FAA0F1B1FA81F1491C01F019
:100920001F0109294FEA403132D8002912D000BFF7
:1009300090FAA0F1B1FA81F101F1010101F01F017A
:1009400006FA01F609D100BFC0F3846109E0C0F3E3
:100950008461E3E7C0F38461EEE790FAA0F1B1FAB5
:1009600081F101F1010101F01F0146EA816102D12B
:10097000C0F3846003E090FAA0F0B0FA80F000F1D8
:10098000010000F01F0000EB400041EA005139E097
:1009900000290ED090FAA0F1B1FA81F101F1010124
:1009A00001F01F0106FA01F606D100BFC0F3846111
:1009B00006E0C0F38461F1E790FAA0F1B1FA81F1A9
:1009C00001F1010101F01F0146EA816109D1C0F383
:1009D00084600AE000007F400040100400F0FF0344
:1009E00014E090FAA0F0B0FA80F000F1010000F0FD
:1009F0001F002B4A00EB400002EB005041EA0001CF
:100A000041F00071AA68206803F0F0F825482A68D0
:100A1000024240D024488168244B01F0E0719A42A0
:100A200002D0234B9A421BD10B0219D42268B2F197
:100A3000A04F30D1826841F4000122F0E0720A43F5
:100A400082601C481C490068B0FBF1F0801C00EB80
:100A50004000800000E0401E00900028FBD11AE01A
:100A6000164D174BAA4207D1CD0105D422689A42F0
:100A700011D041F0807109E0124DAA420BD14A0217
:100A800009D422689A4206D041F48001826822F09B
:100A9000E0720A43826084F858704046ABE500007B
:100AA000000020FE0000088000030050000021C369
:100AB0001000C09048000020400D0300000052C705
:100AC00000010050000084CBF0B54D492DED028BA4
:100AD00083B088426BD14C484A4C05682046667802
:100AE0008388C288018946480068EEB350F8806F59
:100AF000B6B26681406880B2E081D5F88050F31AC2
:100B000000EE103AADB2A581F8EEC00A9FED3F0AA3
:100B1000AA1A401A60EE800A9FED3D8AC4ED050ACC
:100B200000EE902AF8EEE00A60EE800AC4ED060AB4
:100B300000EE900AF8EEE00A20EE800AF0EE080AD5
:100B400084ED070A94ED041AB0EE480A04F07CFA2A
:100B500094ED040ADFED2F0A2F4970EE200AC4ED50
:100B6000040A10EE900A00E025E0884201DD84EDE1
:100B7000048A143401A994EC030A684604F0A0F92D
:100B80009DEC021AF0EE080AB0EE480A04F06AFA88
:100B900022481422014680ED030A1A482030FFF74C
:100BA0006AFB1849182220311D4802F097FF03B054
:100BB000BDEC028BF0BDA678761CF7B2A77050F89A
:100BC000806F6681D5F88050A5814068E08133440C
:100BD0009BB22A44A38092B20844E28081B2218170
:100BE0000A2FE4D3012060700A20B3FBF0F3B2FBBC
:100BF000F0F2B1FBF0F0A380E2802081D7E70000A3
:100C00006C01002000000020D80100206EFAB33CE7
:100C1000000000000AD7233CDA0FC9405801002029
:100C200044030020704700002DE9F0410446354898
:100C3000806800F01F05206802F0B5FF08BB21683E
:100C4000C868C96C00F0004011F4C07F00D190B1B9
:100C500094F85800012814D0012084F85800204648
:100C6000FFF7A4FB02004FF000030CD084F85830CB
:100C70001046BDE8F081E06D40F02000E065012005
:100C8000F7E70220F5E7E06DC00504D5206E20F0FF
:100C90000800206600E02366E06D42F2010188430F
:100CA00040F48050E065184F21684FF0A046B942EB
:100CB00001D1304600E00846884200D01DB9E06D01
:100CC00020F48010E0656020086084F858302068C7
:100CD000B84200D00646864209D045B1062D06D05E
:100CE000072D04D0E06D40F48010E065C0E7C168D6
:100CF00011F0007FBCD18168044B194041F008011C
:100D00008160B5E70003005000010050C0FFFF7F85
:100D10002DE9F04104464548806800F01F05206831
:100D200002F041FF08BB2168C868C96C00F00040B0
:100D300011F4C07F00D190B194F85800012814D06C
:100D4000012084F858002046FFF730FB01004FF0E7
:100D500000020CD084F858200846BDE8F081E06D10
:100D600040F02000E0650120F7E70220F5E7E06DA4
:100D7000C00504D5206E20F00800206600E0226641
:100D8000E06D42F20103984340F48050E065284B47
:100D900020684FF0A046984201D1374600E0074650
:100DA000874200D01DB9E76D27F48017E7656027FB
:100DB000076084F858202068C268920203D5426810
:100DC00042F480624260A06908282068426807D027
:100DD00022F0400242602068426842F0200206E0B1
:100DE00022F0200242602068426842F040024260E5
:100DF0002068984201D1324600E00246824209D082
:100E000045B1062D06D0072D04D0E06D40F48010CA
:100E1000E065A1E7C26812F0007F9DD18268054BB2
:100E20001A4042F00802826096E70000000300507A
:100E300000010050C0FFFF7F704770472DE9F04769
:100E4000044690F858009CB00E464FF00009012867
:100E500015D0012084F858000025179518952068B2
:100E60004FF0A04840450ED1284F0097384602F079
:100E7000A2FE8246206802F09EFE60B10EE00220D3
:100E80001CB0BDE8F087E06D40F02000E06584F81C
:100E900058500120F4E7BAF1000F09D0E06D40F09E
:100EA0002000E0654FF0010984F858504846E7E714
:100EB0001748326840F61F71002A826822F46042A7
:100EC00016D094F8383042EA433273681A4382608D
:100ED000D8F80820BB6802F0010203F001031A43AE
:100EE000E2D1B36832681A4383688B431A430BE03C
:100EF0008260D8F80820BB6802F0010203F0010309
:100F00001A43D1D182688A438260CDE70001005044
:100F1000000300502DE9F84F00270446009790F891
:100F20005800DFF8D8930D46B846012811D00126A5
:100F300084F85860206802F03AFE60B1E06D40F03D
:100F40002000E0655FF0010784F858803846BDE86E
:100F5000F88F0220FBE7D5E900210C23206803EA83
:100F600091131844036B01F01F014FF01F0C0CFA92
:100F700001FCC2F3846223EA0C038A401343036337
:100F8000206802F014FE8246206802F008FE5AEA49
:100F900000003CD1AA6829682068B2F1004F37D020
:100FA00002F015FE2068416921F00041416120688E
:100FB0006969C268C2F3C102520091402A69042AD9
:100FC00031D000EB82002B68026EDFF834C303F0EF
:100FD000F84302EA0C020B431A4342F00041016657
:100FE00020682A69A96900EB8200026E22F08072F3
:100FF0000A430266297F22682869012910D000214E
:1010000002EB8000026E22F000720A4302667DE06D
:10101000002202F0DCFD2068416941F00041C5E793
:101020004FF00071ECE7002102F0ADFD40032068B5
:101030004FF0000172D002F0A6FD90FAA0F0B0FAD5
:1010400080F1286842036ED090FAA0F0B0FA80F0E8
:10105000814204D100221146206802F0D6FD012110
:10106000206802F090FD400320684FF001015DD040
:1010700002F089FD90FAA0F0B0FA80F128684203EE
:1010800059D090FAA0F0B0FA80F0814204D1002249
:101090000121206802F0B9FD0221206802F073FDF1
:1010A000400320684FF0020148D002F06CFD90FA36
:1010B000A0F0B0FA80F12868420344D090FAA0F082
:1010C000B0FA80F0814204D100220221206802F0AF
:1010D0009CFD0321206802F056FD400320684FF07C
:1010E000030133D002F04FFD90FAA0F0B0FA80F186
:1010F000286842032FD090FAA0F0B0FA80F0814225
:1011000004D100220321206802F07FFD206881685D
:1011100011F0010F22D0A8E000E004E002F033FD5E
:10112000C0F384618DE7C0F3846091E702F02BFD8A
:10113000C0F38461A2E7C0F38460A6E702F023FD58
:10114000C0F38461B7E7C0F38460BBE702F01BFD26
:10115000C0F38461CCE7C0F38460D0E7EB68296812
:101160004B4550F8B03FC1F3120101D10B4300E0F1
:101170008B430360E868484577D1286841031CD059
:1011800090FAA0F1B1FA81F1491C01F01F0109297F
:101190004FEA403132D8002912D000BF90FAA0F1B6
:1011A000B1FA81F101F1010101F01F0106FA01F626
:1011B00009D100BFC0F3846109E0C0F38461E3E7B3
:1011C000C0F38461EEE790FAA0F1B1FA81F101F188
:1011D000010101F01F0146EA816102D1C0F3846080
:1011E00003E090FAA0F0B0FA80F000F1010000F006
:1011F0001F0000EB400041EA005132E000290ED010
:1012000090FAA0F1B1FA81F101F1010101F01F01A1
:1012100006FA01F606D100BFC0F3846106E0C0F310
:101220008461F1E790FAA0F1B1FA81F101F10101D5
:1012300001F01F0146EA816102D1C0F3846003E03E
:1012400090FAA0F0B0FA80F000F1010000F01F0069
:101250002C4A00EB400002EB005041EA000141F053
:101260000071AA68206802F0B2FC27482A6802428E
:101270003FF46AAE25488168254B01F0E0719A423F
:1012800002D0244B9A421CD10B021AD42268B2F12C
:10129000A04F7FF459AE826841F4000122F0E07261
:1012A0000A4382601C481D490068B0FBF1F0401CF5
:1012B00000EB4000800000E0401E00900028FBD1C1
:1012C00042E6174D174BAA4207D1CD0105D422683B
:1012D0009A42F5D041F0807109E0134DAA42EFD156
:1012E0004A02EDD422689A42EAD041F48001826831
:1012F00022F0E0720A43826026E6000000007F4090
:1013000000F0FF03000020FE0000088000030050F2
:10131000000021C31000C09048000020400D0300D1
:10132000000052C700010050000084CB7047704796
:101330002DE9F05F0446006806684568DFF854B29E
:10134000DBF8080000F01F07B0070ED5A8070CD582
:10135000E06DC00603D4E06D40F40060E065204617
:10136000FFF72AF9216802200860DFF82CA2700735
:101370004FF0A04801D5680703D4300737D52807B8
:1013800035D5E06DC00603D4E06D40F40070E06533
:10139000206802F014FC20B32068504501D1424679
:1013A00000E00246824208D03FB1052F05D0092F48
:1013B00003D0504503D1414602E0C16801E0014637
:1013C000C96889040DD4016809070AD502F0EFFB4A
:1013D00058B3E06D40F01000E065206E40F0010071
:1013E00020662046FFF7A2FF21680C200860B006A7
:1013F00001D5A80603D4700658D5680656D5E06D09
:10140000C00603D4E06D40F40050E0652068C16C74
:1014100011F4C07F1AD00021894602F0D0FB0246A9
:101420002068504514D1434613E02068416821F0FC
:101430000C014160E06D20F48070E065E06DC00457
:10144000CFD4E06D40F00100E065CAE70121E3E799
:101450000346834208D03FB1062F05D0072F03D0A3
:10146000504503D1414602E0C16801E00146C96828
:10147000B9F1000F14D08B0102D58AB18A040FD4C0
:10148000026852060CD589020AD402F088FBE8B340
:10149000E06D40F01000E065206E40F00100206635
:1014A0002046FFF711FB21686020086030060BD54D
:1014B000280609D5E06D40F48030E065204600F054
:1014C0006BF9216880200860F0050CD5E8050AD585
:1014D000E06D40F40030E0652046FFF7ADFC216888
:1014E0004FF480700860B0050CD5A8050AD5E06DF2
:1014F00040F48020E0652046FFF79FFC21684FF410
:1015000000700860F0062ED5E80600E008E02AD555
:10151000E06BD0B1AFB1DBF8080000F4604013E03D
:101520002068416821F060014160E06D20F4805046
:10153000E065E06DC005B3D4E06D40F00100E0650A
:10154000AEE72068C068C00750B1E06D40F480602D
:10155000E065206E40F0020020662046FFF7E7FEBF
:10156000216810200860700512D5680510D5E06D5F
:1015700040F48040E065206E40F00800206621685D
:101580004FF4806008602046BDE8F05FFFF74ABB7B
:10159000BDE8F09F0003005000010050F8B54FF087
:1015A000000504002E46009502D0E06D10B107E062
:1015B0000120F8BD204600F0F1F8266684F8586056
:1015C00020688168C1F3407119B181686A4A11408D
:1015D000816020688168C1F3007189B98168674AB8
:1015E000114041F080518160654866490068B0FB58
:1015F000F1F04000801C00E0401E00900028FBD16C
:1016000020688168C1F3007141B9E16D41F01001BA
:10161000E165216E41F001012166012502F0C7FA62
:10162000E16DC90600D430B1E06D40F01000E06516
:1016300001252846F8BDE06D20F4807040F00200DE
:10164000E0652068806810F0010F11D14FF0A040D4
:1016500080684D4900F00100896801F001010843EC
:1016600006D14A486168826822F47C120A4382608B
:10167000E168E06B627F0843A16841EA42310843B8
:1016800094F8241040EA0140012904D1218D404AF8
:1016900002EB41410843E16A29B101F47871226B00
:1016A000014342EA01002168CA683A4B1A400243EA
:1016B000CA6020680169626B21F0406111430161D9
:1016C000206802F074FA0646206802F068FA304397
:1016D0002ED1207F94F83810800340EA4102206820
:1016E000C16844F2020399431143C1602069002894
:1016F000206801690AD041F480310161206850F806
:10170000C01F22696FF30D01114307E021F48031FE
:101710000161206850F8C01F6FF30D01016094F85B
:10172000400001280CD02068016921F0010101610D
:10173000606901282068016B21F00F0111D013E0CE
:10174000D4E911010843D4E9131211430843216875
:101750000A6940F2FC739A43104340F001000861AB
:10176000E6E7226A521E11430163E06D20F0020099
:1017700040F00100E0655CE7C0FFFF5FC0FFFF7F56
:1017800048000020400D03000001005000030050FD
:101790000000FEFF0740F0FF704700002DE9F04118
:1017A00098B00446142111A8FEF77EFD4421684636
:1017B000FEF77AFD4FF40041206800258A03384F78
:1017C0000326384C4FF09048B0F1A04F10D0364B64
:1017D000984262D10F926846009100F029FD08B14D
:1017E000FEF79DFE3868401C3860012835D03CE08B
:1017F0000F926846009100F01BFD08B1FEF78FFEC6
:101800003868401C3860012807D1E06C40F4005073
:10181000E064E06C00F400501690E06C40F00100D1
:10182000E064E06C00F001001690E06C40F0020013
:10183000E064E06C139500F0020016900420CDE9FE
:10184000110611A9404600F0F1F941F2020013958A
:10185000CDE9110611A9154815E0E06C40F40050DF
:10186000E064E06C00F400501690E06C40F0010081
:10187000E064E06C139500F0010016904120CDE982
:10188000110611A9404600F0D1F90022114612209C
:1018900000F05CFB122000F04BFB18B0BDE8F081BB
:1018A00038000020001002400001005000040048F1
:1018B00010B590F8253000210122022B03D004211D
:1018C000C163012122E003681C6824F00E041C603F
:1018D000836C1C6824F480741C6003681C6824F00A
:1018E00001041C6090F84430046C03F01F0302FAFA
:1018F00003F36360D0E913345C60436D33B11C685B
:1019000024F480741C60D0E916345C6080F82520D3
:10191000002280F82420084610BD70B590F82520DC
:10192000002401212346022A07D00422C26380F842
:10193000251080F82430012429E00268156825F07C
:101940000E0515600268156825F001051560826CAA
:10195000156825F48075156090F84420056C02F038
:101960001F0201FA02F26A60D0E913255560426D48
:1019700032B1156825F480751560D0E916255560DB
:1019800080F8251080F82430816B01B1884720460B
:1019900070BDF0B4016C0C6801680D6890F84420CB
:1019A00002F01F06042202FA06F3234211D06B074D
:1019B0000FD50B689B0603D40B6823F004030B6060
:1019C00090F8441001F01F018A40016C4A60016BDD
:1019D0001DE0022303FA06F727424FF0000C4FF0F8
:1019E000010218D0AF0716D50C68A40605D40C6800
:1019F00024F00A040C6080F8252090F8441001F0CF
:101A00001F018B40016C4B6080F824C0C16A002923
:101A10001AD0F0BC08470823B340234214D02B0748
:101A200012D50B6823F00E030B6090F84410036C82
:101A300001F01F0102FA01F15960C26380F825200C
:101A400080F824C0416BE2E7F0BC704770B5040039
:101A50000CD02B4A21681420914209D2294A0A4409
:101A6000B2FBF0F08000606427480AE0012070BDFE
:101A7000234A52420A44B2FBF0F0800060642048DE
:101A800008382064022084F825000A6847F6F070C0
:101A90008243D4E902031843D4E904352B431843A5
:101AA000A3691843E3691843236A18431043086085
:101AB0002046FEF7D3FCA0680025B0F5804F00D18A
:101AC0006560A16C20790860D4E913014160606809
:101AD000401E032808D82046FEF7E0FC606D056034
:101AE000D4E91601416002E06565A565E565E56339
:101AF000012084F8250084F82450002070BD0000E7
:101B000008040240F8FFFDBF0000024070B5044623
:101B100090F82400002501280CD0012084F824002E
:101B200094F825600020012E06D084F824000225B8
:101B3000284670BD022070BD022684F82560E0634F
:101B40002068066826F0010606602046FEF7B8FC0D
:101B5000206B00282068016802D041F00E0106E0E9
:101B600021F0040101602068016841F00A01016070
:101B7000A06C0168C90303D5016841F4807101605C
:101B8000606D18B1016841F48071016020680168DE
:101B900041F001010160CBE710B5B0F5006F1CD03A
:101BA000B0F5005F33D10021194801F0C7FC0421D2
:101BB000174801F0C3FC0821154801F0BFFC0021C3
:101BC000134801F0EBF80421114801F0E7F8BDE8F3
:101BD000104008210E4801F0E1B800210C4801F046
:101BE0002FFC04210A4801F02BFC0821084801F0D1
:101BF00027FC0021064801F075F80421044801F093
:101C000071F8BDE810400821014801F06BB810BD23
:101C1000F8020020044910B50A68024202D00860A8
:101C2000FFF7BAFF10BD0000140401402DE9F04F8A
:101C3000DFF82092002301260324A9F1040B85B0CC
:101C40000F2709F1040AABF1040EFAE006FA03F5D6
:101C50002A407CD091F804C00CF0030CBCF1010FB9
:101C600002D0BCF1020F26D1D0F808C0CDF800C0D8
:101C70004FEA430C04FA0CF8CDF810C0DDF800C0B0
:101C80002CEA080CCDF800C0D1F80C80DDF810C0AB
:101C900008FA0CF8DDF800C048EA0C08C0F8088023
:101CA000D0F804C02CEA050C0D79C5F300159D4051
:101CB00045EA0C0545600D79ED43AD070ED0C568CA
:101CC0004FEA430804FA08FC25EA0C05D1F808C0DD
:101CD0000CFA08FC4CEA050CC0F80CC00D7905F0B4
:101CE0000305022D16D1DD0800EB850CCDF808C0E8
:101CF000DCF820805D074FEAD56C07FA0CF528EA7E
:101D000005080D6905FA0CF5DDF808C045EA080577
:101D1000CCF8205005684FEA430CCDF808C004FA0F
:101D20000CFC25EA0C0591F804C00CF00308DDF862
:101D300008C008FA0CF848EA0508C0F800804D68A9
:101D400015F4403F7CD0444DD5F860C000E077E00A
:101D50004CF0010CC5F860C02D6E23F0030C05F0AB
:101D6000010500953D4D65440295AD684FEA837CC1
:101D70004FEA1C7807FA08FC25EA0C05B0F1904FF1
:101D800006D0DFF8DCC0604505D14FF0010C20E043
:101D90004FF0000C1DE0DFF8CCC0604502D14FF0E1
:101DA000020C16E0DFF8C0C0604502D14FF0030C12
:101DB0000FE0DFF8B8C0604502D14FF0040C08E036
:101DC000DFF8ACC0604502D14FF0050C01E04FF0E8
:101DD000060C0CFA08FC4CEA050C029DC5F808C07C
:101DE000D9F80050CC46D1F8048095435FEAC82862
:101DF00000D51543CCF80050DAF80050D446D1F89D
:101E0000048095435FEA882800D51543CCF800503C
:101E1000DBF80050DC46D1F8048095435FEA88384F
:101E200000D51543CCF80050DEF80050F446D1F848
:101E3000048095435FEAC83800D51543CCF80050BC
:101E40005B1C0A6832FA03F57FF400AF05B0BDE809
:101E5000F08F000008040140001002400000014023
:101E60000004004800080048000C0048001000482A
:101E7000001400480AB18161704781627047000018
:101E800001488068704700003C00002002488168DB
:101E900042681144816070473C00002010B5002466
:101EA000032000F073F80F2000F008F808B10124B7
:101EB00001E000F025F8204610BD000070B50E4E80
:101EC00005460024706898B14FF47A71B1FBF0F0C8
:101ED0000A490968B1FBF0F000F03EFE40B9102D50
:101EE00006D200222946501E00F030F8356000E08E
:101EF0000124204670BD00003C0000204800002066
:101F00000A4882B0016E41F001010166016E01F0E4
:101F100001010091816D41F080518165806D00F07B
:101F20008050009002B000F07BB900000010024029
:101F3000002809DB00F01F020121914040098000C8
:101F400000F1E020C0F8001170470000F0B40E4B23
:101F50001B680C46C3F30223C3F10705042D00D907
:101F60000425191D072901D2002300E0DB1E0126EC
:101F700006FA05F1491E214099409E40761E164002
:101F80003143F0BC02F07DBF0CED00E0064900F0EB
:101F9000070208684FF6FF03184040EA0220034A90
:101FA00010430860704700000CED00E00000FA05E7
:101FB000F8B504004FF0000514D094F83A00052855
:101FC00010D094F83A0002280CD03448016E41F049
:101FD00001010166006E00F00100009094F83A00E3
:101FE00010B104E00120F8BD002084F8390020463B
:101FF00000F058F8A0682A4A4FF48071402836D083
:10200000602834D020680368E66A23F01003334365
:102010000360D4E901031843D4E90336334318437A
:10202000237D012B00D000210843616A0843A16A87
:102030000843218E40EAC14094F8341040EA01611F
:1020400020680368134019430160206881690029F2
:1020500009DBD4E906121143226A836923F03F03A6
:102060001A431143816194F83A0090B114E020685A
:102070000368E66A23F0100333430360D4E90103E5
:102080001843267D2369012E00D000210B431843FD
:10209000CBE7012084F83A002846F8BD0010024042
:1020A000113E00E030B587B0044614216846FEF7C3
:1020B000FBF824681D4D00221D4903234FF090407A
:1020C000AC4209D1CC6C44F00104CC64C96C01F081
:1020D000010105910E210CE0144D2D1DAC4211D1D2
:1020E000CC6C44F00104CC64C96C01F00101059191
:1020F000E021CDE9001302924FEA0D01FFF796FDB2
:1021000007B030BD094808308442F9D1C86C40F0AE
:102110000200C864C86C694600F002000590072000
:10212000CDE9000302920348E8E700000003014004
:102130000010024000040048002138B190F83A2015
:10214000052A03D090F83A20012A02D0012108463E
:1021500070470268136843F001031360042280F89B
:102160003A20F4E72B492C4B0A6832214A432B4989
:1021700040B1B0F5007F086829D020F4C06040F479
:1021800080602CE00868C0F34120022804D051F898
:10219000800F20F4807022E0D1F8800020F480705D
:1021A000C1F88000086820F4C06040F40070086046
:1021B000B2FBF3F0401C00E0401E4A69520501D515
:1021C0000028F9D1486940050AD503207047C0F3BB
:1021D0004120022806D051F8800F40F4807008603A
:1021E00000207047D1F8800040F48070C1F8800072
:1021F000086820F4C06040F400700860B2FBF3F09F
:10220000401C00E0401E4A695205DBD50028F9D188
:10221000D8E700004800002040420F000070004056
:102220000248816841F4804181607047007000403D
:102230002DE9F8430446006800269D4D00035ED555
:10224000A86D0027C00008D4A86D40F08050A86594
:10225000A86D012700F080500090DFF85892D9F85F
:10226000001041F48071C9F80010FFF709FE8046A4
:1022700006E000BFFFF704FEA0EB080002282BD801
:10228000D9F80000C005F5D5D5F8900010F44070DD
:1022900014D0216C814211D0D5F89000D5F890105F
:1022A00020F4407041F48031C5F89010D5F89010BA
:1022B00021F48031C5F89010C5F89000C00711D006
:1022C000FFF7DEFD804641F2883907E0FFF7D8FDD1
:1022D000A0EB0801494501D903260BE0D5F8900091
:1022E0008007F3D5D5F89000216C20F440700843A6
:1022F000C5F890001FB1A86D20F08050A865207827
:10230000C00707D0D5F88800616820F003000843B3
:10231000C5F888002078800707D5D5F88800A1681F
:1023200020F00C000843C5F888002078400707D546
:10233000D5F88800E16820F030000843C5F888002F
:102340002078000707D5D5F88800216920F0C00063
:102350000843C5F888002078800607D5D5F888009E
:10236000616920F440600843C5F888002078400681
:1023700007D5D5F88800A16920F440500843C5F876
:1023800088002078000607D5D5F88800E16920F498
:1023900040400843C5F888002088C00507D5D5F817
:1023A0008800216A20F440300843C5F8880020885E
:1023B000800507D5D5F88800616A20F440200843DD
:1023C000C5F88800208840050FD5D5F88800A16A97
:1023D00020F440100843C5F88800A06AB0F5801FBB
:1023E00003D1E86840F48010E860208800050FD52C
:1023F000D5F88800E16A20F440000843C5F8880059
:10240000E06AB0F5800F03D1E86840F48010E8601E
:102410002088C0040FD5D5F88800216B20F04070CB
:102420000843C5F88800206BB0F1807F03D1E868CD
:1024300040F48010E86020884FF0006180040ED5E1
:10244000D5F88800626B20F040601043C5F8880022
:10245000606B884203D1E86840F48010E86020880F
:1024600040040ED5D5F88800A26B20F040601043E0
:10247000C5F88800A06B884203D1E86840F480105A
:10248000E860208800040FD5D5F88800E16B20F0C3
:1024900040500843C5F88800E06BB0F1805F03D17D
:1024A000E86840F48030E8603046BDE8F88300001A
:1024B00000100240007000402DE9F0470E46050074
:1024C0004FF0000725D0DFF8AC81D8F8000000F00D
:1024D0000F00B0420CD2D8F8001021F00F013143A8
:1024E000C8F80010D8F8000000F00F00B04210D17A
:1024F0002968614CC80741F2883A5AD06868DFF809
:102500007C91032808D0022820682DD0400500289F
:102510002CDB0120BDE8F08720688001F9D5E06858
:1025200000F00302E068C0F30310401C032A19D036
:10253000534A00BFB2FBF0F0E268C2F306225043F8
:10254000E268C2F34162521C5200B0FBF2F048450F
:1025500017D9A06810F0F00F0CD0880711D5A86823
:1025600040B10EE0474AE5E78003D0E700F0B6F857
:10257000484506D9A06820F0F00040F08000A06037
:102580008027A068696820F003000843A060FFF777
:1025900077FC814606E000BFFFF772FCA0EB090163
:1025A00051453AD8A068696800F00C00B0EB810F83
:1025B000F2D12868810714D5400703D5A06840F4FC
:1025C000E060A0602878000705D5A06820F460507E
:1025D00040F4E060A060A068A96820F0F000084323
:1025E00004E0802F03D1A06820F0F000A060D8F8AC
:1025F0000010404601F00F01B14216D9016821F0E8
:102600000F0131430160FFF73BFC074607E000BFC5
:10261000FFF736FCC11B514501D903207AE7D8F8F2
:10262000000000F00F00B042F2D12878400705D535
:10263000A068E96820F4E0600843A06028780007FB
:1026400006D5A068296920F4605040EAC100A06066
:1026500000F044F8A1680C4AC1F30311515C01F089
:102660001F01C8400949086009480068BDE8F047F3
:10267000FFF724BC002002400010024000B4C40454
:102680000024F40000366E01E250000848000020EB
:102690003C0000200548064900688968054AC1F3E6
:1026A0000221515C01F01F01C84070474800002022
:1026B00000100240F2500008054806490068896889
:1026C000054AC1F3C221515C01F01F01C8407047A7
:1026D0004800002000100240F2500008184910B5D0
:1026E0008868C0F381021748012A0BD08A68164B0C
:1026F000C2F38102022A06D08A68C2F38102032A49
:1027000003D0002010BD184610BDCA6802F00304B3
:10271000CA68C2F30312521C032C02D0B0FBF2F0C1
:1027200001E0B3FBF2F0CA68C968C2F30622504365
:10273000C1F34161491C4900B0FBF1F010BD00003C
:10274000001002400024F40000366E012DE9F84329
:1027500004007AD02078FA4DC00747D0A868E9680D
:1027600000F00C0001F003010C2802D0082817D05B
:1027700001E0032914D06068B0F5803F17D0B0F5B0
:10278000A02F286817D020F480302860286820F413
:10279000802028606068E0B1FFF772FB064614E015
:1027A0002868800322D560680028D2D01EE02868FF
:1027B00040F48030EDE740F480202860F7E700BF68
:1027C000FFF75EFB801B642870D828688003F7D56C
:1027D0000CE0FFF755FB064605E000BFFFF750FB96
:1027E000801B6428F0D828688003F7D420788007FD
:1027F0004CD5A868E96800F00C0001F003010C2832
:1028000002D004280DD001E002290AD0E068002897
:1028100028682BD040F480702860FFF731FB064613
:1028200019E02868400502D5E068002891D0686862
:10283000217C20F0FE4040EA01606860C1480068E9
:10284000FFF73CFB002800D120E076E1FFF718FB02
:10285000801B0228B8D828684005F7D56868217C15
:1028600020F0FE4040EA016068600FE020F48070D4
:102870002860FFF705FB064605E000BFFFF700FBF9
:10288000801B0228A0D828684005F7D420780007CC
:1028900029D560690028D5F8940013D040F00100D4
:1028A000C5F89400FFF7ECFA064606E090E000BF9A
:1028B000FFF7E6FA801B022886D8D5F89400800737
:1028C000F6D510E020F00100C5F89400FFF7D8FA23
:1028D000064604E0FFF7D4FA801B022878D8D5F822
:1028E00094008007F6D42078400761D5A86D0026B3
:1028F000C00008D4A86D40F08050A865A86D0126DE
:1029000000F08050009090480168C90511D401681A
:10291000804641F480710160FFF7B2FA074604E097
:10292000FFF7AEFAC01B022852D8D8F80000C00545
:10293000F6D5A068012815D00528D5F8900016D046
:1029400020F00100C5F89000D5F8900020F00400B8
:10295000C5F89000A06841F28838B8B1FFF790FA46
:1029600007460EE0D5F8900040F00100F0E740F097
:102970000400C5F89000F5E7FFF782FAC11B414556
:1029800026D8D5F890008007F6D50CE0FFF778FA46
:10299000074604E0FFF774FAC11B414518D8D5F883
:1029A00090008007F6D41EB1A86D20F08050A86575
:1029B0002078800629D5A0690028D5F8980013D082
:1029C00040F00100C5F89800FFF75AFA064606E005
:1029D00077E000BFFFF754FA801B022877D8D5F8BC
:1029E00098008007F6D510E020F00100C5F89800A7
:1029F000FFF746FA064604E0FFF742FA801B02287A
:102A000065D8D5F898008007F6D4E069F0B3A968D6
:102A1000C1F38101032961D00228286820F0807069
:102A200028600BD0E86820F00300E860E8684749B8
:102A30000840E860FFF724FA04464BE0FFF720FA6D
:102A4000064604E0FFF71CFA801B02283FD82868DE
:102A50008001F7D4F4E908016FF00F0202EB0111D5
:102A60000843218A5204490802EB4151A26841EA15
:102A700002210843217D4FF07E42490802EB41616B
:102A80000843217B40EAC160E96800E062E0304A27
:102A900011400843E860286840F080702860E868CA
:102AA00040F08070E860FFF7EBF9044605E000BFF6
:102AB000FFF7E6F9001B022809D828688001F7D53E
:102AC00048E004E0FFF7DCF9001B022802D90320EC
:102AD000BDE8F88328688001F4D43BE00128F7D0F2
:102AE000E868226A00F00301914226D1616A00F091
:102AF000F0020901103991421FD1A26A00F4FE418F
:102B0000B1EB022F19D194F82C2000F07841B1EBF1
:102B1000C26F12D1218E00F4C00249084905A1F507
:102B20000011914209D194F8341000F0C0604908B6
:102B30004906A1F1007181420CD00120C8E70000D4
:102B4000001002403C00002000700040FFFFEEFE3D
:102B50000C809F010020BBE710B5401EB0F1807FC4
:102B600001D3012010BD4FF0E02460610F216017F8
:102B700002F087F90020A06107202061002010BD2D
:102B80007047704770470000F0B590F83C20012A6C
:102B90004AD0012280F83C20CA688B6822F4407237
:102BA0001A434B6822F480621A430B6822F40062D5
:102BB0001A430B6922F480521A434B6922F40052E3
:102BC0001A430B6B22F480421A430B8B22F47022BF
:102BD00042EA0342154C03680026154DA34201D07A
:102BE000AB4203D1CF6922F080523A43A34201D0D5
:102BF000AB4214D10F8D22F4700242EA07520F6AE1
:102C000022F080723A434F6A22F000723A43A342A4
:102C100001D0AB4203D1C96A22F000520A435A6480
:102C200080F83C600020F0BD0220F0BD002C014087
:102C30000034014070470068416D41F40031416546
:102C40000020704770477047F0B590F83C20012A8B
:102C50003AD0012580F83C50022280F83D200368DC
:102C60005A689C68194E1A4FB34201D0BB4204D136
:102C700022F4700C4A6842EA0C02DFF858C002EAFB
:102C80000C02D1F800C04CEA020CC3F804C0026880
:102C9000B2420DD0B2F1804F0AD00F4B9A4207D00A
:102CA0000E4B9A4204D0BA4202D00D4B9A4204D144
:102CB000896824F080031943916080F83D50002119
:102CC00080F83C100846F0BD0220F0BD002C014009
:102CD000003401408FFFFFFD000400400008004069
:102CE0000040014010B50446022249B104290ED02B
:102CF000082913D094F84700012816D0012010BDF0
:102D000094F844000128F9D184F844200FE094F8A5
:102D100045000128F2D184F8452008E094F84600E7
:102D20000128EBD184F8462001E084F847200422F2
:102D3000206801F0D6FB2068416C41F400414164F9
:102D40001049206888420ED0B0F1804F0BD00E4958
:102D5000884208D00D49884205D00D49884202D0EA
:102D60000C49884207D181680B4A1140062906D0D8
:102D7000B1F5803F03D0016841F0010101600020FE
:102D800010BD0000002C014000040040000800407D
:102D900000340140004001400700010070B50446C6
:102DA0000D460068002201F09CFB2068036A41F296
:102DB00011110B4244F2444206D1036A134203D17B
:102DC000436C23F4004343642068036A0B4206D13A
:102DD000016A114203D1016821F001010160012063
:102DE0003DB1042D08D0082D09D084F847000020FB
:102DF00070BD84F84400FAE784F84500F7E784F8EA
:102E00004600F4E7704710B5040003D094F83D0085
:102E100010B107E0012010BD002084F83C002046DE
:102E200000F022F8022084F83D00211D206801F006
:102E3000F3FA012084F8480084F83E0084F83F004B
:102E400084F8400084F8410084F8420084F843008C
:102E500084F8440084F8450084F8460084F847006C
:102E600084F83D00002010BD08B500680F49884275
:102E70001AD10F48016E41F400610166006E002214
:102E800000F40060009011461820FFF75FF818204A
:102E9000FFF74EF8002211461920FFF757F8BDE85A
:102EA00008401920FFF744B808BD0000002C01407D
:102EB0000010024090F83D10012901D00120704718
:102EC000022180F83D1000680F4988420ED0B0F111
:102ED000804F0BD00D49884208D00D49884205D05B
:102EE0000C49884202D00C49884207D181680B4ABC
:102EF0001140062906D0B1F5803F03D0016841F0AA
:102F00000101016000207047002C014000040040D6
:102F1000000800400034014000400140070001006B
:102F200070B5044690F83C000025012814D0012615
:102F300084F83C60022084F83D0022689068364B9B
:102F4000184020F47F409060086870282ED010DC74
:102F500010F00F0F03D021E04FF0020070BD4FEAD8
:102F60002012072A1AD2DFE802F0525252524A388F
:102F700040002A4BC21A984249D009DCB0F5805F64
:102F80000DD0B0F5005F1CD0B0F1101F06D13EE0AF
:102F9000102A3CD0202A3AD0502A38D0012584F873
:102FA0003D60002084F83C00284670BDCB68D1E924
:102FB0000121206801F0A2FA2068816841F07701C0
:102FC00009E0CB68D1E90121206801F097FA206877
:102FD000816841F480418160E1E7CA6849682068FE
:102FE00001F036FC5021206806E0CA684968206874
:102FF00001F03FFC6021206801F08AFACFE7CA683F
:103000004968206801F024FC40212068F4E7226828
:1030100001461046F0E7000088FFCEFF20001000B8
:10302000704770B50446006801694FF00005C94358
:10303000890715D4C168C943890711D4E91E016104
:1030400001202077206880698007204602D0FFF7A2
:10305000E7FF04E000F02EF9204600F0F0F92577B4
:1030600020680169C943490717D4C168C9434907A2
:1030700013D46FF004010161022020772068806979
:1030800010F4407F204602D0FFF7CAFF04E000F0B2
:1030900011F9204600F0D3F9257720680169C9436A
:1030A000090716D4C168C943090712D46FF0080193
:1030B0000161042020772068C0698007204602D083
:1030C000FFF7AEFF04E000F0F5F8204600F0B7F996
:1030D000257720680169C943C90617D4C168C94367
:1030E000C90613D46FF01001016108202077206811
:1030F000C06910F4407F204602D0FFF791FF04E042
:1031000000F0D8F8204600F09AF925772068016988
:10311000C943C90708D1C168C943C90704D1891E79
:103120000161204600F060FA20680169C943090680
:1031300009D4C168C943090605D46FF08001016153
:103140002046FFF71EFD20680169C943C90509D45F
:10315000C168C943090605D46FF480710161204636
:10316000FFF70EFD20680169C943490609D4C1680B
:10317000C943490605D46FF040010161204600F0C3
:1031800034FA20680169C943890609D4C168C94372
:10319000890605D46FF0200101612046FFF7F2FC9B
:1031A00020680169C943C90209D4C168C943C90279
:1031B00005D46FF4801101612046FFF743FD2068BC
:1031C0000169C943890209D4C168C943890205D488
:1031D0006FF4001101612046FFF72CFD20680169A2
:1031E000C943490209D4C168C943490205D46FF4EF
:1031F000800101612046FFF726FD20680169C9436F
:1032000009020BD4C168C943090207D46FF4000155
:1032100001612046BDE87040FFF7F4BD70BD0000BD
:10322000F0B587B0044614216846FDF73DF81E4905
:103230002068884236D11D48C16C41F00201C1644A
:10324000C16C01F002010591C16C41F00101C16442
:10325000C06C022500F0010005904FF4C0400090C2
:103260000024CDE901540626114FCDE903466946F5
:103270003846FEF7DBFCA8030090CDE9015404209A
:10328000CDE9034069463846FEF7D0FC4FF4E060D4
:103290000090CDE90154CDE9034669464FF09040D6
:1032A000FEF7C4FC07B0F0BD002C01400010024046
:1032B00000040048704770B5044690F83C000026B2
:1032C0000D4601280BD0012084F83C000C2A4AD07E
:1032D00007DC82B1042A20D0082A06D131E002207E
:1032E00070BD102A53D0142A63D00126002084F820
:1032F0003C00304670BD206801F014F920688169F7
:1033000041F0080181612068816921F00401816137
:10331000206881692A69114311E0206801F050F9A1
:103320002068816941F4006181612068816921F42C
:1033300080618161206881692A6941EA0221816195
:10334000D4E7206801F084F92068C16941F00801E0
:10335000C1612068C16921F00401C1612068C169AF
:103360002A69114311E0206801F0BAF92068C169A7
:1033700041F40061C1612068C16921F48061C161CB
:103380002068C1692A6941EA0221C161AEE720686B
:1033900001F0EEF92068016D41F008010165206837
:1033A000016D21F0040101652068016D2A69114356
:1033B00011E0206801F014FA2068016D41F4006109
:1033C00001652068016D21F4806101652068016D4F
:1033D0002A6941EA0221016588E710B5040003D09B
:1033E00094F83D0010B107E0012010BD002084F8E2
:1033F0003C00204600F022F8022084F83D00211D08
:10340000206801F009F8012084F8480084F83E00A3
:1034100084F83F0084F8400084F8410084F84200BA
:1034200084F8430084F8440084F8450084F846009A
:1034300084F8470084F83D00002010BD70477047B5
:1034400030B50446022269B1042912D0082917D0E8
:103450000C291CD0102921D094F84300012824D035
:10346000012030BD94F83E000128F9D184F83E20B7
:103470001DE094F83F000128F2D184F83F2016E0C7
:1034800094F840000128EBD184F840200FE094F834
:1034900041000128E4D184F8412008E094F842007A
:1034A0000128DDD184F8422001E084F84320012284
:1034B000206801F009F8194B20681949194A984207
:1034C00009D0884207D0904205D0174DA84202D0BB
:1034D000164DA84203D1456C45F40045456420686B
:1034E00098420CD0B0F1804F09D0114B984206D0D1
:1034F000104B984203D0884201D0904207D1816896
:103500000D4A1140062906D0B1F5803F03D001686D
:1035100041F001010160002030BD0000002C01409D
:103520000034014000400140004401400048014097
:1035300000040040000800400700010030B50446C8
:103540000D460068002200F0BFFF224B41F211112E
:1035500020688A0098420BD01F4B984208D01F4B1E
:10356000984205D01E4B984202D01E4B984209D17A
:10357000036A0B4206D1036A134203D1436C23F45E
:10358000004343642068036A0B4206D1016A11427A
:1035900003D1016821F00101016001205DB1042D1A
:1035A0000CD0082D0DD00C2D0ED0102D0FD084F87E
:1035B0004300002030BD84F83E00FAE784F83F0065
:1035C000F7E784F84000F4E784F84100F1E784F875
:1035D0004200EEE7002C0140003401400040014071
:1035E00000440140004801407047704790F8801047
:1035F000012918D0012180F880102421C0F88410FE
:1036000050F8641B0A680B6823F001030B6022F07A
:1036100000510022026050F8643C196020210162D0
:10362000027710467047022070477047704770B5A8
:10363000044690F8800001281DD0012084F8800005
:103640002420C4F8840020680568026822F0010282
:1036500002602068826822F060620A43826020462D
:1036600001F01AF9206805602020C4F884000020C9
:1036700084F8800070BD022070BD70B5044690F8DB
:10368000800001281DD0012084F880002420C4F887
:10369000840020680568026822F001020260206848
:1036A000826822F060420A438260204601F0F4F80A
:1036B000206805602020C4F88400002084F8800081
:1036C00070BD022070BD7047704770472DE9F04112
:1036D00003680446D86919689A6840F60F052842BD
:1036E0004FF0000509D186067ED501F0200602F0D4
:1036F00080573E4378D0216F27E1A94EA94F16404D
:103700000F40374370D0C70709D0CF0507D5012731
:103710001F62D4F88C3043F00103C4F88C30830767
:103720000AD5D30708D0276802233B62D4F88C302F
:1037300043F00403C4F88C3043070AD5D30708D0FC
:10374000276804233B62D4F88C3043F00203C4F8AA
:103750008C3003070CD501F02003334308D02668D2
:1037600008233362D4F88C3043F00803C4F88C305B
:1037700003050BD54B0109D526684FF4006333626E
:10378000D4F88C3043F02003C4F88C30D4F88C305B
:10379000002B3AD0800609D501F0200002F08051BC
:1037A000084303D0216F09B120468847D4F88C0024
:1037B00021688968490602D410F0280F27D02046D6
:1037C00001F078F92068806840061BD52068083031
:1037D00050E8001F21F0400140E80012002AF5D116
:1037E000E06F78B1704900E017E08163E06FFEF7A9
:1037F00094F8002809D0E06F816B00E02046BDE816
:10380000F04108472046FFF760FFBDE8F081204601
:10381000FFF75BFFC4F88C50F7E7E76E2026012F17
:103820007ED1C7067CD5CF067AD5102018622068D5
:103830008068400642D5E16F086840680004000CCB
:10384000E3D0B4F85C208242DFD9A4F85E000868B7
:10385000006880062BD4206850E8001F21F4807196
:1038600040E80012002AF6D12068083050E8001F16
:1038700021F0010140E80012002AF5D1206808304B
:1038800050E8001F21F0400140E80012002AF5D165
:10389000C4F88860E566216851E8000F20F0100048
:1038A00041E80002002AF6D1E06FFEF701F8B4F813
:1038B0005C00B4F85E10401A81B22CE0B4F85C00F1
:1038C000B4F85E10401A81B2B4F85E0000289CD0B3
:1038D00000299AD0226852E8000F20F4907042E844
:1038E0000003002BF6D12E4BDB432068083050E854
:1038F000002F1A4040E80027002FF6D1C4F8886056
:10390000E5662567226852E8000F20F0100042E8C3
:103910000003002BF6D12046FFF787FE75E7FFE78F
:10392000C70209D5570207D54FF480101862204608
:10393000BDE8F041FFF7C8BE03060AD501F08003D9
:1039400002F40002134304D0616F00297FF456AFE4
:103950005BE7420611D54A060FD52046016851E8BB
:10396000002F22F0400241E80023002BF6D1C0F8DE
:103970008460456700F004F947E7020206D54A0073
:1039800004D52046BDE8F041FFF79DBEC001C5D576
:103990000029C3DA2046BDE8F041FFF747BE00002A
:1039A0000100001020010004054A000810B50400C1
:1039B00003D0D4F8840010B107E0012010BD00202E
:1039C00084F88000204600F027F82420C4F8840002
:1039D0002068016821F001010160204601F0ACF887
:1039E0000128EBD0A06A10B1204600F077FF2068D4
:1039F000416821F4904141602068816821F02A01EA
:103A000081602068016841F0010101602046BDE845
:103A1000104000F0C7BF000070B598B006461421F2
:103A200011A8FCF741FC44216846FCF73DFC2649FF
:103A30003068884245D104200025009003956846EF
:103A4000FEF7F6FB08B1FCF76AFD2049886D40F4EB
:103A500080208865886D00F480201690C86C40F046
:103A60000200C864C86C11A900F0020016904FF45F
:103A7000406011900220CDE912050720CDE91450D5
:103A80001348FEF7D3F8144C124820601D206060E4
:103A90001020C4E902058020C4E90405A561E561A0
:103AA00020462562FDF7D2FF08B1FCF738FDB46768
:103AB000002211462720A662FEF748FA2720FEF7CB
:103AC00037FA18B070BD00000048004000100240F6
:103AD0000004004808000240D403002070B50446EA
:103AE000D0F88400202842D171B36AB394F88000E2
:103AF00001283CD0012084F880002165A4F85420DE
:103B0000A4F856200025C4F88C502120C4F8840065
:103B1000A06FD8B11749C162A16F17481346086357
:103B2000A16F16484863A06F85632668216D06F172
:103B30002802A06FFDF7EAFF40B11020C4F88C0006
:103B400004F8805F20206060012070BD2168402063
:103B5000086284F880502068083050E8001F41F067
:103B6000800140E80012002AF5D1002070BD02203B
:103B700070BD0000694A0008AB4A0008194A0008F5
:103B800070477047FEE700EB8100006E00F0F840E0
:103B9000704700EB8100006E00F0F84070478068CD
:103BA000C0F3C00070478068C0F3C00070478068F1
:103BB000C0F3800070478068C0F380007047C06821
:103BC00010F4406F01D0002070470120704704239B
:103BD00003EAD15310B518444369C1F304510724D3
:103BE0008C40A3438A401343436110BD042303EA7E
:103BF000D15310B518444369C1F3045107248C40D4
:103C0000A3438A401343436110BD00EB8100016E62
:103C100021F0004111430166704700EB8100016E05
:103C200021F000411143016670470000F0B59BB0E0
:103C300000241794189420210FA81994FCF734FB42
:103C40003C216846FCF730FB31484FF0A04101258C
:103C500001604FF40021C0E9011400F110010426B5
:103C6000C46081E8700004774477056280F82440DE
:103C7000C462046380F83840C46380F84040FDF7B4
:103C80008DFC08B1FCF74BFC17A921481794FDF7F0
:103C9000D5F808B1FCF743FC1E480F9010A9062088
:103CA0007F2781E89100CDE913640FA91848FDF73B
:103CB00031F908B1FCF733FC1748009001A909203D
:103CC00081E8A100CDE904640220089084200A90D4
:103CD0008DF8244080208DF825400B908DF82640EB
:103CE0008DF8304069460A48FCF768FC08B1FCF7DB
:103CF00016FC0A48009040F20F10019069460448F3
:103D0000FCF75CFC002801D0FCF709FC1BB0F0BDFF
:103D10006C0100200008302E0800900C001060326A
:103D2000F0B597B020210FA8FCF7BEFA3C216846F9
:103D3000FCF7BAFA2748264900240160C902C0E905
:103D40000114C46004250461C0E905450477447783
:103D50000126066280F82440C462046380F838407B
:103D6000C46380F84040FDF719FC08B1FCF7D7FBAD
:103D700019480F9010A906207F2781E89100CDE90E
:103D800013540FA91348FDF7C5F808B1FCF7C7FB9A
:103D90001248009001A9092081E8C100CDE904542E
:103DA00084200A908DF8244080208DF825400B90C7
:103DB00008968DF826408DF8304069460548FCF796
:103DC000FDFB002801D0FCF7AAFB17B0F0BD0000F6
:103DD00000010050D8010020020030040800900CBF
:103DE0000D4808B5816C41F004018164816C01F0DB
:103DF00004010091816C41F001018164806C00221A
:103E000000F00100009011460B20FEF79FF8BDE87E
:103E100008400B20FEF78CB80010024030B587B088
:103E200014216846FCF740FA2748C16C41F00401B0
:103E3000C164C16C01F004010591C16C41F0200125
:103E4000C164C16C01F020010591C16C41F0010118
:103E5000C164C16C01F001010591C16C41F0020126
:103E6000C164C06C194D00F0020005900022502181
:103E70002846FDF7FFFF4FF4305000904FF48810B4
:103E80000024CDE9010469462846FDF7CFFE502005
:103E900000900120CDE90104694628460394FDF70E
:103EA000C5FE022000900320CDE9010469460848C0
:103EB000FDF7BCFE002211462820FEF747F8282017
:103EC000FEF736F807B030BD001002400008004889
:103ED000000400480B4810B5094901600021416009
:103EE0008160C160016101758161C162FEF760F8A6
:103EF000002803D0BDE81040FCF711BB10BD000046
:103F000000030140440200200B4810B5094901603C
:103F1000002141608160C160016101758161C16200
:103F2000FEF746F8002803D0BDE81040FCF7F7BACA
:103F300010BD000004030140800200200B4810B5B2
:103F400009490160002141608160C1600161017522
:103F50008161C162FEF72CF8002803D0BDE8104053
:103F6000FCF7DDBA10BD000008030140BC020020D0
:103F700070B59CB0002419941A9417941894149452
:103F800015941C2168461694FCF78EF9342107A875
:103F9000FCF78AF93E483D49C0E9001420218160C0
:103FA00041F63F71C1604FF4807101610121C0E9A8
:103FB0000514FEF728FF08B1FCF7B1FA4FF480555D
:103FC00017A933481795FEF7ABFF08B1FCF7A7FA1E
:103FD0002F48FFF702FA08B1FCF7A1FA7026CDE9E5
:103FE000146414A92A481694FEF72EFE08B1FCF7B3
:103FF00096FA6020CDE90004029403940494059499
:104000000022694622480694FFF755F908B1FCF7EB
:1040100086FA042269461E48FFF74DF908B1FCF7FD
:104020007EFA082269461A48FFF745F908B1FCF7FD
:1040300076FA41F63E70CDE900600C2269461448DC
:10404000FFF739F908B1FCF76AFA1148FEF7F3FDFA
:10405000079478200894CDE909404FF40050CDE949
:104060000B500220CDE90D040006CDE90F4011945C
:10407000129407A906481394FEF786FD08B1FCF7D1
:104080004EFA0348FFF7CCF81CB070BD002C01407D
:10409000F8020020184810B5164901604FF461215C
:1040A0004160002181600C22C160C0E9041281617D
:1040B000C161016241628162FFF778FC08B1FCF7DF
:1040C0002EFA00210C48FFF7D8FA08B1FCF727FABE
:1040D00000210948FFF7ABFA08B1FCF720FA0648BF
:1040E000FFF784FA002803D0BDE81040FCF717BAA8
:1040F00010BD00000048004044030020FEE7FEE73A
:104100007047704730B5DFED5C1AB0EE611A9FED75
:104110005B2AB3EE083A60EE822A82EE832ADFED54
:10412000582A20EE223AF6EE002A23EE223A00EE3A
:10413000A23ADFED543A23EE233A9FED534A20EEA4
:10414000044A24EE224A00EEA24A24EE234ADFED7E
:104150004E3AF6EE004A60EE233A63EEA43A40EEA1
:10416000A43A9FED485A63EEC53ADFED455A072859
:1041700020EE250A20EE240A00EEA40A20EE450ACD
:1041800022D2DFE800F02104090E13181D00F0EE22
:10419000631AB0EE421A17E0F0EE441AB0EE431A7A
:1041A00012E0F0EE421AB0EE401A0DE0F1EE421AC3
:1041B000B0EE441A08E0F0EE401AB0EE631A03E0E5
:1041C000F0EE431AB1EE421A304D31EE810ADFEDC6
:1041D000300A10EE104AAC4207DD81EE802A62EE12
:1041E000201A81EE002A22EE201A30EEE10A07287A
:1041F00030EE410A20EE220ABDEEC00AF8EEC00AF7
:1042000070EEA10AFDEEE00AF8EEE01A31EE811A36
:10421000BDEEC11A28D2DFE800F027040910151AF4
:10422000210010EE103A10EE902A03E010EE903AC2
:1042300010EE102A11EE101A16E011EE103A10EEE0
:10424000102A0FE011EE103A10EE902A03E010EE63
:10425000903A11EE102A10EE101A05E010EE103A06
:1042600011EE102A10EE901A0A480360001D026039
:10427000001D016030BD000000000000A081584614
:10428000D7B3DD3F6B561044D7B3DDBF0000FA450E
:104290000000FA45342C0140F6EE000ADFED341A36
:1042A000B0EE601A10EE100A00EE211A50EE210A4C
:1042B0002E4A60EE211A9FED2F2A2F49BDEEC11A1A
:1042C000FDEEE00A904212DAF5EEC01AF1EE10FAB5
:1042D00002DB11EE100A01E010EE900A51F8200006
:1042E00000EE100AB8EEC00A20EE020A704710EE87
:1042F000100A224A90420CDAF5EEC01AF1EE10FADA
:1043000002DB11EE100A01E010EE900AC0F5C77052
:10431000E4E710EE100A1A4A9FED1A0A904210DAEA
:10432000F5EEC01AF1EE10FA02DB11EE100A01E010
:1043300010EE900A01EB8000A0F58050D0F8C8097B
:104340000DE0F5EEC01AF1EE10FA02DB11EE100AE4
:1043500001E010EE900AC0F5477051F8200000EE21
:10436000900AF8EEE00A20EE800A7047DB0FC93FA2
:10437000E65FFD4217B7D13804510008DB0F494012
:10438000E4CB964017B7D1B8FDF780BD10B594B017
:1043900038216846FBF788FF14210EA8FBF784FF3D
:1043A0000020FDF7DFFE01200090000401900220B4
:1043B0000324CDE907042821CDE90A100C900D90C3
:1043C00009946846FEF7C2F908B172B6FEE70F20FD
:1043D000CDE90E04002010901190129004210EA837
:1043E000FEF76AF8002801D072B6FEE714B010BDDF
:1043F0000248016841F470010160704788ED00E0F7
:104400000148FEF70EBE0000F80200200148FEF74A
:1044100008BE0000F80200202DE9F0430268234B9B
:10442000234D244E244C4FF08049984207D04845F4
:1044300005D0A84203D0B04201D0A04203D122F05F
:1044400070074A683A431D4FDFF874C0DFF8748084
:1044500098420DD048450BD0A84209D0B04207D0B1
:10446000A04205D0B84203D0604501D0404503D1F9
:1044700022F44075CA682A434D6922F080022A431B
:1044800002608A68C2620A688262984207D0A042CB
:1044900005D0B84203D0604501D0404501D109693B
:1044A000016301214161BDE8F0830000002C01405F
:1044B000000400400008004000340140004001407A
:1044C000004401400048014010B501F01F030121E4
:1044D000046A99408C430462016A9A401143016264
:1044E00010BD10B501F01F030421046A99408C43EC
:1044F0000462016A9A401143016210BD10B58468DC
:1045000042EA032224F47F440A432243826010BD1E
:104510008268034B1A400A4342F0070181607047EA
:104520008FFFCFFF2DE9F043026A22F00102026201
:10453000056A436882691C4C25F0020522400C681C
:1045400022F0030214438A68194E2A43174D194F6B
:10455000DFF864C0DFF86490A84207D0B04205D00D
:10456000B84203D0604501D0484506D122F0080882
:10457000CA6842EA080222F00402A84207D0B04208
:1045800005D0B84203D0604501D0484505D14D69FA
:1045900023F440731D438B692B4343608461496856
:1045A00041630262BDE8F0838FFFFEFF002C0140F3
:1045B00000340140004001400044014000480140F7
:1045C000F0B5026A22F010020262056A426883694D
:1045D000194C1B4E23400C6823F4407343EA042417
:1045E00025F020038D6843EA0513144DA84201D03D
:1045F000B04206D1CF6823F0800343EA071323F0CB
:104600004003A8420AD0B04208D00E4DA84205D0BF
:104610000D4DA84202D00D4DA84207D14D6922F49C
:10462000406242EA85028D6942EA85024260846105
:10463000496881630362F0BDFF8FFFFE002C0140DB
:104640000034014000400140004401400048014066
:10465000F0B5026A22F480720262056A4368C26998
:10466000194C1B4E22400C6822F00302144325F41F
:1046700000728D6842EA0522144DA84201D0B04272
:1046800006D1CF6822F4006242EA072222F4806257
:10469000A8420AD0B04208D00E4DA84205D00E4D17
:1046A000A84202D00D4DA84207D14D6923F44053D2
:1046B00043EA05138D6943EA05134360C461496801
:1046C000C1630262F0BD00008FFFFEFF002C0140BD
:1046D00000340140004001400044014000480140D6
:1046E000F0B5026A22F480520262056A4268C36928
:1046F000194C1B4E23400C6823F4407343EA0424F6
:1047000025F400538D6843EA0533144DA84201D0C7
:10471000B04206D1CF6823F4004343EA073323F4C1
:104720008043A8420AD0B04208D00E4DA84205D01E
:104730000D4DA84202D00D4DA84207D14D6922F47B
:10474000404242EA85128D6942EA85124260C461A4
:10475000496801640362F0BDFF8FFFFE002C014039
:104760000034014000400140004401400048014045
:1047700030B5026A22F480320262046A4268036D34
:10478000114D2B400D681D4324F400330C8943EA7E
:1047900004430E4CA0420BD00D4CA04208D00D4C4F
:1047A000A04205D00C4CA04202D00C4CA04204D137
:1047B0004C6922F4803242EA04224260056549686D
:1047C0008164036230BD00008FFFFEFF002C0140BA
:1047D00000340140004001400044014000480140D5
:1047E00030B5026A22F480120262046A4268036DE4
:1047F000114D24F400142B400D6843EA05230D8964
:1048000044EA05540D4DA8420BD00D4DA84208D0E6
:104810000C4DA84205D00C4DA84202D00B4DA84229
:1048200004D14D6922F4802242EA85224260036568
:104830004968C164046230BDFF8FFFFE002C014057
:104840000034014000400140004401400048014064
:1048500010B5036A046A24F001040462846924F038
:10486000F00444EA021423F00A020A43846102625B
:1048700010BD10B5036A23F0100303628369046A54
:1048800023F4704343EA023224F0A00343EA011107
:104890008261016210BD000030B5416EB9B102689D
:1048A00091689268C1F342610B4B520F9C5CE5002A
:1048B00003F10804A25CB5FBF2F2A0F86A205A5C8E
:1048C000615CD200B2FBF1F1A0F8681030BD0121AB
:1048D000A0F86A10F8E70000D250000890F82810FD
:1048E000C90706D001684A68C36A22F400321A4335
:1048F0004A6090F82810890706D501684A68036B5A
:1049000022F480321A434A6090F82810490706D5ED
:1049100001684A68436B22F480221A434A6090F887
:104920002810090706D501684A68836B22F4004203
:104930001A434A6090F82810C90606D501688A68AB
:10494000C36B22F480521A438A6090F828108906BB
:1049500006D501688A68036C22F400521A438A6003
:1049600090F82810490611D501684A68436C22F472
:1049700080121A434A60416CB1F5801F06D101686C
:104980004A68836C22F4C0021A434A6090F82810E7
:10499000090606D501684A68C06C22F40022024369
:1049A0004A607047F8B500260446C0F88C60FDF7F1
:1049B00067FA0546206800686FF07E47000708D553
:1049C0002B4600224FF400112046009700F0EEF92C
:1049D00060B92068006840070AD52B4600224FF4D2
:1049E00080012046009700F0E1F908B10320F8BDEE
:1049F0002020C4F88400C4F8880044F86C6F0020BC
:104A00002675F8BD10B5806A0021A0F85E10A0F8E8
:104A10005610FEF75AFE10BD70B5846AD4F88400B3
:104A2000D4F88850216889684FF00006090606D539
:104A3000212804D1A4F85660204600F065F82068CB
:104A40008068400606D5222D04D1A4F85E60204679
:104A500000F030F8D4F88C0040F01000C4F88C005E
:104A60002046FEF732FE70BD10B50146806A096827
:104A70000968890616D40021A0F85610016808318B
:104A800051E8002F22F0800241E80023002BF5D1ED
:104A9000026852E8001F41F0400142E80013002B79
:104AA000F6D110BDFFF76CF810BD10B5806AFFF7A6
:104AB00068F810BD10B5026852E8001F21F490712B
:104AC00042E80013002BF6D10E4B0268083252E880
:104AD000001F194042E80014002CF6D1C16E0129D4
:104AE00008D1016851E8002F22F0100241E80023AC
:104AF000002BF6D12021C0F888100021C166016783
:104B000010BD0000FEFFFFEF026852E8001F21F019
:104B1000C00142E80013002BF6D10168083151E8CA
:104B2000002F22F4000241E80023002BF5D12021C0
:104B3000C0F88410704700002DE9F0410446016878
:104B400080682269E3691043626900251A431043B3
:104B5000DFF82CC20A688B4B1A4002430A602068B7
:104B60004168E26821F44051114341602168A06925
:104B7000614501D0226A10438A68834B1A40024380
:104B80008A602068C16A626A21F00F011143C16224
:104B90007E4923687E488B420DD1D0F8880010F002
:104BA000030006D0012855D0022842D003283FD167
:104BB00052E001203DE077498B420BD1D0F88800CC
:104BC00010F00C0035D0042833D0082840D00C2831
:104BD0002ED141E070498B420BD1D0F8880010F003
:104BE000300026D0102835D0202831D030281FD1D1
:104BF00032E06A498B420BD1D0F8880010F0C00037
:104C000017D0402826D0802822D0C02810D123E0F9
:104C100063450DD1D0F8880010F4406009D0B0F59C
:104C2000806F17D0B0F5006F12D0B0F5406F13D081
:104C300010205B495B4F00264FF4004263453BD197
:104C400060B1022813D004280BD0082872D10DE0DF
:104C50000220EEE70420ECE70820EAE7FDF71AFD62
:104C600001E0FDF73BFD010001D17CE01146606AE7
:104C700037F810206768B1FBF2F007EB4703834277
:104C800070D8B0EB073F6DD8002308461946FBF7F4
:104C9000C1FA090241EA1061020278081018714154
:104CA0003A460023FBF7B6FA3F4AA0F5407191421D
:104CB00058D82168C86056E0E3694FF6EF78934210
:104CC0002CD109284ED2DFE800F00508114D0D4D1A
:104CD0004D4D1000FDF7DEFC01E0FDF7EDFC01009D
:104CE00004D140E0FDF7FAFCF9E71146606A37F8B5
:104CF0001000B1FBF0F04100606801EB5001B1FB26
:104D0000F0F0A0F1100141452CD84FF6F0710140B0
:104D1000C0F3420001432068C16024E0092821D289
:104D2000DFE800F0050912200E2020201100FDF719
:104D3000B1FC02E016E0FDF7BFFC010004D112E077
:104D4000FDF7CCFCF9E71146606A37F81000B1FBBB
:104D5000F0F1606801EB5001B1FBF0F0A0F110013F
:104D600041450AD901250120A4F86A0024F8680FFA
:104D70002846A660E660BDE8F08180B299E70000B1
:104D800000800040F369FFCFFFF4FF1100380140BD
:104D9000001002400044004000480040004C004029
:104DA0000024F400BA500008FFFC0F002DE9F04782
:104DB0009A4617460E4604464FF000094FF0200869
:104DC000089D4AE0681C48D0FDF75AF8A0EB0A009D
:104DD000A8422AD84DB32068016849073DD5C0696B
:104DE000C043000539D421684FF400600862206890
:104DF00050E8001F21F4D07140E80012002AF6D1DB
:104E00002068083050E8001F21F0010140E800123E
:104E1000002AF5D144F8848FC4F80480C4F80880CF
:104E200004F8049C0320BDE8F087216851E8000FD6
:104E300020F4D07041E80002002AF6D12068083042
:104E400050E8001F21F0010140E80012002AF5D1CE
:104E500044F8848FC4F80480E2E72068C06936EA29
:104E6000000004D00020B842ACD00020DBE70120D5
:104E7000F9E700000148FEF729BC000044030020C8
:104E8000FEE70907090E002804DB00F1E02080F8A6
:104E90000014704700F00F0000F1E02080F8141DAE
:104EA000704702E008C8121F08C1002AFAD17047F3
:104EB0007047002001E001C1121F002AFBD170479A
:104EC00070EE811AB6EE002A01EEC20ADFED071A73
:104ED00020EE210A80ED000A30EEC10ADFED040A5F
:104EE00020EE200A81ED000A70470000ABAA2A3F9D
:104EF0003ACD133F9FED191A9FED192A164860EE1F
:104F0000011A20EE020AB6EE001AC0ED000A40EEC9
:104F1000C11A00EEC10AF5EEC00AC0ED011A80ED1B
:104F2000020A0020F1EE10FA00DD0120F5EEC01AB1
:104F3000F1EE10FA00DD801CB5EEC00AF1EE10FAB9
:104F400000DD001D00EE100A0649B8EE400A81EDB2
:104F5000040A0549085C70474C000020D7B35D3F48
:104F6000D7B35DBF58010020FA500008FCF796FF48
:104F7000FFF70CFAFEF752FFFEF732FFFFF78AF851
:104F8000FEF754FEFEF7CCFEFEF7A4FFFEF7BCFFD3
:104F9000FEF7D4FFFEF7ECFF2448FDF7CDF82448D8
:104FA000FDF7CAF82348FDF7C7F87F212248FBF731
:104FB000B9FA7F212148FBF7B5FA1F482021026882
:104FC00011600068042202601C48006801601A48F1
:104FD000FBF79EFE1948FBF727FE194941F63F7083
:104FE00008601749401E143108601648FDF762FF3B
:104FF0000C211448FEF724FA00211248FEF720FA8B
:1050000004211048FEF71CFA08210E48FEF718FA92
:1050100000210C48FDF766FE04210A48FDF762FEF8
:1050200008210848FDF75EFEFEE70000440200206C
:1050300080020020BC0200206C010020D80100206A
:105040002C2C0140F80200201CB501A9684600F094
:105050000AF89DEC020AFFF74DFF9DEC020AFFF7EC
:1050600051F81CBD704770B50C462DED048BF0EE69
:10507000419AF0EE408A0546B0EE608AB0EE690AC9
:10508000FBF7D0F920EE289AB0EE690AFFF704F991
:1050900008EE409AB0EE690A85ED009AFFF7FCF839
:1050A00060EE288AB0EE690AFBF7BCF948EE008A88
:1050B000C4ED008ABDEC048B70BD01000200040049
:1050C000060008000A000C001000200040008000CC
:1050D00000010101010307010000080402040801A6
:1050E00001010000000000000000010203040607A7
:1050F0000809000000000102030400020601040385
:1051000005000000000000004F0000009E000000AD
:10511000ED0000003C0100008B010000D9010000FF
:105120002802000077020000C602000015030000FC
:1051300063030000B2030000000400004F040000FD
:105140009D040000EC0400003A0500008805000002
:10515000D60500002406000072060000C00600000C
:105160000E0700005B070000A9070000F60700001B
:105170004308000090080000DD0800002A09000034
:1051800077090000C30900000F0A00005C0A000054
:10519000A80A0000F40A00003F0B00008B0B00007F
:1051A000D60B0000210C00006C0C0000B70C0000B6
:1051B000010D00004C0D0000960D0000E00D0000F8
:1051C000290E0000730E0000BC0E0000050F000049
:1051D0004E0F0000960F0000DF0F000027100000A8
:1051E0006E100000B6100000FD1000004411000019
:1051F0008B110000D1110000171200005D12000099
:10520000A2120000E81200002D130000711300002C
:10521000B6130000F91300003D14000081140000D3
:10522000C414000006150000491500008B1500008D
:10523000CC1500000E1600004F1600008F1600005F
:10524000CF1600000F1700004F1700008E17000048
:10525000CD1700000B180000491800008718000047
:10526000C4180000011900003D1900007919000060
:10527000B5190000F01900002B1A0000661A000092
:105280009F1A0000D91A0000121B00004B1B0000DF
:10529000831B0000BB1B0000F21B0000291C000048
:1052A000601C0000961C0000CB1C0000001D0000CC
:1052B000351D0000691D00009D1D0000D01D00006F
:1052C000031E0000351E0000671E0000981E00002F
:1052D000C91E0000FA1E0000291F0000591F00000F
:1052E000881F0000B61F0000E41F0000112000000E
:1052F0003E2000006A20000096200000C12000002F
:10530000EC2000001621000040210000692100006F
:1053100092210000BA210000E121000008220000D3
:105320002F220000552200007A2200009F22000058
:10533000C3220000E72200000A2300002D23000002
:105340004F2300007023000091230000B2230000CF
:10535000D1230000F12300000F2400002D240000C1
:105360004B2400006824000084240000A0240000D6
:10537000BB240000D5240000EF2400000925000014
:10538000222500003A250000522500006925000072
:105390007F25000095250000AA250000BF250000FC
:1053A000D3250000E6250000F92500000B260000AB
:1053B0001D2600002E2600003E2600004E2600007E
:1053C0005D2600006C2600007A260000872600007B
:1053D00094260000A0260000AB260000B6260000A0
:1053E000C0260000CA260000D3260000DB260000ED
:1053F000E3260000EA260000F1260000F726000060
:10540000FC260000012700000527000008270000F7
:105410000B2700000D2700000F27000010270000B9
:10542000102700004454000800000020580000002D
:10543000A24E00089C54000858000020E00700001D
:10544000B24E000800000000000000000000000054
:10545000000000000000000000000000000000004C
:10546000000000000000000000000000000000003C
:1054700000000000000000000000807F000000002D
:105480001000000001000000000000000024F400F3
:0C54900000000000000000000000000010
:04000005080001D915
:00000001FF
