:020000040800F2
:10000000E02000205D0300086D3E0008293D000847
:10001000693E0008B92100080D4E000800000000EC
:100020000000000000000000000000009D02000829
:10003000BD21000800000000F9020008F13E0008A0
:1000400077030008770300087703000877030008A8
:100050007703000877030008770300087703000898
:100060007703000877030008770300087703000888
:100070007703000877030008770300087703000878
:1000800077030008000000007703000877030008EA
:100090007703000877030008770300087703000858
:1000A0007703000877030008770300087703000848
:1000B0007703000877030008770300087703000838
:1000C0007703000877030008770300087703000828
:1000D000770300087703000877030008FD4D000848
:1000E0007703000877030008770300087703000808
:1000F000770300087703000877030008000000007A
:1001000000000000770300080000000077030008EB
:100110007703000800000000770300087703000859
:1001200077030008770300087703000877030008C7
:1001300077030008000000000000000077030008BB
:1001400077030008770300080000000000000000AB
:10015000000000000000000000000000000000009F
:10016000000000000000000000000000770300080D
:1001700077030008000000000000000000000000FD
:1001800000000000770300080000000000000000ED
:10019000000000000000000000000000000000005F
:1001A000000000000000000077030008770300084B
:1001B00077030008770300087703000800000000B9
:1001C00000000000770300080000000000000000AD
:1001D000770300087703000800F002F800F04FF8FA
:1001E0000AA090E8000C82448344AAF10107DA4592
:1001F00001D100F044F8AFF2090EBAE80F0013F095
:10020000010F18BFFB1A43F00103184740790000A3
:1002100060790000103A24BF78C878C1FAD8520734
:1002200024BF30C830C144BF04680C607047000070
:100230000023002400250026103A28BF78C1FBD8EF
:10024000520728BF30C148BF0B607047662907F0CE
:100250006383002070471FB507F051FB00F006FDD7
:1002600004000020002107F0D1F8401C606000204D
:10027000002107F0B5F8E0601FBD10B510BD00F01B
:1002800021FE1146FFF7E7FF05F014F801F0C4F86E
:1002900003B4FFF7F2FF03BC01F008F92C4B196817
:1002A0000868B0E8F04F80F30988BFF36F8F4FF014
:1002B000000080F3118870470000000008480068C3
:1002C000006880F308884FF0000080F3148862B65D
:1002D00061B6BFF34F8FBFF36F8F00DF00BF00BF6A
:1002E00008ED00E0DFF80C00016841F470010160E6
:1002F000704700BF88ED00E0EFF30980BFF36F8F18
:10030000134B1A681EF0100F08BF20ED108A20E969
:10031000F04F106009B44FF0500080F31188BFF324
:100320004F8FBFF36F8F06F057F94FF0000080F347
:10033000118809BC19680868B0E8F04F1EF0100F6A
:1003400008BFB0EC108A80F30988BFF36F8F704745
:1003500014000020EFF30580704700000948804733
:1003600009480047FEE7FEE7FEE7FEE7FEE7FEE797
:10037000FEE7FEE7FEE7FEE704480549054A064BAF
:1003800070470000713F0008D9010008E01A002002
:10039000E0200020E01C0020E01C002053EA020CBA
:1003A00000F069802DE9F04B4FF00006002B1FBFD5
:1003B000B3FA83F503FA05F424FA05F65E4012BF9A
:1003C0001643B2FA82F502FA05F4C5F120051EBF04
:1003D00022FA05FC44EA0C04203556EA044C4FEAA4
:1003E000144418BF641C4FF000084FF000099042FD
:1003F00071EB030C39D3002919BFB1FA81F701FA67
:1004000007F6B0FA80F700FA07F6C7F120071EBF1B
:1004100020FA07FC46EA0C062037B6FBF4FCA7EBF3
:100420000507103F07F01F0BCBF120060CFA0BFB62
:100430002CFA06F644BFB3460026202FA4BF5E4622
:100440004FF0000B5BEA060C08BF4FF0010B19EBF5
:100450000B09ABFB027C48EB0608C01B06FB02CC79
:100460000BFB03CC71EB0C01C1E70B460246414686
:100470004846BDE8F08B13B54FF000004FF0000187
:10048000AFF30080BDE81C40704700000FB41CB5FE
:10049000074B06AA7B4469460090059800F07BFB59
:1004A0000020694600F08AFB1CBC5DF814FB0000CC
:1004B000250700002DE9F0474FF0000A8946044661
:1004C000C0F820A02046E1688847002876D025287B
:1004D00006D0D4E901219047206A401C2062F1E750
:1004E000E168204600258847C4F81CA0064600277E
:1004F000C4F818A02A2E09D0304604F02CFE38B3D8
:1005000004EB8708303EC8F8186019E059F8041B5E
:10051000204604EB87029161E1688847012F064677
:1005200018D1E069002820DA25F020051DE0D8F870
:10053000180000EB800006EB40003038C8F81800C7
:100540002046E1688847064604F005FE0028EED103
:10055000012F0AD02E2E08D12046E16888477F1C43
:100560000646022F45F02005C4DBA069002803DA07
:10057000404245F00105A061E80701D025F01005D3
:10058000B6B1A6F14100192802D8203645F400651D
:100590004A463146204625604D46FFF757FE58B182
:1005A000012806D0ED1D25F0070000F1080989E7B4
:1005B00004E005F1040985E730468AE7206ABDE8D2
:1005C000F087032A40F2308010F0030C00F0158011
:1005D00011F8013BBCF1020F624498BF11F801CB46
:1005E00000F8013B38BF11F8013BA2F1040298BFAB
:1005F00000F801CB38BF00F8013B11F0030300F015
:100600002580083AC0F0088051F8043B083A51F8B8
:1006100004CBA0E80810F5E7121D5CBF51F8043BBD
:1006200040F8043BAFF30080D20724BF11F8013B30
:1006300011F801CB48BF11F8012B24BF00F8013B92
:1006400000F801CB48BF00F8012B704710B5203AE5
:10065000C0F00B80B1E81850203AA0E81850B1E87B
:100660001850A0E81850BFF4F5AF5FEA027C24BF31
:10067000B1E81850A0E8185044BF18C918C0BDE828
:1006800010405FEA827C24BF51F8043B40F8043BF1
:1006900008BF7047D20728BF31F8023B48BF11F8A6
:1006A000012B28BF20F8023B48BF00F8012B704700
:1006B00002F0FF0343EA032242EA024200F002B8DA
:1006C0004FF000020429C0F0128010F0030C00F07B
:1006D0001B80CCF1040CBCF1020F18BF00F8012BF9
:1006E000A8BF20F8022BA1EB0C0100F00DB85FEAC7
:1006F000C17C24BF00F8012B00F8012B48BF00F893
:10070000012B70474FF0000200B513469446964601
:10071000203922BFA0E80C50A0E80C50B1F1200114
:10072000BFF4F7AF090728BFA0E80C5048BF0CC0C2
:100730005DF804EB890028BF40F8042B08BF704720
:1007400048BF20F8022B11F0804F18BF00F8012B92
:10075000704770477047704710B500F08BFA00681B
:1007600010BD10B5044600F085FA046010BD704756
:100770002DE9FF4F0C461E464FF0FF378BB0D2E9F4
:100780000001DDF860800A908A46C1F30A5505B978
:100790003D46002108464FF00000BAF1000F00F47A
:1007A000400005DA00EB80004FF4400101EA500000
:1007B0004FEA9059B9F1010F00DDB9460A9850EAA5
:1007C0004A000ED044F61050A5F2FF3545432F14D1
:1007D000B8F1000F1ED07542291E1EDDC9F10002BE
:1007E0001CE0B8F1010F4FF0000001D0302103E010
:1007F000F24305E02154401CB042FBDB30460022AE
:10080000002121540B99C1F80880C1E900200FB0E4
:10081000BDE8F08FBD1B6D1CDEE74A4600DA694279
:1008200006A800F0D9FA06AB93E8070003AB83E80B
:10083000070050460A9901F08BF88DE80700A0F5F3
:1008400000501F3800900398002D0ADD42F21F016E
:100850004A460844002303A90390684601F036FB8A
:1008600009E0A0F500504A461F38002303A9039071
:10087000684601F055FB8DE807000004000C03D02A
:100880004FF0FF30410800E01046B8F1000F03D0F0
:100890000022009215461EE0751E05D400F0EEF908
:1008A000303262556D1EF9D5B3460122084302D09D
:1008B00000227F1C04E02078302801D100227F1E16
:1008C000002A099784D01DE0112D07DA00F0D6F92F
:1008D000303262556D1C50EA0102F5D1084302D056
:1008E0000098C8B10EE00021681E05E0235C625C40
:1008F00063542254401E491C8142F7DBAB46A81BBF
:10090000401E0990002004F80B000B98099AC0F8CB
:100910000880C0E9002B7AE711264FF0000857E75E
:100920002DE9F04F88460446D21D22F0070191B010
:10093000D1E90001CDE90A0104F0A0FA02460B98C2
:10094000C00F01D02D2007E02068810701D52B20A2
:1009500002E0202101EAC000032A099001D0072A01
:1009600005DB03464146204600F0D6F90BE120782E
:10097000800601D5E06900E00620B8F1650F8146E8
:1009800006D0B8F1660F18D0B8F1670F70D131E01A
:100990000020B9F1110F009001DB112301E009F1F2
:1009A00001030AAA01A90CA8FFF7E2FEDDE90C7019
:1009B000002609F10105834647E001204B460090DF
:1009C0004FF000470AAA01A90CA8FFF7D1FEDDE904
:1009D0000DB00C995D46002610B909F101000D1803
:1009E000B9EB050003D4C0F1FF3609F10105A5EB11
:1009F00009002BE0B9F1010F01DA4FF001090020E5
:100A0000B9F1110F0090484601DD112300E00346C3
:100A10000AAA01A90CA8FFF7ABFEDDE90C704D4650
:100A200000268346207800070AD4AB4500DA5D46ED
:100A300001A8012D04DD411911F8011C302907D04E
:100A40004F4502DA17F1040F04DA012082460FE065
:100A50006D1EEEE7002F02DCED1B3E4403E0781C28
:100A6000A84200DD7D1CB81B00F1010A4FF00047D1
:100A70002078000703D4AA4501DB4FF0FF3A00219C
:100A8000B7F1004F0DF143088DF8431024D0022038
:100A90002B23002F01DA7F422D230A21021EA0F111
:100AA000010000DC5FB197FBF1FC97FBF1F201FB69
:100AB0001C7C17460CF1300C08F801CDEEE7A8F1CC
:100AC000010003702188090501D5452100E0652159
:100AD000A0F1010800F8011C09980FA9A1EB080773
:100AE000FF1D00B10120411901EBEA70A1693844F2
:100AF000081A401EA0612078C00602D42046AFF339
:100B00000080099828B1D4E901219047206A401C4F
:100B100020622078C00622D52046AFF300801EE078
:100B2000002E04DBB34502DD01A8805D00E030202B
:100B3000D4E901219047206A401C2062761CAAF16A
:100B400001005FEA000A0AD100F090F8C06801686D
:100B5000405CD4E901219047206A401C2062281E95
:100B6000A5F10105DCDC07E0D4E9012118F8010B4F
:100B70009047206A401C2062381EA7F10107F3DC71
:100B80002046AFF30080032011B041E601694A1C02
:100B900002610878704700B58FB0CDE901310021BE
:100BA000059105497944CDE9031011466846FFF7E0
:100BB00081FC0FB000BD0000E5FFFFFF0A6802F8EE
:100BC000010B0A60704700000FB4002300B589B024
:100BD0000CA900910B99CB60214B7B440693214BD0
:100BE0007B44079304236FF00042CDE901321E4A93
:100BF0007A446B4608920246002006F0EFFE09B0E8
:100C00005DF814FB70B506464FF0FF3015460C46F4
:100C1000324686B00091CDE901016946002004907A
:100C200004A8FFF7D1FF02460498211825B108B1A6
:100C3000084600E020462860049800280DD0002ACD
:100C400002DD0098884208D03246081B69460094AD
:100C5000CDE9010404A8FFF7B7FF06B070BD00009E
:100C6000BB010000D30100001301000000487047E1
:100C7000A01A002000487047801A002030B5B0F15B
:100C80000A024FEA900E71F100034EEA817EB0EB4A
:100C90000E0061EB91014FEA101E4EEA017E10EB4F
:100CA0000E0041EB11114FEA102E4EEA016E10EBCF
:100CB0000E0041EB11214FEA104E4EEA014E10EBAF
:100CC0000E0041EB1141401841F100014FEAD00004
:100CD00040EA41704FEAD10110EB80054FEA8104F0
:100CE00044EA907444EB01046D1944EB0404521B74
:100CF000A3414FF0000348BF0A3200D530BD401C6D
:100D000041F1000130BD10B5044600F001F9006862
:100D1000005D00F0010010BD2DE9F0411F460446C2
:100D200003260168072A01F4006004DB08B116A558
:100D300005E016A503E008B115A500E015A521F012
:100D400010002060A069C01EA0610FB1401EA0610C
:100D50002046AFF300804FB1D4E9012138469047D7
:100D6000206A401C2062C01C206206E0206AFAE76C
:100D7000D4E9012115F8010B9047761EF8D22046E0
:100D8000AFF30080BDE8F0814E414E006E616E0011
:100D9000494E4600696E6600426842B1016811F82A
:100DA000013B23B1521EC0E90012184670470121D1
:100DB000C160881E704742685AB1C368016843B970
:100DC00083688B4205D0491E521CC0E900120020E6
:100DD00070474FF0FF3070472DE9F04781461646C7
:100DE0008AB0354878440DC88DE80D003248784403
:100DF000801C03AC0DC884E80D0041F69B3008440C
:100E0000372190FBF1F290FBF1F5A5F1800501FB94
:100E100012041B3C02D56442012000E00020DFF8F0
:100E200098A080460027FA44AAF1BE0A0EE0E00727
:100E30000AD03246684607EB470101230AEB8101DD
:100E400001F06EF88DE8070064107F1C002CEED1D5
:100E5000194F7F44AE3F19E0E80715D007EB0410A7
:100E60000DF1180A90E80E008AE80E00C068F04202
:100E700001D1981908903246012306A903A801F070
:100E80004FF803AB83E807006D10641C002DE3D11D
:100E90004FF0010332466946B8F1000F03A802D0B3
:100EA00001F014F801E001F03BF8C9E90001C9F8CC
:100EB00008200AB0BDE8F087346D00000048704794
:100EC000801A00207546FFF7F9FFAE460500694617
:100ED000534620F00700854618B020B5FFF74CFABE
:100EE000BDE820404FF000064FF000074FF000082B
:100EF0004FF0000B21F00701AC46ACE8C009ACE8AC
:100F0000C009ACE8C009ACE8C0098D4670470000D4
:100F100010B5FFF7ABFE001D10BD00BFF16400006F
:100F20002DE9FF4F06468BB00878FF2806D0491CF4
:100F30002D2805D000244FF0000908E000200CE027
:100F40000124F8E709EB8903491C00EB4309087801
:100F5000FF28F7D114B1C9F10000814610780025AF
:100F60002C46AA4629462D2801D02B2804D1521CF4
:100F70002D2813D0002082468B461078FF280FD0F2
:100F80004FF0000C0A21521CA5FB017804FB0181E3
:100F900005FB0C11C5194BEB0104EEE70120EAE754
:100FA000002108464FF00000BAF1000F02D000EB1C
:100FB00080004008C0F38157012F01DD4FF0FF375B
:100FC0000E9955EA040009EB01080BD04FF0020915
:100FD00018F5FA7F16DA4FEACA70002F706008DD44
:100FE000012007E04FEACA70C6E900B00FB0BDE8C3
:100FF000F08F00203060FFF73DFEC0F80090182110
:10100000084616E0B8F5FA7F18DD002F02DAF74837
:10101000784401E0F6487844D0E90010C6E90010B1
:1010200040EACA707060FFF725FEC0F800901421F6
:1010300008460FB0BDE8F04F06F06BBC0021084633
:101040004FF00000B8F10001099002DAC7F1000288
:1010500000E03A4601DAC8F1000106A8FFF7BCFE3D
:1010600006AB93E8070003AB83E8070044F23E00B9
:101070005BEA04010090584604D144F21E012C465C
:101080005D460091210C0904014306D10099240416
:1010900044EA15442D041039009104F07F410143C6
:1010A00006D10099240244EA15642D020839009102
:1010B00004F07041014306D10099240144EA1574FB
:1010C0002D01091F009104F04041014306D1009910
:1010D000A40044EA9574AD00891E009104F000411B
:1010E000084304D100986D196441401E00904FF0F0
:1010F00001033A466846B8F1000FCDE9014503A95E
:1011000002DD00F022FF01E000F0F5FEBAF1000F71
:1011100004460D4601D084F00044002108464FF0FB
:101120000000099940F2FF77484010F00C0F07D1FA
:1011300024F00040284303D0C4F30A50B84212D12F
:10114000FFF798FDC0F80090C4F30A50B8420AD1E6
:10115000A8487844D0E90010C6E9001004F0004126
:101160000843706042E7C6E900543FE72DE9FF4FAE
:101170001F464FF0000A4FF0FF38454691B0D7E9BF
:101180000146CDF83CA0FFF771FDC0680168405CE6
:101190001090B96912986D1C8847396A8146884752
:1011A0000028F6D1B9F1FF3F0AD0002E24F4D06414
:1011B00011DDB9F12B0F08D0B9F12D0F0BD102E0E1
:1011C000404615B013E744F48064B96912986D1C69
:1011D0008847761E8146600504A901D52D2000E0D0
:1011E0002B20002E01F1010B0DF130088DF81000BD
:1011F0003FDDB9F1690F08D0B9F1490F05D0B9F158
:101200006E0F02D0B9F14E0F1CD13B4601A80095DC
:1012100080E85002DDE912126FF0020006F0E2FBF6
:10122000C11CCED10EE0B96912986D1C8847814669
:101230001398761E44F4007405600F98401C002E2D
:101240000F9016DDB9F1300FEDD0B9F1780F02D063
:10125000B9F1580F0DD10F9801280AD13B46CDE9BD
:101260000054DDE91212001F029606F0B9FBC11C02
:10127000A7D1109989453ED144F0800406E0139926
:10128000681CAAF1010A44F400740860B9696D1C75
:101290001298761E884730288146F0D02BE01099AE
:1012A000894505D1200603D4761E44F0800418E059
:1012B000484603F050FF08B3761E0DF123018B451D
:1012C00044F4007408D2A9F130000BF8010B200699
:1012D00007D5AAF1010003E0200602D40AF10100BB
:1012E0008246A00502D51399681C0860B969129856
:1012F0006D1C88478146002ED1DC53E0002E51DD65
:10130000B9F1650F02D0B9F1450F4BD1A00549D510
:10131000B9696D1C1298761E24F440748847002E1B
:1013200081460CDD2B2804D0B9F12D0F07D144F4F0
:101330008074B96912986D1C8847761E8146E00555
:1013400001D52D2100E02B2108F8011BCDF80080EC
:1013500021E0761E0DF13901884544F400740CD269
:10136000A9F1300010F0FF0088F8000002D10099C8
:10137000884509D908F1010806E0E00501D51E48B5
:1013800001E042F20F708246B96912986D1C8847DD
:10139000814613980560002E04DD484603F0DBFE0D
:1013A0000028D6D1F96912988847FF2053468BF858
:1013B000000088F8000000200A900B9004AA0CA9F5
:1013C0000AA8FFF7ADFDA00502D46FF00100F8E612
:1013D00014F0240F12D0E0071CD13868DDE90A129E
:1013E000031D3B600068C0E9001213E0606B000061
:1013F000526B0000166A0000F1D8FFFF0AA9684688
:1014000003F096FEE00705D13868009A011D3960A7
:10141000006802602846D4E610B50446AFF30080A9
:101420002046BDE81040FEF733BF00004FF0013CFE
:1014300050F8042B51F8043B9A4221D1A2EB0C0343
:10144000934313EACC1317D150F8042B51F8043B03
:101450009A4215D1A2EB0C03934313EACC130BD1A0
:1014600050F8042B51F8043B9A4209D1A2EB0C032B
:10147000934313EACC13DBD04FF00000704700BF5A
:10148000D01A01BAB1FA81F101F0180122FA01F083
:10149000CB40C1F12001DBB2C0B2C01A2CFA01F37B
:1014A000D11A914311EAC311E6D1704701491820BE
:1014B000ABBEFEE7260002002DE9FF4F1F464FF0AE
:1014C0003C0987B04FF00042DDE9141001F101083A
:1014D000DDF858A002EA40500390002005908346B2
:1014E000054604460490B969461E08988847AAF143
:1014F000010A0290BAF1000F3BDD02982E2815D0A8
:10150000102100F017FA00282EDB4FF0010B05998F
:10151000014317D0B9F1000F0BDB4A46C11700F0A9
:10152000F6F905430C43A9F1040905E001200490F4
:101530000BE008B145F0010501200590049820B9A1
:10154000361D02E0049800B1361FB969089808F109
:1015500001088847BBF1000FAAF1010A0290C9D027
:101560000999C1F80080C5E70298702808D0502872
:1015700006D0F96908988847BBF1000F14D04FE0F6
:10158000002002900120BBF1000F049009D0B9693E
:10159000089808F101088847AAF10109B9F1000F7C
:1015A00007DCF969089888476FF001000BB0BDE8C7
:1015B000F08F2B2804D02D280CD14FF0FF30049051
:1015C000B969089808F101088847A9F10109B9F13A
:1015D000000FE6DD411CE4D00A2100F0ABF9002841
:1015E000DFDB029908F1010801EB810100EB41000A
:1015F0000290B969089888470A2100F09BF9099A76
:10160000A9F10109B9F1000FC2F8008001DD00283D
:10161000E7DAF969089888470499029800FB01669F
:1016200055EA040004D004F04041090002D006E06D
:10163000039898E0A40044EA9574AD00B61E04F047
:101640000041080002D16D196441761E159810F012
:10165000240F03D04FF00B095C4803E04FF028093A
:101660006FF07D008246564507DAAAEB06018944F1
:10167000B9F1410F01DD4FF0410901200021A9F12D
:10168000010200F044F9024628400B46214008437D
:1016900001D0012100E00021501E029143F1FF31F1
:1016A00028402140084301D0012000E00020029999
:1016B000834651EA0B014FD0002108464FF000004D
:1016C000039900F4400039B100EB80004FF4400171
:1016D00000EBD07001EA60008015012802DD4FF0B8
:1016E000FF3000E013D0401C36D0029860B3BBF14D
:1016F000000F0CD14A460120002100F008F92840D3
:101700002140084301D0012000E00020E0B1012089
:101710004A46002100F0FBF8034640190A466141A1
:101720002D1A8C4111D3B9F1400F09DD159810F035
:10173000240F02D0AAF1340603E0AAF1170600E054
:10174000761C00254FF0004406E05B1E42F1FF329C
:1017500020EA030521EA0204CAF10100B04206DAD8
:101760001B49039808430190002000900EE0039A63
:10177000C4F3D321E80A0A43164940EA44500A4315
:101780003146CDE90002684603F0DBFC159810F005
:10179000240F0BD01598C00715D13868DDE9001269
:1017A000031D3B600068C0E900120CE002A8694616
:1017B00003F0BEFC1598C00705D13868029A011DD8
:1017C0003960006802604046F0E6000002FCFFFF5E
:1017D0000000F07F0000F03F2DE9FF4F92461D46CC
:1017E00085B04FF00041DDE9124BDDE914727F1E38
:1017F00001EA4B50414940F0FF4940EA010800210D
:1018000022F020004928049102D04E2828D04CE034
:101810003BA0012607C88DE80700A9690698641C4B
:1018200088477F1E014606D41DF8060018B121F036
:10183000200181420BD0E96906988847032E34D0F5
:10184000082E32D06FF0010009B0BDE8F08F761C91
:10185000032E01D0082EE0D1601CCAF80000DCE79E
:10186000A9690698641C88477F1E2AD420F02000AE
:10187000412826D1A9690698641C88477F1E20D478
:1018800020F020004E281CD1A9690698641C8847C6
:101890007F1E48F4002849F48009CAF8004001D4AA
:1018A000282806D0E969069888475FEACB7012D0ED
:1018B00022E0A9690698641C88477F1E01D400288D
:1018C00003DAE96906988847BCE72928F1D1641C46
:1018D000CAF80040E9E71BF0240F07D028680499F4
:1018E000031D2B600068C0E9001805E02868021D90
:1018F0002A600068C0F800902046A5E70000F07F4D
:10190000494E46494E495459000000007047B2F113
:1019100020030AD5C2F1200301FA02F120FA03F3F1
:1019200000FA02F041EA0301704700FA03F14FF0B8
:10193000000070473A2800D2303820F02002412AB7
:1019400001D3A2F13700884201D34FF0FF30704736
:101950005FEA400C08BF91F0000F4FEA8C234FEA7A
:10196000C12243EA51514FEA1C5018BF00F5F04024
:101970004FEA300018BF41F000415FEA6C5C00F0B4
:101980002980BCF1FF3F08BF40F080407047130C36
:1019900006BF12044FF0100C4FF0000C130E04BFE2
:1019A00012020CF1080C130F04BF12010CF1040C0D
:1019B000930F04BF92000CF1020CD30F04BF52002E
:1019C0000CF1010C11464FF00002A0F11F00A0EB3A
:1019D0000C00704711F0004F08BF704731F0004114
:1019E0003FF4D5AF0B0C06BF09044FF0100C4FF0BD
:1019F000000C0B0E04BF09020CF1080C0B0F04BF06
:101A000009010CF1040C8B0F04BF89000CF1020CCE
:101A1000CB0F04BF49000CF1010CCCF12003A0EB6B
:101A20000C0022FA03F302FA0CF241EA030100F17E
:101A30000100704720F07F4C80EA030023F07F47CD
:101A4000ACEB070303F57C5300F0004003F1FF0308
:101A50002DE980494FEA154B09B44FEA144325EAB2
:101A60000B4E24EA03480FF2042606EB132749081D
:101A70003E785FEA320203FB0667C7F5000707FB03
:101A800006F64FEA54374FEAD64606F1020607FB40
:101A9000066CCCF1005C4FEA1C472CEA074C07FBB4
:101AA00006F40CFB06F504EB15464FEA961634BF18
:101AB00000204FF000404FEAD13706FB07FC4FEA09
:101AC0001C4C0CFB0BF7D21B03FB0CF761EB070163
:101AD0000CFB0EF7B0EB074072EB17420CFB08F75C
:101AE00034BFA2EB0742B2EB074261EB17414FEA6A
:101AF0000C444FEA910706FB07FC4FEA1C4C0CFB19
:101B00000BF7B0EBC74072EB573203FB0CF734BF57
:101B1000A2EBC742B2EBC74261EB57310CFB0EF7A9
:101B2000B0EBC70072EB57720CFB08F734BFA2EBA7
:101B3000C702B2EBC70261EB5771039F4FEA8161A5
:101B400041EA921104EBCC044FEAD1374FEA8262AA
:101B500006FB07FC42EA90124FEA80604FEA1C4CF9
:101B60000CFB0BF7D21B03FB0CF761EB07010CFB23
:101B70000EF7B0EB074072EB17420CFB08F734BFCF
:101B8000A2EB0742B2EB074261EB17414FEA8C55DB
:101B90004FEA910704EB9C2406FB07FC4FEA1C4C20
:101BA0000CFB0BF7B0EBC74072EB573203FB0CF7A3
:101BB00034BFA2EBC742B2EBC74261EB57310CFB1B
:101BC0000EF7B0EBC70072EB57720CFB08F734BF8F
:101BD000A2EBC702B2EBC70261EB577115EB4C25C4
:101BE0004FEA816141EA92114FEA82624FEAD137AE
:101BF00042EA901206FB07FC44F100044FEA8060C1
:101C00004FEA1C4C0CFB0BF7D21B03FB0CF761EBF0
:101C100007010CFB0EF7B0EB074072EB17420CFB11
:101C200008F734BFA2EB0742B2EB074261EB174162
:101C300015EB1C154FEA813141EA92414FEA82329D
:101C400042EA90424FEA80304FEA0C7644F10004B9
:101C500048EA03434EEA0B484FF0000EB2EB080C83
:101C600071EB030724BF624639464EEB0E0E4FF070
:101C7000000B0018524149414BEB0B0BB2EB080C27
:101C800071EB03077BF1000B24BF624639464EEB34
:101C90000E0E4FF0000B0018524149414BEB0B0B5D
:101CA000B2EB080C71EB03077BF1000B24BF62461B
:101CB00039464EEB0E0E51EA020718BF46F00106F8
:101CC00016EB0E7655F1000254F1000103D5BDE884
:101CD0008901BDE80088BDE88901BDE80048B61962
:101CE000524141EB0101A3F10103704780807F7EE7
:101CF0007D7C7B7A79787776767574737271717082
:101D00006F6E6E6D6C6C6B6A6A6968686766666533
:101D10006464636362616160605F5F5E5E5D5D5CC1
:101D20005C5B5B5A5A595958585757565655555532
:101D30005454535352525251515050504F4F4F4E92
:101D40004E4D4D4D4C4C4C4B4B4B4A4A4A494949E0
:101D50004848484747474746464645454544444422
:101D600044434343434242424241414146EA0646DC
:101D7000A3F570534FEA164646EA42564FEAD2227E
:101D800042EA415210B54FEAD121A3F1010300F01C
:101D90002FF820F0004000F1020C00F0004701EBAA
:101DA00000501146BCF5006F40EA070000D210BD9C
:101DB000BAF1000F0AD01CB503B44FF004004FF085
:101DC00004014FF000000FBCBDE810404FF00001CF
:101DD000BBF1010FB9BF04484FF0FF3103480021A8
:101DE00040EA070010BD00BFFFFFEF7F0000F07F5B
:101DF000002B9C4630D477002BD01CB54FEA370718
:101E000003B44FF010004FF01001BAF1000F06D0EC
:101E1000BCF1000FDCBF40F0080040F008014FF0BB
:101E200000000FBCBDE810400BF1010BBBF1010F2E
:101E300008BF5FEA170722BF12F1010211F1010189
:101E40004FF0004143F1000300F0004043EA00007E
:101E50007047F9D35708D0E746EA064613F1400F1A
:101E60004FEA16461FDD13F1200FDFBF16430A4667
:101E7000002120335B42BED0C3F1200746EA06466C
:101E800002FA07F74FEA164646EA0706C3F12007AB
:101E900022FA03F201FA07F721FA03F14FF00003E7
:101EA00042EA0702A7E746EA020646EA06464FEA82
:101EB000164646EA0106BCBF46EA0646360C4FF017
:101EC00000034FF000024FF0000194E72DE9804C31
:101ED0009A46934670B491E8380007C831EA400C3E
:101EE00048BF34EA430C03D5FFF7A4FDFFF780FF9A
:101EF000F0BCBDE8008C2DE9804C9A46934670B446
:101F000091E8380007C831EA400C48BF34EA430C76
:101F100003D5FFF78FFDFFF729FFF0BCBDE8008C6C
:101F20002DE9804C9A46934670B491E8380007C872
:101F300010F0804F08BF13F0804F03D100F01AF863
:101F4000FFF756FFF0BCBDE8008C2DE9804C9A46A7
:101F5000934670B491E8380007C810F0804F08BF6E
:101F600013F0804F03D100F005F8FFF7FFFEF0BC3F
:101F7000BDE8008C20F07F4780EA030023F07F4C0F
:101F800007EB0C03A3F57C5300F00040A3F1FE0324
:101F900092F0000F00F0B38095F0000F00F0778012
:101FA0002DE901494FEA11404FEA144621EA004861
:101FB00000FB06FC24EA064708FB06F607FB08F8C8
:101FC00000FB07F718EB06484CEB164C4FEA124B98
:101FD00018EB07484FEA15464CEB174022EA0B4E28
:101FE0000BFB06FC25EA06470EFB06F607FB0EFE7A
:101FF0000BFB07F71EEB064E4CEB164C4FF00006A2
:102000001EEB074E4CEB174B18EB0B0840F1000092
:1020100018EB0E0B58EB000840F100008F1A4FF040
:1020200000013CBFC943661B14BFB5EB040C002183
:102030003CBFC943F61B4FEA17444EEA8E0E27EA0F
:1020400004454FEA1C4704FB07622CEA074C05FBDA
:1020500007F70CFB05F604FB0CFC16EB074642EBFE
:10206000174216EB0C4642EB1C421BEB060658EBE4
:102070000202414146EA9E0601D5BDE80189B61932
:10208000524141EB0101A3F10103BDE801894FEA8F
:1020900014454FEA114724EA054621EA074C05FB9F
:1020A00007F406FB07F70CFB06F105FB0CFC11EB34
:1020B000074144EB17444FEA124711EB0C4144EB44
:1020C0001C4422EA074C05FB07F206FB07F70CFB52
:1020D00006F605FB0CFC16EB074642EB174216EB27
:1020E0000C4642EB1C456A1854F1000148BF70478A
:1020F000B619524141EB0101A3F10103704795F07C
:10210000000F37D04FEA11424FEA144721EA024646
:1021100024EA074C02FB07F106FB07F70CFB06F469
:1021200002FB0CFC14EB074441EB17414FEA154747
:1021300014EB0C4441EB1C4125EA074C02FB07F56C
:1021400006FB07F70CFB06F602FB0CFC16EB07463A
:1021500045EB174516EB0C4645EB1C42121951F1A5
:10216000000148BF7047B619524141EB0101A3F18C
:10217000010370474FEA14454FEA114724EA054628
:1021800021EA074C05FB07F106FB07F70CFB06F2FB
:102190004FF0000605FB0CFC12EB074241EB174128
:1021A00012EB0C4251EB1C4148BF7047921841EBB7
:1021B0000101A3F10103704700BFFEE7704772B64B
:1021C00000BFFEE70146002091F82520022A03D037
:1021D0000422CA63012027E00A68126822F00E0276
:1021E0000B681A608A6C126822F480728B6C1A6019
:1021F0000A68126822F001020B681A6091F8442004
:1022000002F01F0301229A400B6C5A60D1E913328D
:102210005A604A6D42B14A6D126822F480724B6D69
:102220001A60D1E916325A60012281F8252000BFD8
:10223000002281F8242000BF704770B504460025B5
:1022400094F8250002280BD00420E063012084F8D4
:10225000250000BF002084F8240000BF012534E0E1
:102260002068006820F00E0021680860206800687F
:1022700020F0010021680860A06C006820F48070E4
:10228000A16C086094F8440000F01F010120884010
:10229000216C4860D4E913104860606D40B1606DF6
:1022A000006820F48070616D0860D4E91610486001
:1022B000012084F8250000BF002084F8240000BF1E
:1022C000A06B10B12046A16B8847284670BD000066
:1022D00078B502460B460021CAE001268E401D68F3
:1022E00005EA0604002C73D01D7905F00305012DC5
:1022F00004D01D7905F00305022D13D190684E001E
:102300000325B540A8434E00DD68B54028439060E2
:10231000506801258D40A8431D79C5F300158D40F7
:10232000284350601D7905F00305032D09D0D068BE
:102330004E000325B540A8434E009D68B540284394
:10234000D0601D7905F00305022D13D1CE0802F1EE
:10235000200555F826004D07EE0E0F25B540A84381
:102360004E07F60E1D69B5402843CE0802F1200540
:1023700045F8260010684E000325B540A8431D7996
:1023800005F003054E00B540284310605D6805F474
:102390004035002D6BD000BF384D2D6E45F0010546
:1023A000364E356635462D6E05F00105009500BFA9
:1023B00000BF4FEAB6358E0855F826008D072E0F60
:1023C0000F25B540A843B2F1904F02D100251AE085
:1023D0004DE02B4DAA4201D1012514E0294DAA421E
:1023E00001D102250FE0284DAA4201D103250AE0C0
:1023F000264DAA4201D1042505E0254DAA4201D16E
:10240000052500E006258E07360FB5402843214DEF
:102410008E0845F82600204D2868A0435D6805F425
:10242000801505B120431C4D28602D1D2868A04350
:102430005D6805F4001505B12043174D2D1D28607A
:10244000154D2D1F2868A0435D6805F4003505B1C2
:102450002043114D2D1F28602D1F2868A0435D6863
:1024600005F4803505B120430B4D083D2860491C1B
:102470001D68CD40002D7FF430AF78BD00100240C4
:102480000004004800080048000C00480010004804
:102490000014004808000140080401400148006899
:1024A0007047000004000020024692F841002028F6
:1024B0002DD100BF92F84000012801D102207047C1
:1024C000012082F8400000BF242082F841001068FB
:1024D000006820F00100136818601068006820F49C
:1024E000805013681860106800680843136818600B
:1024F0001068006840F0010013681860202082F81E
:10250000410000BF002082F8400000BFD7E7022052
:10251000D5E710B502460B4692F8410020282AD193
:1025200000BF92F84000012801D1022010BD012017
:1025300082F8400000BF242082F841001068006843
:1025400020F00100146820601068016821F47061B7
:1025500041EA0321106801601068006840F0010042
:1025600014682060202082F8410000BF002082F81B
:10257000400000BFDAE70220D8E7000010B50446AB
:102580000CB9012010BD94F8410028B9002084F84E
:102590004000204600F05EF8242084F841002068C6
:1025A000006820F0010021680860606820F0706019
:1025B000216808612068806820F4004021688860F4
:1025C000E068012805D1A06840F4004021688860D7
:1025D00004E0A06840F4044021688860E0680228B4
:1025E00006D12068406840F400602168486005E03A
:1025F0002068406820F400602168486020684068D6
:1026000013490843216848602068C06820F40040EE
:102610002168C860D4E904010843A16940EA0120A7
:102620002168C860D4E90701084321680860206870
:10263000006840F0010021680860002060642020EC
:1026400084F841000020206384F8420000BF99E72D
:102650000080000210B598B00446142113A8FEF7BC
:1026600051F8442102A8FEF74DF82B492068884212
:102670004FD1402002900020089002A800F0BCF941
:1026800008B1FFF79CFD00BF2448C06C40F001007A
:102690002249C8640846C06C00F00100019000BFE8
:1026A00000BF00BF0846C06C40F00200C864084686
:1026B000C06C00F00200019000BF00BF4FF400406A
:1026C000139012201490002015901690042017905B
:1026D00013A94FF09040FFF7FBFD4FF400701390EB
:1026E000122014900020159016900420179013A922
:1026F0000B48FFF7EDFD00BF0848806D40F4001067
:10270000064988650846806D00F40010019000BFFE
:1027100000BF18B010BD000000540040001002407F
:102720000004004803480068034909680844014957
:1027300008607047040000200C00002010B5002441
:10274000032000F0AFF80F2000F008F808B10124D2
:1027500001E000F02FF8204610BD000070B50446DF
:10276000002511480068D8B10F4800684FF47A710D
:10277000B1FBF0F00D490968B1FBF0F6304600F00E
:1027800029FF58B9102C07D200222146501E00F014
:102790004BF80748046004E0012502E0012500E051
:1027A0000125284670BD00000C000020100000200C
:1027B0000800002008B500BF1048006E40F001007E
:1027C0000E4908660846006E00F00100009000BF48
:1027D00000BF00BF0846806D40F080508865084605
:1027E000806D00F08050009000BF00BF00220F21DC
:1027F000901E00F019F800F0F5F808BD0010024036
:102800000146084600280DDB00BF00BF00F01F0393
:1028100001229A4043099B0003F1E023C3F8002101
:1028200000BF00BF00BF70472DE9F05F80460D4636
:10283000164602F03BFB074639462A46334601F06E
:102840000700C0F1070ABAF1040F02D94FF0040AD9
:1028500001E0C0F1070AD14600F1040ABAF1070FFE
:1028600002D24FF0000A01E0A0F1030AD4464FF073
:10287000010A0AFA09FAAAF1010A0AEA020A0AFA9C
:102880000CFA4FF0010B0BFA0CFBABF1010B0BEA4E
:10289000030B4AEA0B042146404602F00FFBBDE859
:1028A000F09F000000BF00F00702064B19684FF6CA
:1028B000FF031940044B0B4343EA0221014B19600B
:1028C00000BF70470CED00E00000FA0502468ABB2D
:1028D0004148006800F4C060B0F5806F2BD13E48DD
:1028E0008030006820F480703B4BC3F880001846AD
:1028F000006820F4C06040F4007018603748006839
:1029000032235843364BB0FBF3F0411C00E0491E24
:102910003148406900F48060B0F5806F01D1002932
:10292000F5D12D48406900F48060B0F5806F51D139
:102930000320704708E028488030006820F4807049
:10294000254BC3F8800045E0B2F5007F3AD122481C
:10295000006800F4C060B0F5806F2AD11E48803056
:10296000006840F480701C4BC3F880001846006873
:1029700020F4C06040F400701860184800683223EA
:102980005843174BB0FBF3F0411C00E0491E1248BE
:10299000406900F48060B0F5806F01D10029F5D165
:1029A0000D48406900F48060B0F5806F12D10320BB
:1029B000BFE709488030006840F48070064BC3F8D8
:1029C000800007E00448006820F4C06040F48060A4
:1029D000014B18600020ACE70070004010000020A0
:1029E00040420F000348806840F4804001498860FD
:1029F00070470000007000402DE9F84304460027AE
:102A0000B846206800F40020B0F5002F73D1B94615
:102A1000D348806D00F0805078B900BFD048806DF9
:102A200040F08050CE4988650846806D00F08050A7
:102A3000009000BF00BF4FF00109CA48006840F491
:102A40008070C8490860FFF729FD064606E0FFF7D9
:102A500025FD801B022801D9032705E0C148006835
:102A600000F480700028F2D000BF002F46D1BC488F
:102A70009030006800F44075CDB1206CA84216D0AB
:102A8000B7489030006820F44075B548D0F8900001
:102A900040F48030B249C1F890000846D0F8900068
:102AA00020F48030C1F890000846C0F8905005F03E
:102AB0000100A0B1FFF7F2FC064608E0FFF7EEFCCC
:102AC000801B41F28831884201D9032706E0A448DF
:102AD0009030006800F002000028EFD000BF5FB91E
:102AE0009F489030006820F44070216C08439C4956
:102AF000C1F8900003E00CE0B84600E0B846B9F138
:102B0000010F05D19648806D20F08050944988656A
:102B100000BF207800F0010048B19148883000687B
:102B200020F00300616808438D49C1F888002078CF
:102B300000F00200022809D189488830006820F09E
:102B40000C00A16808438649C1F88800207800F08D
:102B50000400042809D182488830006820F0300041
:102B6000E16808437E49C1F88800207800F0080039
:102B7000082809D17A488830006820F0C00021690F
:102B800008437749C1F88800207800F02000202809
:102B900009D173488830006820F4406061690843B7
:102BA0006F49C1F88800207800F04000402809D122
:102BB0006B488830006820F44050A1690843684998
:102BC000C1F88800207800F08000802809D164488E
:102BD0008830006820F44040E16908436049C1F84A
:102BE0008800208800F48070B0F5807F09D15C48AF
:102BF0008830006820F44030216A08435849C1F801
:102C00008800208800F40070B0F5007F09D1544896
:102C10008830006820F44020616A08435049C1F8B8
:102C20008800208800F48060B0F5806F13D14C4894
:102C30008830006820F44010A16A08434849883170
:102C40000860A06AB0F5801F05D14548C06840F40F
:102C500080104349C860208800F40060B0F5006F20
:102C600013D13F488830006820F44000E16A0843EF
:102C70003B4988310860E06AB0F5800F05D13848DB
:102C8000C06840F480103649C860208800F4805045
:102C9000B0F5805F13D132488830006820F0407072
:102CA000216B08432E4988310860206BB0F1807F8A
:102CB00005D12B48C06840F480102949C86020889D
:102CC00000F40050B0F5005F13D12548883000684B
:102CD00020F04060616B0843214988310860606BD7
:102CE000B0F1006F05D11E48C06840F480101C4947
:102CF000C860208800F48040B0F5804F13D1184898
:102D00008830006820F04060A16B08431449883186
:102D10000860A06BB0F1006F05D11148C06840F4A5
:102D200080100F49C860208800F40040B0F5004FC3
:102D300013D10B488830006820F04050E16B084305
:102D4000074988310860E06BB0F1805F05D1044825
:102D5000C06840F480300249C8604046BDE8F8834E
:102D600000100240007000402DE9F04104460D467D
:102D70004FF0000814B90120BDE8F0817D480068DB
:102D800000F00F00A8420ED27A48006820F00F0031
:102D90002843784908600846006800F00F00A84200
:102DA00001D00120E8E7207800F00100002864D07D
:102DB0006068032823D17048006800F0007008B9EB
:102DC0000120D9E701F054F806466C48864237D90D
:102DD0006948806800F0F00030B1207800F002000F
:102DE00002282DD1A06858BB6348806820F0F0000D
:102DF00040F08000604988604FF0800820E0606803
:102E0000022806D15C48006800F4003040B9012077
:102E1000B2E75948006800F4806008B90120ABE7C8
:102E200000F0DEF806465548864209D952488068C7
:102E300020F0F00040F080004F4988604FF080089B
:102E40004D48806820F00300616808434A49886063
:102E5000FFF724FB074608E0FFF720FBC01B41F209
:102E60008831884201D9032086E74348806800F012
:102E70000C006168B0EB810FEED1207800F0020009
:102E8000022820D1207800F00400042805D13A4817
:102E9000806840F4E06038498860207800F00800DD
:102EA000082807D13448806820F4605040F4E0607E
:102EB000314988603048806820F0F000A1680843FC
:102EC0002D49886008E0B8F1800F05D12A48806854
:102ED00020F0F000284988602648006800F00F00C4
:102EE000A84219D92348006820F00F00284321493F
:102EF0000860FFF7D3FA074608E0FFF7CFFAC01BD8
:102F000041F28831884201D9032035E71948006829
:102F100000F00F00A842F0D1207800F0040004284F
:102F200007D11548806820F4E060E1680843124941
:102F30008860207800F00800082808D10E488068D2
:102F400020F46050216940EAC1000B49886000F01C
:102F500047F809498968C1F30311094A515C01F036
:102F60001F01C8400749086007480068FFF7F6FBE3
:102F700002E70000002002400010024000B4C40438
:102F8000647A000810000020080000200148006852
:102F9000704700001000002000B5FFF7F7FF05495B
:102FA0008968C1F30221044A515C01F01F01C84045
:102FB00000BD000000100240747A000800B5FFF761
:102FC000E5FF05498968C1F3C221044A515C01F05B
:102FD0001F01C84000BD000000100240747A0008C4
:102FE00070B5224DAD6805F00C05042D01D12048C7
:102FF0003AE01E4DAD6805F00C05082D01D11D48C5
:1030000032E01A4DAD6805F00C050C2D2BD1174D93
:10301000ED6805F00304154DED68C5F303156A1C52
:10302000022C0CD0032C09D1124DB5FBF2F50F4E3A
:10303000F668C6F3062605FB06F10AE000BF0C4D54
:10304000B5FBF2F5094EF668C6F3062605FB06F158
:1030500000BF00BF054DED68C5F341656D1C6B00F9
:10306000B1FBF3F000E0002070BD00000010024052
:103070000024F40000127A002DE9F843044614B944
:103080000120BDE8F883207800F00100002865D019
:10309000FC48806800F00C07FA48C06800F003069E
:1030A0000C2F01D1032E01D0082F0AD1F54800685A
:1030B00000F40030002851D0606800284ED1012073
:1030C000DFE700BF6068B0F5803F06D1ED480068DB
:1030D00040F48030EB4908601AE06068B0F5A02F3A
:1030E0000BD1E848006840F48020E64908600846B3
:1030F000006840F4803008600AE0E248006820F48C
:103100008030E04908600846006820F480200860AC
:1031100000BF606888B1FFF7C1F9054606E0FFF718
:10312000BDF9401B642801D90320AAE7D5480068EF
:1031300000F400300028F2D010E0FFF7AFF90546A8
:1031400006E0FFF7ABF9401B642801D9032098E79C
:10315000CC48006800F400300028F2D1207800F05C
:103160000200022860D1C748806800F00C07C548FB
:10317000C06800F003060C2F01D1022E01D0042FED
:1031800018D1C048006800F4806018B1E06808B940
:10319000012076E7BB48406820F0FE40217C40EAF1
:1031A0000160B8494860B8480068FFF7D7FA18B31B
:1031B000012066E7E06800B3B248006840F4807020
:1031C000B0490860FFF76AF9054606E0FFF766F9BF
:1031D000401B022801D9032053E7AA48006800F4E5
:1031E00080600028F2D0A748406820F0FE40217C93
:1031F00040EA0160A349486016E0A248006820F454
:103200008070A0490860FFF749F9054606E0FFF71E
:1032100045F9401B022801D9032032E7994800688C
:1032200000F480600028F2D1207800F0080008281F
:1032300036D16069D0B193489430006840F0010005
:103240009049C1F89400FFF729F9054606E0FFF719
:1032500025F9401B022801D9032012E78948943040
:10326000006800F002000028F1D019E08548943091
:10327000006820F001008349C1F89400FFF70EF9BF
:10328000054606E0FFF70AF9401B022801D9032092
:10329000F7E67C489430006800F002000028F1D185
:1032A000207800F00400042872D14FF0000875481F
:1032B000806D012121EA107078B100BF7148806DE6
:1032C00040F080506F4988650846806D00F080505E
:1032D000009000BF00BF4FF001086C48006800F488
:1032E0008070B0B96948006840F480706749086030
:1032F000FFF7D4F8054606E0FFF7D0F8401B022898
:1033000001D90320BDE66148006800F48070002800
:10331000F2D000BFA068012808D15A489030006858
:1033200040F001005749C1F8900021E0A06805284D
:103330000FD154489030006840F004005149C1F862
:1033400090000846D0F8900040F00100C1F89000CD
:103350000EE04C489030006820F001004949C1F867
:1033600090000846D0F8900020F00400C1F89000CA
:1033700000BFA068A8B1FFF791F8054609E0FFF784
:103380008DF8401B41F28831884202D9032078E64B
:1033900025E03C489030006800F002000028EED0A4
:1033A00013E0FFF77BF8054608E0FFF777F8401BCE
:1033B00041F28831884201D9032062E631489030D9
:1033C000006800F002000028EFD1B8F1010F05D12C
:1033D0002C48806D20F080502A49886500BF2078F5
:1033E00000F02000202836D1A069D0B125489830BF
:1033F000006840F001002349C1F89800FFF74EF83B
:10340000054606E0FFF74AF8401B022801D90320D1
:1034100037E61C489830006800F002000028F1D020
:1034200019E018489830006820F001001549C1F8EB
:103430009800FFF733F8054606E0FFF72FF8401B2A
:10344000022801D903201CE60E489830006800F0DD
:1034500002000028F1D1E069002860D009488068A6
:1034600000F00C000C287AD0E069022858D10548F9
:10347000006820F0807003490860FFF70FF80546E8
:103480000DE0000000100240080000200070004025
:10349000FFF704F8401B022801D90320F1E54A4850
:1034A000006800F000700028F2D1D4E90810401E36
:1034B00041EA0011A06A41EA0021208E0122C2EBFC
:1034C000500041EA40513420005DC2EB500041EA17
:1034D00040612C20005D41EAC0603B49C9683B4A1D
:1034E000114008433849C8600846006840F08070C1
:1034F00008600846C06840F08070C860FEF7CEFFE4
:10350000054606E0FEF7CAFF401B022801D903204A
:10351000B7E52D48006800F000700028F2D051E0B7
:103520002948006820F0807027490860FEF7B6FF40
:10353000054606E0FEF7B2FF401B022801D9032032
:103540009FE52148006800F000700028F2D11E4875
:10355000C0681F4908401C49C86033E0FFE7E069C4
:10356000012800D18DE51848C66806F00301206ADD
:10357000814225D106F0F001606A401EB1EB001FC8
:103580001ED106F4FE41A06AB1EB002F18D106F05F
:1035900078412C20005DB1EBC06F11D106F4C00161
:1035A000208E0122C2EB5000B1EB405F08D106F043
:1035B000C0613420005DC2EB5000B1EB406F01D020
:1035C00001205EE500205CE5001002400C809F01B8
:1035D000FCFFEEFE70B504462546681EB0F1807F04
:1035E00001D301200FE0681E4FF0E02148610F2158
:1035F0004FF0FF3001F062FC00204FF0E0218861C5
:1036000007200861002070BD014600BF91F88400CA
:10361000012801D102207047012081F8840000BFF9
:103620002420C1F88800086802680868006820F053
:1036300001000B68186022F00052002048660868FC
:1036400002602020C1F8880000BF002081F88400BB
:1036500000BF00BFDFE77047704770B504460D46F6
:1036600000BF94F88400012801D1022070BD012020
:1036700084F8840000BF2420C4F88800206806680D
:103680002068006820F001002168086020688068D8
:1036900020F06060284321688860204600F072FCBA
:1036A000206806602020C4F8880000BF002084F84D
:1036B000840000BF00BFD9E770B504460D4600BFC7
:1036C00094F88400012801D1022070BD012084F803
:1036D000840000BF2420C4F88800206806682068A1
:1036E000006820F00100216808602068806820F0F0
:1036F0006040284321688860204600F043FC206831
:1037000006602020C4F8880000BF002084F88400F0
:1037100000BF00BFD9E77047704770472DE9F047F9
:1037200004462068C569206806682068876840F6F6
:103730000F0005EA0009B9F1000F0FD105F02000D4
:1037400060B106F0200010B907F0805030B1606F12
:1037500010B12046616F8847BDE8F087B9F1000FCE
:103760007ED0D448384018B9D34830400028F7D02C
:1037700005F0010058B106F4807040B101202168C5
:103780000862D4F8900040F00100C4F8900005F001
:10379000020058B107F0010040B102202168086220
:1037A000D4F8900040F00400C4F8900005F0040044
:1037B00058B107F0010040B1042021680862D4F834
:1037C000900040F00200C4F8900005F0080070B1CD
:1037D00006F0200010B9B748384040B108202168F1
:1037E0000862D4F8900040F00800C4F8900005F496
:1037F000006060B106F0806048B14FF4006021685D
:103800000862D4F8900040F02000C4F89000D4F88A
:103810009000002852D005F0200050B106F02000A2
:1038200010B907F0805020B1606F10B12046616F71
:103830008847D4F890A02068806800F040004028B5
:1038400002D00AF0280070B3204600F0C5FC2068C2
:10385000806800F04000402826D100BF00BF00E093
:103860002DE02168083151E8001F21F04000216857
:10387000083141E80002002AF1D100BFD4F88000ED
:1038800068B18E48D4F880108863D4F88000FEF7C1
:10389000D4FC98B1D4F88000816B88470EE02046B4
:1038A000FFF73BFF0AE003E02046FFF736FF05E0A5
:1038B0002046FFF732FF0020C4F890004CE7E06E8E
:1038C000012865D105F01000002861D006F0100035
:1038D0000028FAD01020216808622068806800F073
:1038E0004000402865D1D4F88000006840681FFA85
:1038F00080F8B8F1000F5BD0B4F85C00404557DDAC
:10390000A4F85E80D4F880000068006800F0200011
:10391000E8BB00BF00BF216851E8001F21F48070A0
:10392000226842E800010029F5D100BF00BF00BFB6
:103930002168083151E8001F21F001002168083199
:1039400041E80002002AF3D100BF00BF00BF216898
:10395000083151E8001F21F040002168083141E89A
:103960000002002AF3D100BF2020C4F88C00002000
:10397000E06600BF00BF216851E8001F21F0100081
:10398000226842E800010029F5D100BF01E004E00F
:1039900053E0D4F88000FEF715FC02202067B4F84D
:1039A0005C00B4F85E20801A81B22046FFF753FE17
:1039B000D2E634F85C0F6188401A1FFA80F86088FC
:1039C0005C3CC8B3B8F1000F36D000BF00BF21681F
:1039D00051E8001F21F49070226842E8000100299C
:1039E000F5D100BF00BF00BF2168083151E8001FBA
:1039F000304AD24301EA02002168083141E800025E
:103A0000002AF1D100BF2020C4F88C000020E0661D
:103A1000606700BF00BF216851E8001F21F010005F
:103A2000226842E800010029F5D100BF022020678A
:103A300041462046FFF70FFE8EE605F4801050B198
:103A400007F4800038B14FF48010216808622046E6
:103A5000FFF762FE80E605F0800058B106F08000B6
:103A600010B907F4000028B1A06F10B12046A16F73
:103A7000884771E605F0400030B106F0400018B10B
:103A8000204600F0DFFB67E605F4000030B106F0E9
:103A9000804018B12046FFF73EFE5DE605F08070DD
:103AA00030B106F0004018B12046FFF7D5FD53E6CF
:103AB00000BF51E60100001020010004BF410008D2
:103AC00010B504460CB9012010BDA06900B100E09A
:103AD00000BFD4F8880028B9002084F8840020466C
:103AE00000F02AF82420C4F888002068006820F03C
:103AF000010021680860A06A10B1204600F06EFA4B
:103B0000204600F0B5FE012800D1DDE720684068BE
:103B100020F49040216848602068806820F02A00E6
:103B2000216888602068006840F001002168086012
:103B3000204600F0CFFAC7E710B598B0044614212C
:103B400013A8FCF7DFFD442102A8FCF7DBFD2049A8
:103B5000206888423AD1042002900020059002A8F3
:103B6000FEF74AFF08B1FEF72AFB00BF1948806D37
:103B700040F48020174988650846806D00F4802055
:103B8000019000BF00BF00BF0846C06C40F00200BB
:103B9000C8640846C06C00F00200019000BF00BF7E
:103BA0004FF440601390022014900020159016905E
:103BB0000720179013A90848FEF78AFB0022052169
:103BC0002720FEF731FE2720FEF71AFE18B010BDA1
:103BD00000480040001002400004004870B5044650
:103BE0000D461646D4F88C00202821D105B10EB917
:103BF000012070BD0020E0660E492068884211D087
:103C00002068406800F4000060B100BF00BF216878
:103C100051E8001F41F08060226842E8000100295D
:103C2000F5D100BF32462946204600F0E3FFE0E729
:103C30000220DEE70080004010B5044606492068F7
:103C4000884208D10548007801F0ECF801220349C8
:103C50000348FFF7C3FF10BD004800409800002054
:103C6000F40000202DE9F84F04460E461746994609
:103C7000D4F88800202854D106B117B90120BDE836
:103C8000F88F00205434E06321206063FEF706FCC7
:103C9000824627806780543CA068B0F5805F04D1DD
:103CA000206910B90025B04602E035464FF0000803
:103CB00020E05346002280212046CDF8009001F0FC
:103CC00047F820B12020C4F888000320D7E745B981
:103CD000B8F80000C0F308002168886208F1020803
:103CE00003E02878216888626D1CB4F85600401EF5
:103CF000A4F85600B4F856000028DAD15346002242
:103D000040212046CDF8009001F022F820B120207B
:103D1000C4F888000320B2E72020C4F888000020FF
:103D2000ADE70220ABE7704700BFFEE710B5044ADD
:103D30000021044801F030FB0349086010BD000079
:103D4000187A0008D93E00080000002008B500BF1E
:103D50001348C06C40F020001149C8640846C06C8C
:103D600000F02000009000BF00BF00BF0846C06CFC
:103D700040F00200C8640846C06C00F002000090E9
:103D800000BF00BF00BF0846C06C40F00100C8641F
:103D90000846C06C00F00100009000BF00BF08BDE5
:103DA0000010024010B512481249086012484860DD
:103DB0000021104881600121C16000210161416141
:103DC0008161C1610162FEF7D9FB08B1FEF7F7F925
:103DD00000210848FEF768FB08B1FEF7F0F9002162
:103DE0000448FEF796FB08B1FEF7E9F910BD0000A4
:103DF00000540040A00000209B2D801010B51848F2
:103E0000184908604FF4E13048600021154881608E
:103E1000C16001610C21416100218161C1610162C8
:103E2000416200200F4988620846FFF749FE08B149
:103E3000FEF7C5F900210B48FFF73EFC08B1FEF77D
:103E4000BEF900210748FFF708FC08B1FEF7B7F9F3
:103E50000448FFF7D9FB08B1FEF7B1F910BD000027
:103E600000480040F400002000BFFEE700BFFEE76E
:103E700070B5164DED6805F00304144DED68C5F3FB
:103E800003156B1C022C0CD0032C09D1104DB5FB73
:103E9000F3F50E4EF668C6F3062605FB06F10AE0BA
:103EA00000BF0C4DB5FBF3F5084EF668C6F30626C9
:103EB00005FB06F100BF00BF044DED68C5F3416589
:103EC0006D1C6A00B1FBF2F070BD000000100240F2
:103ED00000127A000024F40010B5044602F09AF8AB
:103EE0000248006802F062FA10BD000000000020E5
:103EF00010B5FEF717FC03F01DF8012801D002F001
:103F000067FC10BD00B593B0382105A8FCF7FAFB9B
:103F100014216846FCF7F6FB0020FEF7D7FC0220D0
:103F20000590C00108904020099002200C900221C9
:103F30000D9104210E9155210F91022110911191A3
:103F4000129105A8FFF798F808B1FEF738F90F208D
:103F5000009003200190002002900390049004211F
:103F60006846FEF701FF08B1FEF729F913B000BD5E
:103F70000348006840F47000014908607047000081
:103F800088ED00E070B5456E2DB90125A0F86A50A6
:103F9000A0F868501CE0082308240568AD68C5F344
:103FA00042610568AD686A0F0A4DAD5C15FB04F50A
:103FB000094EB65C95FBF6F5A0F86A50054D6D5CB0
:103FC00015FB03F5044E765C95FBF6F5A0F86850FA
:103FD00070BD0000547A00085C7A000890F8281040
:103FE00001F00801082907D10168496821F400415E
:103FF000826B11430268516090F8281001F00101B2
:1040000039B10168496821F40031C26A114302687C
:10401000516090F8281001F00201022907D10168CF
:10402000496821F48031026B11430268516090F8B5
:10403000281001F00401042907D10168496821F41E
:104040008021426B11430268516090F8281001F002
:104050001001102907D10168896821F48051C26BD1
:1040600011430268916090F8281001F02001202986
:1040700007D10168896821F40051026C114302687C
:10408000916090F8281001F04001402913D1016897
:10409000496821F48011426C114302685160416CFF
:1040A000B1F5801F07D10168496821F4C001826C15
:1040B00011430268516090F8281001F080018029B6
:1040C00007D10168496821F40021C26C11430268DC
:1040D0005160704738B504460020C4F89000FEF7E0
:1040E000DDF905462068006800F00800082821D1A5
:1040F0006FF07E402B4600224FF4001100902046C6
:1041000000F026FEB0B100BF00BF216851E8001FDB
:1041100021F08000226842E800010029F5D100BFAB
:104120002020C4F8880000BF002084F8840000BF6D
:10413000032038BD2068006800F00400042830D156
:104140006FF07E402B4600224FF480010090204605
:1041500000F0FEFD28B300BF00BF216851E8001F3A
:1041600021F49070226842E800010029F5D100BFD7
:1041700000BF00BF2168083151E8001F21F0010095
:104180002168083141E80002002AF3D100BF202055
:10419000C4F88C0000BF002084F8840000BF032016
:1041A000C7E72020C4F88800C4F88C000020E0662F
:1041B000206700BF84F8840000BF00BFB9E770B576
:1041C0000546AC6A0020A4F85E00A4F8560020461C
:1041D000FFF7A3FA70BD000000BF00BF026852E8FD
:1041E000002F22F49071036843E80012002AF5D1F1
:1041F00000BF00BF00BF0268083252E8002F104B1A
:1042000002EA03010268083242E80013002BF2D1EF
:1042100000BFC16E01290CD100BF00BF026852E887
:10422000002F22F01001036843E80012002AF5D1A4
:1042300000BF2021C0F88C100021C1664167704783
:10424000FEFFFFEF10B5044600BF00BF216851E834
:10425000001F21F04000226842E800010029F5D14A
:1042600000BF2020C4F888000020A0672046FFF788
:104270005AFD10BD2DE9F0410446B4F86070D4F841
:104280008C0022286ED12068406A86B2A56D06EAAD
:1042900007002880A06D801CA065B4F85E00401E59
:1042A000A4F85E00B4F85E00002861D100BF00BF32
:1042B000216851E8001F21F49070226842E8000153
:1042C0000029F5D100BF00BF00BF2168083151E8C7
:1042D000001F21F001002168083141E80002002A96
:1042E000F3D100BF2020C4F88C0000206067206755
:1042F00020492068884211D02068406800F40000FE
:1043000060B100BF00BF216851E8001F21F080604C
:10431000226842E800010029F5D100BFE06E0128C3
:104320001CD10020E06600BF00BF216851E8001FDB
:1043300021F01000226842E800010029F5D100BFF9
:104340002068C069C0F3001010B110202168086215
:10435000B4F85C102046FFF77EF909E02046FFF72D
:104360006BFC05E02068806940F0080021688861E6
:10437000BDE8F081008000402DE9F84F0446B4F814
:1043800060B02068C5692068006800902068D0F897
:1043900008A0D4F88C0022287ED1B4F86890ADE053
:1043A0002068406A1FFA80F8A76D08EA0B00388081
:1043B000A06D801CA065B4F85E00401EA4F85E00ED
:1043C0002068C56905F00700B0B305F0010060B1D1
:1043D000009800F4807040B1012021680862D4F890
:1043E000900040F00100C4F8900005F0020058B1C0
:1043F0000AF0010040B1022021680862D4F8900060
:1044000040F00400C4F8900005F0040058B10AF030
:10441000010040B1042021680862D4F8900040F007
:104420000200C4F89000D4F8900028B12046FFF7AD
:1044300074F90020C4F89000B4F85E0000285DD143
:1044400000BF00BF216851E8001F21F4807022687E
:1044500042E800010029F5D100BF00BF00BF21687C
:10446000083151E8001F404A01EA02002168083182
:1044700041E80002002AF2D100BF2020C4F88C00DD
:1044800000206067206739492068884213D020687F
:10449000406800F4000000E05DE060B100BF00BFD4
:1044A000216851E8001F21F08060226842E8000185
:1044B0000029F5D100BFE06E01281CD10020E06684
:1044C00000BF00BF216851E8001F21F010002268E2
:1044D00042E800010029F5D100BF2068C069C0F39F
:1044E000001010B1102021680862B4F85C1020465A
:1044F000FFF7B1F802E02046FFF79EFBB9F1000F8D
:1045000004D005F0200000287FF44AAFB4F85E60C4
:1045100006B3B4F86800B04223DD00BF00BF2168D5
:10452000083151E8001F21F080502168083141E82E
:104530000002002AF3D100BF0D48606700BF00BF32
:10454000216851E8001F41F02000226842E8000184
:104550000029F5D105E02068806940F00800216855
:104560008861BDE8F88F0000FEFFFFEF008000408B
:104570007542000870B50446B4F86060D4F88C0049
:1045800022286FD12068406A85B2F0B22840A16D20
:104590000870A06D401CA065B4F85E00401EA4F831
:1045A0005E00B4F85E00002862D100BF00BF216841
:1045B00051E8001F21F49070226842E800010029B0
:1045C000F5D100BF00BF00BF2168083151E8001FCE
:1045D00021F001002168083141E80002002AF3D1EE
:1045E00000BF2020C4F88C000020606720672149AC
:1045F0002068884211D02068406800F4000060B153
:1046000000BF00BF216851E8001F21F080602268D0
:1046100042E800010029F5D100BFE06E01281CD15D
:104620000020E06600BF00BF216851E8001F21F0B4
:104630001000226842E800010029F5D100BF20687F
:10464000C069C0F3001010B1102021680862B4F8EE
:104650005C102046FEF7FFFF0AE02046FFF7ECFA69
:1046600006E0FFE72068806940F008002168886163
:1046700070BD0000008000402DE9F05F0446B4F8F2
:1046800060A02068C5692068D0F800B02068D0F824
:104690000890D4F88C0022287ED1B4F86880ACE071
:1046A0002068406A87B20AF0FF003840A16D0870A8
:1046B000A06D401CA065B4F85E00401EA4F85E002A
:1046C0002068C56905F00700A8B305F0010058B1DE
:1046D0000BF4807040B1012021680862D4F890008A
:1046E00040F00100C4F8900005F0020058B109F054
:1046F000010040B1022021680862D4F8900040F027
:104700000400C4F8900005F0040058B109F001005D
:1047100040B1042021680862D4F8900040F0020003
:10472000C4F89000D4F8900028B12046FEF7F5FFB9
:104730000020C4F89000B4F85E0000285DD100BFEE
:1047400000BF216851E8001F21F48070226842E810
:1047500000010029F5D100BF00BF00BF216808316A
:1047600051E8001F3F4A01EA02002168083141E890
:104770000002002AF2D100BF2020C4F88C000020E3
:104780006067206738492068884213D020684068F5
:1047900000F4000070B100E05CE000BF00BF2168E1
:1047A00051E8001F21F08060226842E800010029E2
:1047B000F5D100BFE06E01281CD10020E06600BFEB
:1047C00000BF216851E8001F21F01000226842E874
:1047D00000010029F5D100BF2068C069C0F30010B6
:1047E00010B1102021680862B4F85C102046FEF772
:1047F00032FF02E02046FFF71FFAB8F1000F04D0A5
:1048000005F0200000287FF44BAFB4F85E6006B3DB
:10481000B4F86800B04223DD00BF00BF2168083152
:1048200051E8001F21F080502168083141E8000262
:10483000002AF3D100BF0D48606700BF00BF2168A8
:1048400051E8001F41F02000226842E800010029E1
:10485000F5D105E02068806940F008002168886192
:10486000BDE8F09FFEFFFFEF0080004075450008A7
:104870002DE9FE4F044600200290D449206888426A
:1048800000D100E000BF2169A068084361690843C6
:10489000E16940EA010820680068CD49084040EA23
:1048A0000800216808602068406820F44050E168F2
:1048B000084321684860D4F81880C44920688842B9
:1048C00002D0206A40EA080820688068C149084090
:1048D00040EA0800216888602068C06A20F00F0064
:1048E000616A08432168C86200BFBB4920688842EA
:1048F00016D1BA48006800F0030030B1012808D092
:10490000022804D0032808D105E0012507E002258C
:1049100005E0042503E0082501E0102500BF6FE055
:10492000AF492068884216D1AC48006800F00C00FE
:1049300030B1042808D0082804D00C2808D105E09C
:10494000002507E0022505E0042503E0082501E035
:10495000102500BF54E0A3492068884216D19F4823
:10496000006800F0300030B1102808D0202804D0B2
:10497000302808D105E0002507E0022505E00425E0
:1049800003E0082501E0102500BF39E096492068C2
:10499000884216D19148006800F0C00030B140282C
:1049A00008D0802804D0C02808D105E0002507E001
:1049B000022505E0042503E0082501E0102500BFDD
:1049C0001EE082492068884219D18448006800F4BA
:1049D000406048B1B0F5806F0AD0B0F5006F05D0E7
:1049E000B0F5406F08D105E0002507E0022505E09D
:1049F000042503E0082501E0102500BF00E0102594
:104A000000BF72492068884259D135B1022D08D0C3
:104A1000042D08D0082D0DD109E0FEF7BDFA064699
:104A20000CE0724E0AE0FEF7DBFA064606E04FF4B1
:104A3000004603E000260120029000BF00BF002EC8
:104A400010D06B49606A31F81000B6FBF0F960686D
:104A500000EB4000484503D860680003484502D297
:104A600001200290A6E06249606A31F810C06246F7
:104A7000002330461946FBF791FC4FF4807C00225E
:104A8000A0FB0C3B01FB0CB100FB0211606840086D
:104A900018185141CDE90001D4F804C06246002342
:104AA000FBF77CFC0746B7F5407F05D3B7F5801FC1
:104AB00002D22068C7607DE0012002907AE0E069C0
:104AC000B0F5004F3FD1092D17D2DFE805F00509F9
:104AD0000D160F1616161300FEF75EFA064610E0C6
:104AE000FEF76CFA06460CE0404E0AE0FEF778FA54
:104AF000064606E04FF4004603E00026012002903F
:104B000000BF00BF86B33A49606A31F81000B6FBB7
:104B1000F0F04000616800EB5100B0FBF1F7102F9E
:104B20000ED3B7F5803F0BD24FF6F07007EA000ABC
:104B3000C7F342004AEA000A2068C0F80CA039E036
:104B40000120029036E0092D18D2DFE805F00509B2
:104B50000E17101717171400FEF71EFA064611E07D
:104B6000FEF72CFA06460DE024E0204E0AE0FEF7A0
:104B700037FA064606E04FF4004603E0002601201F
:104B8000029000BF00BFAEB11949606A31F8100051
:104B9000B6FBF0F0616800EB5100B0FBF1F7102FAD
:104BA00006D3B7F5803F03D2B8B22168C86001E0F0
:104BB000012002900120A4F86A00A4F868000020F7
:104BC0006067A0670298BDE8FE8F0000008000408B
:104BD000F369FFCFFFF4FF11003801408810024055
:104BE0000044004000480040004C00400024F40015
:104BF0003C7A000830B503469965A3F85C20A3F819
:104C00005E200020586700BF9868B0F5805F0AD129
:104C1000186920B940F2FF10A3F8600020E0FF20DF
:104C2000A3F860001CE0986848B9186918B9FF201B
:104C3000A3F8600014E07F20A3F8600010E09868FB
:104C4000B0F1805F09D1186918B97F20A3F860001E
:104C500006E03F20A3F8600002E00020A3F8600017
:104C600000BF0020C3F890002220C3F88C0000BFD2
:104C700000BF1C68083454E8004F44F001001C6871
:104C8000083444E80005002DF3D100BF586EB0F1A0
:104C9000005F2CD1B3F86800904228DC9868B0F52A
:104CA000805F04D1186910B92548586701E025488C
:104CB0005867186960B100BF00BF1C6854E8004F16
:104CC00044F480701D6845E80004002CF5D100BF55
:104CD00000BF00BF1C68083454E8004F44F0805007
:104CE0001C68083444E80005002DF3D126E09868DC
:104CF000B0F5805F04D1186910B91348586701E016
:104D000012485867186960B100BF00BF1C6854E8BA
:104D1000004F44F490701D6845E80004002CF5D164
:104D20000CE000BF00BF1C6854E8004F44F02000B6
:104D30001D6845E80004002CF5D100BF002030BDFF
:104D40007943000879460008754200087545000857
:104D50002DE9F04104460D4617469846069E41E06F
:104D6000701C00283ED0FDF799FBA0EB0800B04274
:104D700000D816B90320BDE8F0812068006800F073
:104D8000040070B3802D2DD0402D2BD02068C06939
:104D9000C0F3C00078B10820216808622046FFF700
:104DA0001BFA0820C4F8900000BF002084F884009B
:104DB00000BF0120DFE72068C069C0F3C02080B1D8
:104DC0004FF40060216808622046FFF705FA2020B2
:104DD000C4F8900000BF002084F8840000BF0320C6
:104DE000C9E7FFE72068C0692840A84201D1012037
:104DF00000E00020B842B3D00020BCE710B5024864
:104E0000FEF78CFC10BD0000F400002000BFFEE7A0
:104E100000BF00F0A7F900F01BFB4FF4FA7000F0A0
:104E200065FAF6E710B504461348407C10BB1248FB
:104E300000780F2815DA0A2C05D101200E49487494
:104E40000020087016E00C480178401C4454401EB5
:104E50000078401C084908700846007C401C087413
:104E600008E00F210448401CFBF72AFC00200249FF
:104E70000870087410BD00005C1A002003B401988B
:104E80004100009850EAC12018BF04204A0D18BF05
:104E900040F0010040F2FF72B2EB515F08BF40F0FA
:104EA0000200012808BF052002B0704702480068D0
:104EB000C0F30220704700000CED00E010B50028A0
:104EC00004DB0A07130E054A135406E00A07140E02
:104ED000034A00F00F031B1FD45410BD00E400E090
:104EE00018ED00E0EFF305807047000000000000BF
:104EF00030B52DED048B81B0B0EE408AF0EE608AC3
:104F00006A4651EC180B00F08FF900989FED329B28
:104F10007E300090002821DC53EC192B51EC180B4B
:104F200002F0D0FA1AD0002140F608004FF000003D
:104F3000044651EC180B02F07FFA08EE100A40F616
:104F4000080004EA00014FF00000B5EEC08AF1EE5F
:104F500010FA04BF0220FBF704FC2DE00098FF28A4
:104F600030DB002108464FF0000000F4400553EC10
:104F7000192B51EC180B02F01BFC8CBF00240124F0
:104F80000220FBF7EEFB9FED168A4DB1002C0CBF03
:104F90004FF400004FF48000A84218BF9FED118A23
:104FA000042108464FF00000002C01BFB1EE480A72
:104FB00001B0BDEC048B30BDB0EE480A01B0BDECD1
:104FC000048B30BD51EC180B02F036FA01B000EE44
:104FD000100ABDEC048B30BD000000000000000092
:104FE0000000807FFFFF7F7F30B583B00446FBF772
:104FF000B3FB9FED090B05468DED000B002221460A
:105000006846FBF7FFFD2846FBF7ABFB9DED000B69
:1050100003B030BD000000000000000000000000F0
:1050200030B540F2FF742DED048BF0EE608A18EE7F
:10503000901A85B0B0EE408A9FED2B9B05468DED12
:10504000008B34EA115147D053EC192B51EC180B5B
:1050500002F038FA40D02A4651EC180B02F090FCCE
:1050600041EC180B18EE900A8DED008B34EA1050CD
:105070001CD053EC192B51EC180B02F023FA2BD156
:105080000220FBF76EFB00F043F810EE901A18EECA
:10509000900A8DED020B8DED008B61F31E000390E5
:1050A0009DED020B05B0BDEC048B30BD0220FBF77B
:1050B00058FB00F01DF810EE901A18EE900A8DEDD6
:1050C000020B8DED008B61F31E0003909DED020B32
:1050D00005B0BDEC048B30BD05B0B0EE480AF0EE73
:1050E000680ABDEC048B30BD000000000000000029
:1050F0009FED050B10B553EC102B51EC100B02F08B
:1051000059FA41EC100B10BD0000000000000070C7
:105110009FED050B10B553EC102B51EC100B02F06A
:1051200049FA41EC100B10BD000000000000001017
:1051300010B5044691ED000BFFF7DAFE84ED000A8E
:1051400010BD10B5044690ED000B0846FFF768FF50
:1051500084ED000B10BD30380A2801D201207047C1
:105160000020704710B52DED028B2248407C0128AD
:105170003DD100201F49487408464078482802D095
:1051800054282ED10BE01CA11F48FBF77FF94FF4E8
:10519000FA730F221C491D48FEF764FD21E01548F3
:1051A000801CFFF721FFB0EE408AF0EE608A51ECE0
:1051B000180B02F041F9164908600846006802F031
:1051C0002DFB41EC180B53EC182B12A10E48FBF7EA
:1051D0005DF94FF4FA730F220B490C48FEF742FDBC
:1051E00000BF00BF0F210348401CFBF769FABDEC6C
:1051F000028B10BD5C1A002048656C6C6F20576FE5
:10520000726C64210D0A00006E1A0020F400002068
:105210009C0000205461726765743D252E32660D36
:105220000A0000000000000010B582B01446CDE96D
:1052300000010023009A2360194B21F0004098429E
:105240002ADA024328D0B0F5801FA8BF226810DAFE
:105250009FED150B53EC102B9DED000B51EC100B3B
:1052600002F0A8F9CDE900016FF0350221F000400D
:1052700022600F4B6FF31E5103EB2050104420604F
:1052800041F0FF5040F0005001909DED000B00BF39
:1052900002B051EC100B10BD9DED000BF8E70000C3
:1052A0000000F07F000000000000000000005043FC
:1052B00002FCFFFFFDF742FAFEF724FEFEF746FD73
:1052C000FEF79CFDFEF76EFD012206490648FEF73B
:1052D00085FC00F01BF8FEF729FD00F02DF800BF5B
:1052E000FEE7000098000020F400002070B505469D
:1052F000FFF7F8FD10B16FF0050404E0002415B1CC
:10530000284601F025F8204670BD000010B5FFF7D3
:10531000E9FD10B16FF0050409E00648006820B906
:10532000012004490860002401E04FF0FF342046CA
:1053300010BD00006400002070B5FFF7D3FD10B170
:105340006FF005041FE011480068012819D100BF63
:10535000801F0021002804DB0A07130E0C4A135497
:1053600006E00A07150E0B4A00F00F031B1FD55469
:1053700000BF00BF02200549086001F0C9F8002401
:1053800001E04FF0FF34204670BD000064000020B3
:1053900000E400E018ED00E02DE9FF478046894673
:1053A000144600200390FFF79DFD00284ED1B8F170
:1053B000000F4BD0802618258246471E44B3206834
:1053C00008B1D4F800A0A06900B1A5692DB1382DAD
:1053D00003D8207900F0010018B1002004B0BDE826
:1053E000F087606908B160698608A06840B1E0682C
:1053F0005C2805D3206918B1606908B1012708E06D
:10540000A06830B9E06820B9206910B9002700E031
:105410000027012F0CD12169A0684B463246CDE907
:10542000005102905146404601F026FD03900DE0E8
:1054300067B903A8B2B24B465146CDE90050404689
:1054400001F0E8FC012801D0002003900398C5E793
:105450001CB506A103C9CDE900014FF4FA73072278
:1054600069460448FEF7FEFB1CBD000048656C6CF5
:105470006F0A0000F40000202DE9F04105460E46B9
:105480001648076816480068001D00F0D9FD681C22
:1054900038B936B112480168091D124800F026FEDD
:1054A0001AE07C190E4800684460BC4207D20C48E0
:1054B0000168091D0C48006800F0FEFD0CE008487A
:1054C0000168091D0948006800F0F6FD08480068F9
:1054D000844201D206480460BDE8F0812800002023
:1054E00014000020780600201C0000201800002076
:1054F0004400002010B5044600F004FE2448006873
:10550000401C234908602348006840B921480460D2
:105510000846006801280DD100F0FCF90AE01E4899
:10552000006838B91B480068C06AE16A884201D83F
:105530001848046019480068401C1849086008466B
:10554000006860641649E06A0968884202D9144913
:10555000E06A0860E16A01EB8101124A02EB810016
:10556000211D00F0C3FD00F0F7FD0B48006868B195
:1055700008480068C06AE16A884207D24FF080504C
:1055800009490860BFF34F8FBFF36F8F10BD000054
:1055900024000020140000203000002040000020E3
:1055A0002C000020C801002004ED00E008B500F048
:1055B000A9FD12480068E8B9114800F06DFD1148D6
:1055C00000F06AFD0E48104908600E480F49086057
:1055D00000200F4B0F4A102100900A2001F012F911
:1055E000064908600846006820B10BA1034800681E
:1055F00000F072FE00F0B0FD08BD00005800002071
:105600008C060020A006002050000020540000203E
:10561000B406002004070020546D72510000000001
:1056200010B516E000F06EFD0C48C068C468201D7F
:1056300000F006FD0A480068401E09490860094854
:105640000068401E0749086000F086FD204600F013
:105650005FF8044800680028E4D110BD640600200B
:10566000240000202000002070B504460D46206C68
:1056700070B1216CE0680144E160D4E90210884215
:1056800001D32168E1602846226CE168FAF799FFAE
:1056900070BD2DE9F04104460F4615464FF0000855
:1056A000A66B206C48B9206800282CD1A06801F0B6
:1056B000F9FC80460020A06025E07DB93946226CC7
:1056C0006068FAF77EFF216C606808446060D4E986
:1056D0000101884217D32068606014E03946226CCB
:1056E000E068FAF76EFF216CE068411AE16021681A
:1056F000E068884203D2216CA068411AE160022D63
:1057000001D106B1761E701CA0634046BDE8F08151
:1057100010B5044694F8590030B9206B00F03AFDFA
:10572000204600F037FD1AE094F85900012803D113
:10573000204600F02FFD12E094F85900022801D114
:10574000012000E0002050B900BF502080F31188F4
:10575000BFF34F8FBFF36F8F00BF00BFFEE710BDD9
:105760000146084A126812680AB9012200E00022C4
:105770000A600A6822B9034A1268D268106800E019
:10578000002070475000002030B54FF440631748A8
:1057900000F007042CB1C01D20F00700134C041BBF
:1057A0001B1B0246124C22600024114D6C60D01865
:1057B000083820F007000F4C206000240D4D2D68A4
:1057C0006C600C4D2D682C601146441A4C60094CDD
:1057D00024680C60084D4C682C60084D4C682C60A7
:1057E0004FF00044064D2C6030BD00005C0E0020E0
:1057F0006800002070000020780000207400002065
:105800008400002000BFFFF70BFF06480068012856
:10581000F9D94FF0805004490860BFF34F8FBFF3B0
:105820006F8FF0E7C801002004ED00E02DE9F041A2
:1058300006460D4617469846069C0DB9246000E0C2
:105840002760E66325640121204601F04BF884F8C7
:105850004C80BDE8F0812DE9F05F82460E4690460F
:105860009B460A9F0C9C4FEA8801A522206BFAF701
:105870001FFFA8F10100216B01EB800929F0070946
:1058800009F0070008B9012000E0002050B900BF6E
:10589000502080F31188BFF34F8FBFF36F8F00BF8D
:1058A00000BFFEE786B1002507E0715D04F134001A
:1058B0004155705D00B902E06D1C102DF5D300BF9D
:1058C00000214320015502E0002084F83400382FE5
:1058D00000D33727E762E76400202065201D00F031
:1058E000E8FB04F1180000F0E4FB2461C7F1380084
:1058F000A06164620020606584F858005A465146F1
:10590000484600F071FB20600B9808B10B980460CA
:10591000BDE8F09F10B5002407E004EB84010F4AB6
:1059200002EB810000F0B8FB641C382CF5D30C4866
:1059300000F0B2FB0B4800F0AFFB0B4800F0ACFBF3
:105940000A4800F0A9FB0A4800F0A6FB04480949F0
:10595000086004480849086010BD0000C801002024
:10596000280600203C060020500600206406002087
:1059700078060020180000201C00002010B5014609
:10598000164800E0006803688B42FBD30246436878
:1059900013448B4204D143684C682344436001465E
:1059A0000A464B6813440468A34211D10C4C0368A7
:1059B0002468A34208D04B680468646823444B60A1
:1059C00003681B680B6005E0054B1B680B6001E07A
:1059D00003680B60884200D0016010BD68000020A1
:1059E000700000202DE9F04104460D4616461F4682
:1059F0004FF0000865602461B5420CD8F01BA16926
:105A0000884202D34FF0010811E0211D09480068C7
:105A100000F052FB0BE0BE4204D2BD4202D34FF075
:105A2000010804E0211D0448006800F045FB4046E1
:105A3000BDE8F081540000205000002070B50546FC
:105A400000F060FBA86B08B9012400E0002400F01E
:105A500083FB204670BD70B5054600F053FBA86B74
:105A6000E96B884201D1012400E0002400F074FBBE
:105A7000204670BDF8B505460F461A480068C06854
:105A8000C468201D00F0DCFA94F8280000F004003F
:105A9000E8B1A06941192B463A462046FFF7A2FF1C
:105AA000D8B1002003462A4601460090204601F066
:105AB00055FC064656B900BF502080F31188BFF34D
:105AC0004F8FBFF36F8F00BF00BFFEE705E094F874
:105AD000280020F0010084F828002046216A884729
