:020000040800F2
:10000000080500209D010008531A00083D1800084B
:10001000511A0008A9020008872300080000000008
:10002000000000000000000000000000FB1B0008B2
:10003000AB02000800000000F91B0008FD1B0008CF
:10004000B7010008B7010008B7010008B7010008B0
:10005000B7010008B7010008B7010008B7010008A0
:10006000B7010008B7010008B7010008B701000890
:10007000B7010008B7010008B7010008B701000880
:10008000B7010008B7010008B7010008B701000870
:10009000B7010008B7010008B7010008B701000860
:1000A000B70100088D1C0008B7010008B70100085F
:1000B000B70100080000000000000000B7010008C0
:1000C000B7010008B7010008B701000800000000F0
:1000D000B7010008B7010008B7010008B701000820
:1000E000B7010008B7010008B701000800000000D0
:1000F0000000000000000000000000000000000000
:10010000000000000000000000000000B70100082F
:100110000000000000000000B7010008000000001F
:1001200000000000000000000000000000000000CF
:1001300000000000000000000000000000000000BF
:10014000B7010008B701000800000000000000002F
:10015000000000000000000000000000000000009F
:10016000B7010008B7010008B7010008B70100088F
:10017000B7010008000000000000000000000000BF
:1001800000000000B7010008DFF80CD000F07AF89A
:1001900000480047C9280008080500200648804795
:1001A00006480047FEE7FEE7FEE7FEE7FEE7FEE75C
:1001B000FEE7FEE7FEE7FEE77D1C00088901000878
:1001C0002DE9F05F0546002092469B46884606468C
:1001D000814640241BE0284641464746224600F01F
:1001E00020F853465A46C01A914110D3114618467A
:1001F000224600F038F82D1A67EB01084F462246D8
:100200000120002100F02FF817EB00094E41201EBD
:10021000A4F10104DFDC484631462A464346BDE8E6
:10022000F09F202A04DB203A21FA02F000217047D7
:1002300021FA02F3D040C2F120029140084319464E
:100240007047D2B201E000F8012B491EFBD2704783
:100250000022F6E710B513460A4604461946FFF792
:10026000F0FF204610BD202A04DB203A00FA02F1FC
:10027000002070479140C2F1200320FA03F3194394
:1002800090407047064C074D06E0E06840F00103DF
:1002900094E8070098471034AC42F6D3FFF778FF94
:1002A000EC2900080C2A0008FEE7704772B6FEE74A
:1002B00070B5044600F030F90546601C02D00448D1
:1002C0000078044400F028F9401BA042FAD370BD26
:1002D000080000202DE9F04FDFF80092002309F11B
:1002E000040A012603250AF1040B85B00F270BF140
:1002F000040EEAE006FA03F422407CD091F804C030
:100300000CF0030CBCF1010F02D0BCF1020F26D19E
:10031000D0F808C0CDF800C04FEA430C05FA0CF83D
:10032000CDF810C0DDF800C02CEA080CCDF800C0F4
:10033000D1F80C80DDF810C008FA0CF8DDF800C028
:1003400048EA0C08C0F80880D0F804C02CEA040C75
:100350000C79C4F300149C4044EA0C0444600C790A
:10036000E443A4070DD0D0F80CC04FEA430805FAC7
:1003700008F42CEA040C8C6804FA08F444EA0C042F
:10038000C4600C7904F00304022C19D1DC0800EBE2
:1003900084040294246A4FEA437C4FEADC6CCDF873
:1003A00010C007FA0CFC24EA0C04D1F81080DDF828
:1003B00010C008FA0CF848EA0408029CC4F820802F
:1003C00004684FEA430805FA08FC24EA0C0491F893
:1003D00004C00CF0030C0CFA08FC4CEA040CC0F846
:1003E00000C04C6814F4403F6ED03D4CD4F818C0A7
:1003F0004CF0010C00E067E0C4F818C0A46923F0D9
:10040000030C04F001040094364C64440294A46884
:100410004FEA837C4FEA1C7807FA08FC24EA0C04B4
:10042000B0F1904F06D0DFF8C0C0604505D14FF065
:10043000010C12E04FF0000C0FE0DFF8B0C0604597
:1004400002D14FF0020C08E0DFF8A4C0604502D1F1
:100450004FF0030C01E04FF0050C0CFA08FC4CEADD
:10046000040C029CC4F808C0D9F80040CC46D1F86E
:10047000048094435FEAC83800D51443CCF80040A8
:10048000DAF80040D446D1F8048094435FEA883813
:1004900000D51443CCF80040DBF80040DC46D1F82E
:1004A000048094435FEAC82800D51443CCF8004088
:1004B000DEF80040F446D1F8048094435FEA8828CF
:1004C00000D51443CCF800405B1C0A6832FA03F4F0
:1004D0007FF410AF05B0BDE8F08F000000040140CC
:1004E00000100240000001400004004800080048DD
:1004F000000C00480069084000D0012070474269A4
:1005000021EA02030A4043EA0241816170470AB1CD
:1005100081617047816270470148806870470000C0
:100520000800002002488168027811448160704709
:1005300008000020074810B5016841F01001016073
:10054000032000F06DF8002000F006F800F024F819
:10055000002010BD0020024070B50D4D04464FF440
:100560007A712878B1FBF0F00A490968B1FBF0F024
:1005700000F050FD48B9102C07D200222146501E31
:1005800000F02EF800206C6070BD012070BD0000EE
:100590000800002014000020094808B5816941F0D6
:1005A00001018161816901F001010091C16941F09E
:1005B0008051C161C06900F08050009008BD00000A
:1005C00000100240002809DB00F01F0201219140C9
:1005D0004009800000F1E020C0F8001170470000E1
:1005E000F0B40E4B1B680C46C3F30223C3F107059E
:1005F000042D00D90425191D072901D2002300E08C
:10060000DB1E012606FA05F1491E214099409E4055
:10061000761E16403143F0BC01F0C9BE0CED00E07F
:10062000064900F0070208684FF6FF03184040EA49
:100630000220034A10430860704700000CED00E000
:100640000000FA052DE9F84F054600680026774CB2
:10065000C0036ED5E069C00008D4E06940F0805066
:10066000E061E069012600F0805000907048016868
:10067000C90512D40168804641F480710160FFF71A
:100680004BFF074605E000BFFFF746FFC01B64288D
:1006900035D8D8F80000C005F6D5206A10F44070AF
:1006A00053D0A98801F4407181424ED0206A4FF4A2
:1006B000803191FAA1F2B2FA82F297005D4A4FF0CE
:1006C0000108174420F44070C7F8008491FAA1F1A2
:1006D000B1FA81F102EB81010023C1F800342062FC
:1006E000C00732D0FFF718FF074641F2883A4FF0B3
:1006F000020907E0FFF710FFC11B514502D9032093
:10070000BDE8F88F99FAA9F1B1FA81F141F0400101
:100710004846B8EB511F01D121680CE090FAA0F1D6
:10072000B1FA81F141F04001B0EB511F02D1216AD1
:1007300001E015E0616A99FAA9F0B0FA80F000F0E2
:100740001F0008FA00F21142D4D0206A696820F430
:100750004070084320621EB1E06920F08050E061E3
:100760002878C00705D0206BA96820F00300084353
:1007700020632878800605D5206BE96820F01000FA
:10078000084320632868800305D56068296B20F43E
:100790008000084360602878400605D5206B2969F1
:1007A00020F02000084320632888000405D5206B32
:1007B000696920F04000084320632888800505D53A
:1007C0006068E96920F4000008436060287800064A
:1007D00005D5E06AA96920F4F8700843E06228882A
:1007E000C00405D5206B296A20F48070084320637B
:1007F0002868400305D5206B696A20F480600843AF
:1008000020632868000305D5206BA96A20F40060E6
:10081000084320632868C00205D5206BE96A20F4EC
:1008200000500843206300206AE7000000100240E7
:1008300000700040000042422DE9F0470F460500DD
:1008400069D04A4E306800F00700B84209D23068DB
:1008500020F0070038433060306800F00700B842ED
:1008600059D12878424C800705D56068A96820F0E6
:10087000F000084360602878C0073DD06968012017
:1008800001290DD0022923D05FF0020393FAA3F2CD
:10089000B2FA82F242F02002520904D0226803E048
:1008A0004FF40033F2E7626A93FAA3F3B3FA83F3E7
:1008B00003F01F03984002422DD0606820F003002F
:1008C00008436060FFF728FE804641F288390CE05B
:1008D0004FF00073DAE700BFFFF71EFEA0EB080140
:1008E000494502D90320BDE8F0876068696800F0D7
:1008F0000C00B0EB810FEFD1306800F00700B84278
:100900000BD9306820F0070038433060306800F0C1
:100910000700B84201D00120E5E72878400705D557
:100920006068E96820F4E0600843606028780007A8
:1009300006D56068296920F4605040EAC100606013
:1009400000F04EF86168F02292FAA2F201F0F00194
:10095000B2FA82F2D140074A515CC84006490860A9
:1009600006480068FFF7F8FD0020BCE700200240C1
:1009700000100240B4290008140000200C000020E0
:1009800008480949006849684FF4E06292FAA2F207
:1009900001F4E061B2FA82F2D140044A515CC840ED
:1009A000704700001400002000100240C429000815
:1009B00008480949006849684FF4605292FAA2F267
:1009C00001F46051B2FA82F2D140044A515CC8404D
:1009D000704700001400002000100240C4290008E5
:1009E000164A10B55168164801F00C03042B20D0AC
:1009F000082B1ED14FF4701494FAA4F401F4701370
:100A0000B4FA84F4E3400F4CD26AE45C0F2393FA07
:100A1000A3F302F00F02B3FA83F3DA40094B103369
:100A2000C9039A5C06D500231946FFF7C9FBA0FB52
:100A3000040110BD0448A4FB000110BD00100240D9
:100A400000127A009429000800093D002DE9F84FB2
:100A5000050071D02878FC4EC0074FF0010425D066
:100A600070686704C0F38100012807D07068C0F384
:100A7000810002281BD17068C00318D597FAA7F02F
:100A8000B0FA80F040F02000400901D0306800E06A
:100A9000706A97FAA7F1B1FA81F101F01F0104FA27
:100AA00001F1084265D068680028D2D061E068682A
:100AB000B0F5803F0BD010B1B0F5A02F17D0306843
:100AC00020F480303060306820F4802002E030680C
:100AD00040F480303060F06AA96820F00F000843CD
:100AE000F062686820B3FFF717FD80460AE03068BF
:100AF00040F480203060EAE7FFF70EFDA0EB08002D
:100B0000642871D897FAA7F0B0FA80F040F020007E
:100B1000400901D0306800E0706A97FAA7F1B1FA95
:100B200081F101F01F0104FA01F10842E4D020E054
:100B3000FFF7F2FC804607E0C2E000BFFFF7ECFCE5
:100B4000A0EB08006428DCD897FAA7F0B0FA80F090
:100B500040F02000400901D0306800E0706A97FA48
:100B6000A7F1B1FA81F101F01F0104FA01F1084285
:100B7000E4D12878DFF8D48280074FF0000A4FF0E4
:100B8000020730D570684FF0F80B10F00C0F07D04B
:100B90007068C0F38100022827D17068C00324D494
:100BA00097FAA7F0B0FA80F040F02000400901D099
:100BB000306800E0706A97FAA7F1B1FA81F101F0AC
:100BC0001F0104FA01F1084202D02869012877D1F7
:100BD00030689BFAABF220F0F8016869B2FA82F251
:100BE0009040014331605AE064E1286988B394FA87
:100BF000A4F0B0FA80F048F82040FFF78DFC814661
:100C000006E000BFFFF788FCA0EB090002289AD895
:100C100097FAA7F0B0FA80F040F02000400901D028
:100C2000306800E0706A97FAA7F1B1FA81F101F03B
:100C30001F0104FA01F10842E4D030689BFAABF2DC
:100C40006969B2FA82F220F0F800914008433060FE
:100C500025E0FFE794FAA4F0B0FA80F048F820A06D
:100C6000FFF75AFC814605E0FFF756FCA0EB0900B0
:100C70000228CCD897FAA7F0B0FA80F040F0200014
:100C8000400901D0306800E0706A97FAA7F1B1FA24
:100C900081F101F01F0104FA01F10842E4D1287842
:100CA00000076CD5A869A8B394FAA4F0B0FA80F054
:100CB00008EB8000C0F88044FFF72EFC814607E077
:100CC000A4E100BFFFF728FCA0EB090002289ED892
:100CD00097FAA7F0B0FA80F040F06000B4EB501F34
:100CE00001D130680BE097FAA7F0B0FA80F040F03D
:100CF0006000B7EB501F01D1306A00E0706A97FACC
:100D0000A7F1B1FA81F101F01F0104FA01F21042DA
:100D1000D8D034E0FFE794FAA4F1B1FA81F108EBFE
:100D20008101C1F880A4FFF7F7FB814606E000BF10
:100D3000FFF7F2FBA0EB090002289AD897FAA7F078
:100D4000B0FA80F040F06000B4EB501F01D1306881
:100D50000BE097FAA7F0B0FA80F040F06000B7EB34
:100D6000501F01D1306A00E0706A97FAA7F1B1FA1A
:100D700081F101F01F0104FA01F21042D8D1287864
:100D8000400768D5F0694FF00009C00009D4F06948
:100D900040F08050F061F0694FF0010900F08050A0
:100DA00000902B480168C90512D4016841F4807194
:100DB0000160FFF7B1FB834606E000BFFFF7ACFB25
:100DC000A0EB0B00642875D821480068C005F5D554
:100DD000E86801280AD008B1052811D0306A20F04F
:100DE00001003062306A20F0040002E0306A40F016
:100DF00001003062E86868B3FFF78EFB83460DE0C0
:100E0000306A40F004003062F0E700BFFFF784FB77
:100E1000A0EB0B0141F2883081424BD897FAA7F042
:100E2000B0FA80F040F04000B4EB501F01D13068C0
:100E300013E097FAA7F0B0FA80F040F04000B7EB6B
:100E4000501F09D1306A08E0001002400000424201
:100E5000007000400CE040E0706A97FAA7F1B1FA28
:100E600081F101F01F0104FA01F21042CED02DE011
:100E7000FFF752FB834607E0FFF74EFBA0EB0B01A9
:100E800041F28830814215D897FAA7F0B0FA80F085
:100E900040F04000B4EB501F01D130680CE097FAED
:100EA000A7F0B0FA80F040F04000B7EB501F02D13D
:100EB000306A01E083E0706A97FAA7F1B1FA81F134
:100EC00001F01F0104FA01F21042D5D1B9F1000F6F
:100ED00003D0F06920F08050F061E86980B3716858
:100EE000C1F38101022977D04FF080714F000228B1
:100EF000504609D091FAA1F1B1FA81F148F82100E8
:100F0000FFF70AFB05465DE0894691FAA1F1B1FAC7
:100F100081F1C24648F82100FFF7FEFA804605E05D
:100F2000FFF7FAFAA0EB0800022848D897FAA7F0D2
:100F3000B0FA80F040F02000400902D0306801E0B3
:100F400066E0706A97FAA7F1B1FA81F101F01F012A
:100F500004FA01F10842E3D1D5E9081008437168A9
:100F600021F474110843706099FAA9F0B0FA80F086
:100F70004AF82040FFF7D0FA054604E0FFF7CCFA24
:100F8000401B02281BD897FAA7F0B0FA80F040F077
:100F90002000400901D0306800E0706A97FAA7F19C
:100FA000B1FA81F101F01F0104FA01F10842E5D024
:100FB0002EE000BFFFF7B0FA401B022802D9032041
:100FC000BDE8F88F97FAA7F0B0FA80F040F0200063
:100FD000400902D0306801E00BE0706A97FAA7F18F
:100FE000B1FA81F101F01F0104FA01F10842E1D1E7
:100FF0000EE00128E4D070682A6A00F48031914242
:1010000004D1696A00F47010884201D00120D7E74A
:101010000020D5E710B5401EB0F1807F01D301203C
:1010200010BD4FF0E02460610F21601701F0BFF99F
:101030000020A06107202061002010BD704770478C
:101040007047000030B590F83C20012A37D00122CB
:1010500080F83C20CA688C6822F4407222434C68B5
:1010600022F4806222430C6822F4006222430C695D
:1010700022F4805222434C6922F4005222438C6AAB
:1010800022F4804222430C8B22F4702242EA044272
:101090000C4D04680023AC420CD18D8C22F47002FC
:1010A00042EA0552CD6922F080722A43096A22F091
:1010B00000720A43626480F83C30002030BD022098
:1010C00030BD0000002C0140F0B590F83C20012A12
:1010D00029D0012480F83C40022280F83D2003689A
:1010E0005A689D68114EB34203D122F470074A68D2
:1010F0003A4322F070070A683A435A600268B242E3
:1011000005D0B2F1804F02D0094B9A4204D18968D0
:1011100025F080031943916080F83D40002180F85C
:101120003C100846F0BD0220F0BD0000002C01403C
:101130000040014010B5040003D094F83D0010B108
:1011400007E0012010BD002084F83C00204600F09C
:1011500023F8022084F83D00211D206800F09CFD4A
:10116000012084F8480084F83E0084F83F0084F8A9
:10117000400084F8410084F8420084F8430084F879
:10118000440084F8450084F8460084F8470084F859
:101190003D00002010BD000008B500680B498842E2
:1011A00012D10B48816941F400618161806900229C
:1011B00000F40060009001211920FFF711FABDE84A
:1011C00008401920FFF7FEB908BD0000002C0140BF
:1011D0000010024070B5044690F83C00002501283C
:1011E00017D0012684F83C60022084F83D00226874
:1011F00090682F4B184020F47F409060086850287A
:1012000038D00DDC20284FD005DC90B3102811D148
:101210004AE0022070BD302846D040280AD13BE089
:1012200060282FD070280DD0B0F5805F03D0B0F5C6
:10123000005F12D0012584F83D60002084F83C0056
:10124000284670BDCB68D1E90121206800F06DFD12
:101250002068816841F0770109E0CB68D1E901217C
:10126000206800F062FD2068816841F4804181605F
:10127000E1E719E0CA684968206800F0C9FE50211A
:10128000206806E0CA684968206800F0D2FE602144
:10129000206800F054FDCEE7CA684968206800F075
:1012A000B7FE40212068F4E7226801461046F0E7C7
:1012B00088FFFEFF704770B50446006801694FF073
:1012C0000005C943890715D4C168C943890711D4EA
:1012D000E91E01610120207720688069800720468F
:1012E00002D0FFF7E7FF04E000F0D2F8204600F05C
:1012F00094F9257720680169C943490717D4C16863
:10130000C943490713D46FF004010161022020771B
:101310002068806910F4407F204602D0FFF7CAFFA2
:1013200004E000F0B5F8204600F077F92577206852
:101330000169C943090716D4C168C943090712D412
:101340006FF008010161042020772068C0698007E0
:10135000204602D0FFF7AEFF04E000F099F82046E7
:1013600000F05BF9257720680169C943C90617D4E5
:10137000C168C943C90613D46FF010010161082088
:1013800020772068C06910F4407F204602D0FFF724
:1013900091FF04E000F07CF8204600F03EF925774C
:1013A00020680169C943C90708D1C168C943C90791
:1013B00004D1891E0161204600F09CF92068016972
:1013C000C943090609D4C168C943090605D46FF0A9
:1013D000800101612046FFF732FE20680169C943A0
:1013E000C90509D4C168C943090605D46FF48071E1
:1013F00001612046FFF722FE20680169C9434906C2
:1014000009D4C168C943490605D46FF040010161A0
:10141000204600F0ADF920680169C94389060BD464
:10142000C168C943890607D46FF0200101612046D5
:10143000BDE87040FFF704BE70BD000010B586B077
:10144000044614216846FEF703FF0F4920688842CE
:1014500018D10E48416941F4003141614069694643
:1014600000F4003005904FF4E060009002200190FD
:101470000020029003200390062004904FF090403B
:10148000FEF728FF06B010BD002C014000100240FE
:10149000704770B5044690F83C0000260D460128C0
:1014A0000BD0012084F83C000C2A4AD007DC82B122
:1014B000042A20D0082A06D131E0022070BD102A6B
:1014C00053D0142A63D00126002084F83C00304613
:1014D00070BD206800F03CFC2068816941F0080183
:1014E00081612068816921F004018161206881693E
:1014F0002A69114311E0206800F06EFC20688169C0
:1015000041F4006181612068816921F48061816119
:10151000206881692A6941EA02218161D4E7206853
:1015200000F09AFC2068C16941F00801C16120689F
:10153000C16921F00401C1612068C1692A691143B0
:1015400011E0206800F0C8FC2068C16941F4006126
:10155000C1612068C16921F48061C1612068C169ED
:101560002A6941EA0221C161AEE7206800F0EAFC85
:101570002068416D41F0080141652068416D21F00E
:10158000040141652068416D2A69114311E020681A
:1015900000F00AFD2068416D41F40061416520685A
:1015A000416D21F4806141652068416D2A6941EAFD
:1015B0000221416588E710B5040003D094F83D008E
:1015C00010B107E0012010BD002084F83C00204647
:1015D00000F022F8022084F83D00211D206800F070
:1015E0005BFB012084F8480084F83E0084F83F004B
:1015F00084F8400084F8410084F8420084F84300F5
:1016000084F8440084F8450084F8460084F84700D4
:1016100084F83D00002010BD7047704710B50446A7
:10162000022269B1042912D0082917D00C291CD034
:10163000102921D094F84300012824D0012010BDA6
:1016400094F83E000128F9D184F83E201DE094F87A
:101650003F000128F2D184F83F2016E094F84000C2
:101660000128EBD184F840200FE094F841000128D4
:10167000E4D184F8412008E094F842000128DDD14B
:1016800084F8422001E084F843200122206800F021
:101690003FFB13492068134A884207D0904205D087
:1016A000114B984202D0114B984203D1436C43F442
:1016B000004343642068884204D0B0F1804F01D0D9
:1016C000904207D181680A4A1140062906D0B1F537
:1016D000803F03D0016841F001010160002010BD8E
:1016E000002C0140004001400044014000480140FE
:1016F000070001001B4910B5194891ED000A00F0E0
:10170000AFF9194A1649002092ED030AF7EE000AD4
:1017100001EB8002F8EE401A92ED001A401C0328FB
:1017200030EEC11A21EE211A82ED001AF0DB91EDA4
:10173000000A0E4ABCEEC00A10EE100A106091EDCD
:10174000010A121DBCEEC00A10EE100A106091EDE5
:10175000020A111DBCEEC00A10EE100A086010BD8E
:10176000280000200000002034000020342C01401C
:10177000704710B5040002D0A06F10B107E001203F
:1017800010BD002084F87400204600F025F82420C5
:10179000A0672068016821F001010160204600F087
:1017A000EDFC0128ECD0606A10B1204600F053FC3B
:1017B0002068416821F4904141602068816821F0EF
:1017C0002A0181602068016841F001010160204622
:1017D000BDE8104000F0A3BC10B586B0044614214B
:1017E0006846FEF735FD1349206888421FD112482C
:1017F000C16941F40031C161C16901F40031059151
:10180000416941F4003141614069694600F40030AA
:1018100005900C20009002200190002002900320EF
:101820000390072004904FF09040FEF753FD06B060
:1018300010BD00000044004000100240FEE770B5FB
:101840000C460546FEF756FE08B1002070BD214645
:101850002846FEF74FFE0028F9D0012070BD000099
:101860002DE9F04387B014216846FEF7F1FC2848C3
:10187000416941F400214161416901F40021059170
:10188000416941F480014161416901F480010591A0
:10189000416941F400314161416901F40031059130
:1018A000416941F4802141614069DFF8688000F4BA
:1018B00080204FF400550590002229464046FEF74F
:1018C00026FEDFF854904FF4E05600223146484699
:1018D000FEF71DFE0024CDE90054694648460294F7
:1018E000FEF7F8FC00950327012502200397CDE9B8
:1018F000015069464046FEF7EDFC03970096CDE99E
:10190000015469464846FEF7E5FC07B0BDE8F083A0
:1019100000100240000400480008004830B599B0AB
:1019200000241794189415941694129413941C215F
:1019300068461494FEF78CFC2C2107A8FEF788FC5F
:1019400033483249202501600221C0E9011540F2E7
:10195000AF41C0E9031444618461FFF7EBFB08B1B8
:10196000FEF7A4FC4FF48050159015A92848FFF706
:1019700031FC08B1FEF79AFC2548FFF71CFE08B1C0
:10198000FEF794FCCDE9125412A921481494FFF7F4
:101990009BFB08B1FEF78AFC6020CDE900040294AD
:1019A0000394049405940022694619480694FFF7AD
:1019B00070FD08B1FEF77AFC042269461448FFF76F
:1019C00068FD08B1FEF772FC082269461048FFF76F
:1019D00060FD08B1FEF76AFC0794089409944FF47F
:1019E00000500A94CDE90B400003CDE90E400D9460
:1019F000109407A906481194FFF724FB08B1FEF7DD
:101A000055FC0348FFF71AFD19B030BD002C01400A
:101A1000340000200D4810B50B4901604FF4E1314E
:101A20004160002181600C22C160C0E90412816123
:101A3000C16101624162FFF79CFE002803D0BDE84E
:101A40001040FEF733BC10BD004400408000002071
:101A5000FEE7FEE701490120087270471C000020E4
:101A600070B5554C05462DED068B94ED011A534982
:101A700070EE410A10EE900A884202DD9FED500A96
:101A800006E010EE900A4F49884203D99FED4E0AB6
:101A900031EE000A84ED010ADFED4C0A4C4960EE9C
:101AA000208A18EE900A9FED4B0ADFED4B0A884220
:101AB00002DDF0EE408A06E0F5EEC08AF1EE10FAA3
:101AC00001D2F0EE608A4548F2EE081AF7EE009A6D
:101AD00090ED001A31EEC12AC2EE001A9FED400AC5
:101AE00001EEA81A21EE008A18EE100AB0F17E5F0E
:101AF00002DDB0EE698A06E0B5EEC08AF1EE10FABA
:101B000001D2B0EE608A2C49207A9FED36AA91ED81
:101B1000009A10B10020207209E09FED330A29EEEF
:101B2000000A00F0FDFCF0EE490A40EE4A0AB5EE6C
:101B3000C09AF1EE10FA04D319EE100A2B4988422C
:101B400001DBC4ED000A94ED000A00F041FC20EE38
:101B5000089A94ED000A00F01BFD60EE080A39EEC9
:101B6000290AB6EE001ADFED221A20EE010A85EDF1
:101B7000000ABEEE000A29EE000AB0EE402A00EE8E
:101B8000E10A00EEA12A68EE8A0A30EE290A32EE56
:101B9000292A20EE010A22EE012A9FED161A85ED70
:101BA000012A85ED020A94ED000A00EE810A84ED17
:101BB000000ABDEC068B70BD1C000020CDCCCC3CD7
:101BC000CDCCCC3CCDCCCCBCCDCCCCBCEFEEEE3D2A
:101BD00000E0B64400E0B64400000000040000202D
:101BE000ABAAAA3DDB0FC94083F9223EDB0FC940F7
:101BF000D7B35D3F17B7513870477047FEF792BCB7
:101C000030B59DB028216846FEF722FB142117A8A5
:101C1000FEF71EFB34210AA8FEF71AFB0121080477
:101C2000CDE900100024029402250491CDE907506B
:101C30004FF4E01009906846FEF708FF08B172B64D
:101C4000FEE70F20CDE917054FF48060CDE919407C
:101C5000022117A81B94FEF7EFFD08B172B6FEE74C
:101C60004FF480500A9012940AA8FEF7EBFC00286B
:101C700001D072B6FEE71DB030BD00000248016819
:101C800041F470010160704788ED00E00148FFF702
:101C900012BB000034000020F0B50268184B4FF072
:101CA0008047984201D0B84203D122F070044A68BC
:101CB0002243144C144D154E984207D0B84205D01B
:101CC000A04203D0A84201D0B04203D122F4407711
:101CD000CA683A434F6922F080023A4302608A6838
:101CE000C2620A688262984205D0A04203D0A8422C
:101CF00001D0B04201D10969016301214161F0BD08
:101D0000002C0140004001400044014000480140D7
:101D100010B501F01F030121046A99408C4304624D
:101D2000016A9A401143016210BD10B5846842EA0D
:101D3000032224F47F440A432243826010BD826858
:101D400022F070020A4342F00701816070470000F0
:101D5000F0B5026A22F001020262056A43688269F4
:101D6000184C25F0020522400C6822F003021443AF
:101D70008A68164E2A43144D154FDFF858C0A84202
:101D800005D0B04203D0B84201D0604506D122F060
:101D9000080ECA6842EA0E0222F00402A84205D0E8
:101DA000B04203D0B84201D0604505D14D6923F45B
:101DB00040731D438B692B434360846149684163D1
:101DC0000262F0BD8FFFFEFF002C01400040014089
:101DD000004401400048014030B5026A22F0100280
:101DE0000262046A42688369164D2B400D6823F431
:101DF000407343EA052524F020038C6843EA04136A
:101E0000114CA04207D1CC6823F0800343EA0413AD
:101E100023F0400308E00D4CA04205D00C4CA0423A
:101E200002D00C4CA04207D14C6922F4406242EA35
:101E300084028C6942EA8402426085614968816358
:101E4000036230BDFF8FFFFE002C014000400140C7
:101E5000004401400048014030B5026A22F480721B
:101E60000262046A4268C369164D2B400D6823F074
:101E700003031D4324F400738C6843EA0423124CCB
:101E8000A04207D1CC6823F4006343EA042323F47F
:101E9000806308E00D4CA04205D00D4CA04202D05A
:101EA0000C4CA04207D14C6922F4405242EA041281
:101EB0008C6942EA04124260C5614968C1630362E9
:101EC00030BD00008FFFFEFF002C014000400140AC
:101ED000004401400048014030B5026A22F48052BB
:101EE0000262046A4268C369114D24F400542B4015
:101EF0000D6823F4407343EA05238D6844EA0534F2
:101F00000C4DA84208D00C4DA84205D00B4DA8425C
:101F100002D00B4DA84204D14D6922F4804242EA1E
:101F200085124260C36149680164046230BD0000EB
:101F3000FF8FFFFE002C01400040014000440140A3
:101F40000048014030B5026A22F480320262046A1D
:101F50004268436D0F4D2B400D681D4324F4003340
:101F60000C8943EA04430C4CA04208D00B4CA0421D
:101F700005D00B4CA04202D00A4CA04204D14C69BF
:101F800022F4803242EA0422426045654968816554
:101F9000036230BD8FFFFEFF002C01400040014076
:101FA000004401400048014030B5026A22F480122A
:101FB0000262046A4268436D104D24F400142B4001
:101FC0000D6843EA05230D8944EA05540C4DA842E7
:101FD00008D00C4DA84205D00B4DA84202D00B4DA5
:101FE000A84204D14D6922F4802242EA852242604F
:101FF00043654968C165046230BD0000FF8FFFFE84
:10200000002C0140004001400044014000480140D4
:1020100010B5036A046A24F001040462846924F0A0
:10202000F00444EA021423F00A020A4384610262C3
:1020300010BD10B5036A23F0100303628369046ABC
:1020400023F4704343EA023224F0A00343EA01116F
:102050008261016210BD90F82410C90706D00168A2
:102060004A68836A22F400321A434A6090F82410C6
:10207000890706D501684A68C36A22F480321A4388
:102080004A6090F82410490706D501684A68036B36
:1020900022F480221A434A6090F82410090706D5DA
:1020A00001684A68436B22F400421A434A6090F880
:1020B0002410C90606D501688A68836B22F4805211
:1020C0001A438A6090F82410890606D501688A6848
:1020D000C36B22F400521A438A6090F82410490618
:1020E00011D501684A68036C22F480121A434A60D1
:1020F000016CB1F5801F06D101684A68436C22F477
:10210000C0021A434A6090F82410090606D50168F7
:102110004A68806C22F4002202434A607047F8B596
:1021200000260446C0F88060FEF7F6F905462068F0
:1021300000686FF07E47000708D52B4600224FF459
:1021400000112046009700F0BBF860B920680068D5
:1021500040070AD52B4600224FF480012046009705
:1021600000F0AEF808B10320F8BD2020A067E067BA
:10217000266684F874600020F8BD000070B504463F
:1021800080682169E269084361690025114322687A
:1021900008431168444B19400143116020684168AD
:1021A000E26821F4405111434160A169206A08436B
:1021B00021688A6822F4306202438A603B492068C1
:1021C000884210D13A48006B10F0030011D001286A
:1021D00005D0022805D003280DD102210CE00421EE
:1021E0000AE0082108E03349884202D03249884297
:1021F00001D1002100E01021E3694FF400422F4893
:102200004FF6EF76934227D1092941D2DFE801F05A
:1022100005080E400B4040402200FEF7B1FB04E0F1
:10222000FEF7C6FB01E0FEF7DBFB90B34100606800
:1022300001EB5001B1FBF0F080B2A0F11001B1420E
:1022400026D84FF6F0710140C0F3420001432068E8
:10225000C16023E01046E9E7092919D2DFE801F05F
:1022600005080E180B1818181A00FEF789FB04E071
:10227000FEF79EFB01E0FEF7B3FB50B1616800EB97
:102280005100B0FBF1F080B2A0F11001B14203D9CE
:10229000012503E01046F1E72168C8600020606670
:1022A000A066284670BD0000F369FFEF00380140CA
:1022B00000100240004400400048004000127A0034
:1022C0002DE9F0479A4617460E4604464FF000099E
:1022D0004FF02008089D4AE0681C48D0FEF71CF922
:1022E000A0EB0A00A8422AD84DB32068016849072C
:1022F0003DD5C069C043000539D421684FF4006062
:102300000862206850E8001F21F4D07140E80012F4
:10231000002AF6D12068083050E8001F21F00101A2
:1023200040E80012002AF5D1C4F87880C4F87C8017
:10233000C4F8808084F874900320BDE8F087216899
:1023400051E8000F20F4D07041E80002002AF6D1D5
:102350002068083050E8001F21F0010140E8001219
:10236000002AF5D1C4F87880C4F87C80E2E72068C0
:10237000C06936EA000004D00020B842ACD000208A
:10238000DBE70120F9E7FEE74100080218BF04205F
:102390000A0E18BF40F001004FF07F4232EA0101FF
:1023A00008BF40F00200012808BF05207047090758
:1023B000090E002804DB00F1E02080F800147047CB
:1023C00000F00F0000F1E02080F8141D70470000BD
:1023D00010EE101A08B5444A6846B2EB410F28D9EE
:1023E0004FF0E640B0EB410F94BF00204FF0FF30BC
:1023F00000900098002861DB60EE000A10F0010FE9
:1024000045D010F0020FDFED391A9FED391A00EEBA
:10241000E11ADFED381A40EE811A21EEA01AF0EE33
:10242000400A40EE010A08BFF1EE600AB0EE600A11
:1024300008BD314B21F0004293423CD911F0004FCE
:10244000DFED2E0A20EE201ADFED2D0A19BF31EE46
:10245000601A71EE200A31EE201A71EE600ABDEEAC
:10246000E01A11EE100A9FED271A00F0030000EEAB
:10247000C10A9FED251A009000EEC10A9FED231AB4
:1024800000EEC10A9FED221A00EEC10AB1E79FEDEE
:10249000211A9FED210A10F0020F00EE810A9FED34
:1024A0001F1A00EE801AB7EE000A00EE810A18BF6C
:1024B000B1EE400A08BD00F047F99AE710EE100AA5
:1024C0004000B0F17F4F3CBFB7EE000A08BD07D116
:1024D0004FF0010000F0F2F9BDE8084000F024B927
:1024E000BDE8084000F01CB9B61F927E336D4C3930
:1024F000DA82083CA0AA2ABE490E494683F9223F47
:102500000000004B0000C93F00A0FD390020A233AD
:102510001A61342CB93AB2BACA9F2A3DDDFFFFBE18
:1025200010EE100AC0F3C7517F391729A8BF7047B2
:10253000DFED140A002970EE200A0DDAF5EEC00A6C
:10254000F1EE10FA1ADD0028A8BF002016DAB0F16B
:10255000004F18BF0C4811E00C4ACA40104208BF97
:102560007047F5EEC00AF1EE10FA07DD002804DA34
:102570004FF4000323FA01F10844904300EE100ADF
:1025800070470000CAF24971000080BFFFFF7F0062
:1025900000B510EE101A2DED028B81B0524A68463C
:1025A000B2EB410F2ED94FF0E640B0EB410F94BF94
:1025B00000204FF0FF3000900098B0EE408A0028D5
:1025C0006ADB10F0010F4BD068EE080A9FED471A46
:1025D0009FED470A00EE810A9FED461A10F0020FA8
:1025E00000EE801AB7EE000A00EE810A02BF01B0C9
:1025F000BDEC028B00BD00BF01B0B1EE400ABDECE6
:10260000028B00BD3C4B21F00042934241D911F0B6
:10261000004FDFED3A0A20EE201ADFED390A19BF2C
:1026200031EE601A71EE200A31EE201A71EE600A66
:10263000BDEEE01A11EE100A9FED321A00F0030011
:1026400000EEC10A9FED301A009000EEC10A9FED26
:102650002F1A00EEC10A9FED2E1A00EEC10AABE759
:1026600028EE080A9FED2B1ADFED2B0A10F0020F5F
:1026700040EE410A9FED291A00EE201A61EE000A91
:10268000B0EE480A08EE200AB6D101B0BDEC028BCC
:1026900000BD00F059F88FE718EE100A4000B0F1C5
:1026A0007F4F0DD218EE100AFFF76EFE042808BF08
:1026B00000F042F8B0EE480A01B0BDEC028B00BD5C
:1026C00009D1012000F0FAF801B0BDEC028B5DF8F1
:1026D00004EB00F029B801B0B0EE480ABDEC028B63
:1026E0005DF804EB00F01CB8B61F927EB93AB2BA9E
:1026F000CA9F2A3DDDFFFFBE490E494683F9223FAE
:102700000000004B0000C93F00A0FD390020A233AB
:102710001A61342C336D4C39DA82083CA0AA2ABEE7
:1027200030EE000A70470000DFED020A80EEA00ADA
:1027300070470000000000009FED020A20EE000A32
:1027400070470000000000102DE9F0014FF07F42BB
:10275000B2EB410F9FBF4FF0FF310160BDE8F001C8
:1027600070474FF0004242EA0123C1F3C752783A62
:10277000551112F01F0C434CCCF120067C44C1F3E0
:10278000C752A2F178024FEA621204EB820254F8B7
:10279000254008BFD2E9015612D0556804FA0CF45E
:1027A00025FA06F73C43976805FA0CF527FA06F870
:1027B000D26807FA0CFCF24045EA08054CEA02062A
:1027C000A4FB034CA5FB0352A6FB03631D449D42DF
:1027D00034BF012600261319334416B1934202D99F
:1027E00003E0934201D2012200E00022624402F1A0
:1027F000200C9206DC0C42EA443200EE102A5B0305
:10280000DFED210AF8EEC01A00EE103A4FEA9C1CE8
:1028100011F0004FB8EE400AC0F800C020EE201AB8
:1028200000EE105ADFED190AB8EE400A20EE200A39
:1028300071EE810A70EE800A10EE902A02F50062B5
:102840006FF30B0200EE902A70EEE11A31EEC11A1E
:10285000DFED101A30EE411A9FED0D0A20EE800ACE
:1028600001EE210A9FED0C1A00EE810A04BFBDE8BB
:10287000F0017047CCF180510160BDE8F001B1EE8C
:10288000400A70474C020000000000360000802C17
:1028900022AAFD29DB0FC92F0000C92F02E008C8BA
:1028A000121F08C1002AFAD170477047002001E0CA
:1028B00001C1121F002AFBD17047000001490860C6
:1028C00070470000180000200024FDF733FEFFF7DA
:1028D00097F9FEF7C5FFFFF721F8FFF79BF8FFF721
:1028E000B9F8254EDFF8948032274FF40055294679
:1028F0003046FEF7A4FF01282CD101224FF4E0510D
:102900003046FDF704FE00211D48FEF787FE042136
:102910001B48FEF783FE08211948FEF77FFE184882
:102920000168CA6842F00102CA6000686FF00101E4
:10293000016198ED000ADFED130A134A30EE200A18
:1029400010EE100A88ED000A904203DB9FED0F0A9B
:1029500088ED000A0120FDF7ABFC641CE4B2B4FB77
:10296000F7F007FB10400028C1D100242946084891
:10297000FDF7C5FDBBE7000000080048000000208F
:10298000340000200000FA4300803B4600803B46B4
:102990000004004802030405060708090A0B0C0D91
:1029A0000E0F10100102030405060708090A0B0C9C
:1029B0000D0E0F10000000000000000001020304D3
:1029C00006070809000000000102030400000000DF
:1029D0006E83F9A22915444ED15727FCC0DD34F58A
:1029E000999562DB4190433CAB6351FE0C2A000891
:1029F000000000201C0000009C280008282A000875
:102A00001C000020EC040000AC28000800000000BE
:102A10000000803F010000001000000000000000E6
:082A200000127A000000000022
:040000050800018965
:00000001FF
