:020000040800F2
:10000000A8090020550200085D0200085F020008F0
:100010006102000863020008650200080000000099
:10002000000000000000000000000000670200085F
:1000300069020008000000006B020008512E000851
:100040006F0200086F0200086F0200086F020008CC
:100050006F0200086F0200086F0200086F020008BC
:100060006F0200086F0200086F0200086F020008AC
:100070006F0200086F0200086F0200086F0200089C
:100080006F020008711F00086F0200086F0200086D
:100090006F0200086F0200086F0200086F0200087C
:1000A0006F0200086F0200086F0200086F0200086C
:1000B0006F0200086F0200086F0200086F0200085C
:1000C0006F0200086F0200086F0200086F0200084C
:1000D0006F0200086F020008D93400086F020008A0
:1000E0006F0200086F0200086F0200086F0200082C
:1000F0006F0200086F0200086F0200086F0200081C
:100100006F0200086F0200086F0200086F0200080B
:100110006F0200086F0200086F0200086F020008FB
:100120006F0200086F0200086F0200086F020008EB
:100130006F0200086F0200086F0200086F020008DB
:100140006F0200086F0200086F0200086F020008CB
:100150006F0200086F0200086F0200086F020008BB
:100160006F0200086F0200086F0200086F020008AB
:100170006F0200086F0200086F0200086F0200089B
:100180006F0200086F02000800F002F800F052F859
:100190000AA090E8000C82448344AAF10107DA45E2
:1001A00001D100F047F8AFF2090EBAE80F0013F0E2
:1001B000010F18BFFB1A43F00103184758670000EE
:1001C00078670000103A24BF78C878C1FAD852077F
:1001D00024BF30C830C144BF04680C6070470000C1
:1001E0000023002400250026103A28BF78C1FBD840
:1001F000520728BF30C148BF0B607047662906F020
:10020000DC80642900F06A80002070471FB506F08A
:10021000CAF800F065FC04000020002105F088FA0F
:10022000401C60600020002105F06CFAE0601FBDFA
:1002300010B510BD00F080FD1146FFF7E7FF04F098
:1002400011FF00F0F9FF03B4FFF7F2FF03BC04F065
:10025000A9F900000948804709480047FEE7FEE782
:10026000FEE7FEE7FEE7FEE7FEE7FEE7FEE7FEE766
:1002700004480549054A064B70470000612E0008F6
:1002800089010008A8030020A8090020A805002073
:10029000A8050020704700000FB4044910B503AA58
:1002A000029800F093FB10BC5DF814FB1C000020CA
:1002B0000FB41CB5084B06AA7B446946009005980C
:1002C00000F06BFB04460020694600F079FB2046F5
:1002D0001CBC5DF814FB0000050700002DE9F0418F
:1002E0000646002410687529314616A510D0AFF3D4
:1002F0000080002802DA404213A507E031688A072F
:1003000001D512A502E0490704D511A5012401E099
:10031000AFF3008000210A2206F1240709E0B0FBB8
:10032000F2FCB0FBF2F302FB1C00303078541846AC
:10033000491C0028F3D123462A463046BDE8F04147
:1003400000F0C0B8000000002D0000002B000000ED
:10035000200000002DE9F0474FF0000A89460446CE
:10036000C0F820A02046E1688847002876D02528DC
:1003700006D0D4E901219047206A401C2062F1E7B1
:10038000E168204600258847C4F81CA006460027DF
:10039000C4F818A02A2E09D0304603F0BCFF38B3A9
:1003A00004EB8708303EC8F8186019E059F8041BC0
:1003B000204604EB87029161E1688847012F0646D9
:1003C00018D1E069002820DA25F020051DE0D8F8D2
:1003D000180000EB800006EB40003038C8F8180029
:1003E0002046E1688847064603F095FF0028EED1D5
:1003F000012F0AD02E2E08D12046E16888477F1CA5
:100400000646022F45F02005C4DBA069002803DA68
:10041000404245F00105A061E80701D025F0100534
:10042000B6B1A6F14100192802D8203645F400657E
:100430004A463146204625604D46FFF7DFFE58B15B
:10044000012806D0ED1D25F0070000F1080989E715
:1004500004E005F1040985E730468AE7206ABDE833
:10046000F0874FF000020429C0F0128010F0030C56
:1004700000F01083CCF1040CBCF1020F18BF00F89F
:10048000012BA8BF20F8022BA1EB0C0100F002BB4E
:100490005FEAC17C24BF00F8012B00F8012B48BFA4
:1004A00000F8012B7047704770477047704710B5D0
:1004B00000F01AFB006810BD10B5044600F014FBF4
:1004C000046010BD2DE9F0470D469946924604465A
:1004D00000F124080168880604D5E06921F01001C4
:1004E000216000E00120A84201DD471B00E0002759
:1004F000A1697A1902EB0900081AA0612078C006E8
:1005000002D42046AFF30080002608E0D4E90121A0
:100510001AF806009047206A401C761C20624E455F
:10052000F4DB2078C0060AD52046AFF3008006E051
:10053000D4E9012130209047206A401C2062381EF7
:10054000A7F10107F4DC07E0D4E9012118F8050060
:100550009047206A401C2062281EA5F10105F3DCAB
:100560002046AFF300802078000602D50220BDE8C7
:10057000F0870120FBE770472DE9FF4F0C461E4630
:100580004FF0FF378BB0D2E90001DDF860800A90B0
:100590008A46C1F30A5505B93D46002108464FF089
:1005A0000000BAF1000F00F4400005DA00EB800013
:1005B0004FF4400101EA50004FEA9059B9F1010FA0
:1005C00000DDB9460A9850EA4A000ED044F61050B1
:1005D000A5F2FF3545432F14B8F1000F1ED0754228
:1005E000291E1EDDC9F100021CE0B8F1010F4FF019
:1005F000000001D0302103E0F24305E02154401C0B
:10060000B042FBDB30460022002121540B99C1F897
:100610000880C1E900200FB0BDE8F08FBD1B6D1C44
:10062000DEE74A4600DA694206A800F00FFB06AB97
:1006300093E8070003AB83E8070050460A9901F0EE
:1006400088F88DE80700A0F500501F380090039847
:10065000002D09DD42F21F014A46084403A9039018
:10066000684601F012FB08E0A0F500504A461F382A
:1006700003A90390684601F030FB8DE807000004F1
:10068000000C03D04FF0FF30410800E01046B8F1F5
:10069000000F03D00022009215461EE0751E05D4FF
:1006A00000F026FA303262556D1EF9D5B3460122AC
:1006B000084302D000227F1C04E02078302801D1BA
:1006C00000227F1E002A099786D01DE0112D07DA2F
:1006D00000F00EFA303262556D1C50EA0102F5D17D
:1006E000084302D00098C8B10EE00021681E05E062
:1006F000235C625C63542254401E491C8142F7DB38
:10070000AB46A81B401E0990002004F80B000B9874
:10071000099AC0F80880C0E9002B7CE711264FF049
:10072000000859E72DE9F04F88460446D21D22F013
:10073000070191B0D1E90001CDE90A0103F030F9D8
:1007400002460B98C00F01D02D2007E020688107DA
:1007500001D52B2002E0202101EAC000032A0990E4
:1007600001D0072A05DB03464146204600F00EFA79
:100770000BE12078800601D5E06900E00620B8F1A1
:10078000650F814606D0B8F1660F18D0B8F1670F33
:1007900070D131E00020B9F1110F009001DB11237D
:1007A00001E009F101030AAA01A90CA8FFF7E4FE80
:1007B000DDE90C70002609F10105834647E00120C0
:1007C0004B4600904FF000470AAA01A90CA8FFF77A
:1007D000D3FEDDE90DB00C995D46002610B909F194
:1007E00001000D18B9EB050003D4C0F1FF3609F183
:1007F0000105A5EB09002BE0B9F1010F01DA4FF07B
:1008000001090020B9F1110F0090484601DD1123C4
:1008100000E003460AAA01A90CA8FFF7ADFEDDE936
:100820000C704D4600268346207800070AD4AB455D
:1008300000DA5D4601A8012D04DD411911F8011C03
:10084000302907D04F4502DA17F1040F04DA0120EE
:1008500082460FE06D1EEEE7002F02DCED1B3E44EA
:1008600003E0781CA84200DD7D1CB81B00F1010AE2
:100870004FF000472078000703D4AA4501DB4FF072
:10088000FF3A0021B7F1004F0DF143088DF84310F6
:1008900024D002202B23002F01DA7F422D230A21AE
:1008A000021EA0F1010000DC5FB197FBF1FC97FB99
:1008B000F1F201FB1C7C17460CF1300C08F801CD5D
:1008C000EEE7A8F1010003702188090501D5452153
:1008D00000E06521A0F1010800F8011C09980FA9AA
:1008E000A1EB0807FF1D00B10120411901EBEA70DF
:1008F000A1693844081A401EA0612078C00602D4BD
:100900002046AFF30080099828B1D4E9012190472F
:10091000206A401C20622078C00622D52046AFF312
:1009200000801EE0002E04DBB34502DD01A8805DDF
:1009300000E03020D4E901219047206A401C206269
:10094000761CAAF101005FEA000A0AD100F0C8F89B
:10095000C0680168405CD4E901219047206A401CCE
:100960002062281EA5F10105DCDC07E0D4E90121A5
:1009700018F8010B9047206A401C2062381EA7F12E
:100980000107F3DC2046AFF30080032011B043E6FB
:1009900001694A1C02610878704700B58FB0CDE943
:1009A00001310021059105497944CDE90310114633
:1009B0006846FFF7CFFC0FB000BD0000E5FFFFFF6A
:1009C0000A6802F8010B0A6070470000074B70B517
:1009D0000D467B44FFF7E1FF0446284600F0A4F9EA
:1009E00010B14FF0FF3070BD204670BDAB4300002A
:1009F0000FB4002300B589B00CA900910B99CB600E
:100A0000204B7B440693204B7B44079304236FF0D9
:100A10000042CDE901321D4A7A446B4608920246F3
:100A2000002005F02CFD09B05DF814FB70B50646FA
:100A30004FF0FF3015460C46324686B00091CDE9A6
:100A4000010169460020049004A8FFF7D1FF034686
:100A50000498211825B108B10A4600E022462A6010
:100A600000280DD0002B02DD0098884208D03246C5
:100A7000081B69460094CDE9010404A8FFF7B8FFFC
:100A800006B070BD070200001F0200005F010000F9
:100A90004FF0000200B5134694469646203922BF17
:100AA000A0E80C50A0E80C50B1F12001BFF4F7AF62
:100AB000090728BFA0E80C5048BF0CC05DF804EB44
:100AC000890028BF40F8042B08BF704748BF20F8B2
:100AD000022B11F0804F18BF00F8012B7047000067
:100AE0000048704768030020004870474803002012
:100AF00030B5B0F10A024FEA900E71F100034EEAF0
:100B0000817EB0EB0E0061EB91014FEA101E4EEAC0
:100B1000017E10EB0E0041EB11114FEA102E4EEA50
:100B2000016E10EB0E0041EB11214FEA104E4EEA20
:100B3000014E10EB0E0041EB1141401841F1000154
:100B40004FEAD00040EA41704FEAD10110EB800536
:100B50004FEA810444EA907444EB01046D1944EBBC
:100B60000404521BA3414FF0000348BF0A3200D5D2
:100B700030BD401C41F1000130BD10B5044600F00D
:100B800001F90068005D00F0010010BD2DE9F041A1
:100B90001F46044603260168072A01F4006004DBAF
:100BA00008B116A505E016A503E008B115A500E0FB
:100BB00015A521F010002060A069C01EA0610FB132
:100BC000401EA0612046AFF300804FB1D4E901215F
:100BD00038469047206A401C2062C01C206206E014
:100BE000206AFAE7D4E9012115F8010B9047761E37
:100BF000F8D22046AFF30080BDE8F0814E414E00B0
:100C00006E616E00494E4600696E6600426842B1F0
:100C1000016811F8013B23B1521EC0E900121846C9
:100C200070470121C160881E704742685AB1C3688D
:100C3000016843B983688B4205D0491E521CC0E944
:100C40000012002070474FF0FF3070472DE9F04749
:100C5000814616468AB0334878440DC88DE80D00A9
:100C600030487844801C03AC0DC884E80D0041F680
:100C70009B300844372190FBF1F290FBF1F5A5F190
:100C8000800501FB12041B3C02D56442012000E0F8
:100C90000020DFF890A080460027FA44AAF1BE0A9F
:100CA0000DE0E00709D03246684607EB47010AEB42
:100CB000810101F012F88DE8070064107F1C002C00
:100CC000EFD1184F7F44AC3F18E0E80714D007EB92
:100CD00004100DF1180A90E80E008AE80E00C068B2
:100CE000F04201D198190890324606A903A800F0F5
:100CF000F4FF03AB83E807006D10641C002DE4D102
:100D000032466946B8F1000F03A802D000F0BDFFDB
:100D100001E000F0E2FFC9E90001C9F808200AB0CB
:100D2000BDE8F087A05C0000007B00F08000704709
:100D300000487047480300207546FFF7F9FFAE46AC
:100D400005006946534620F00700854618B020B5D7
:100D5000FFF78EFABDE820404FF000064FF0000785
:100D60004FF000084FF0000B21F00701AC46ACE853
:100D7000C009ACE8C009ACE8C009ACE8C0098D46C0
:100D80007047000010B5FFF7ABFE001D10BD00BF9F
:100D9000A14900002DE9FF4F064689B00878FF28D9
:100DA00006D0491C2D2805D000244FF0000908E08A
:100DB00000200CE00124F8E709EB8903491C00EB53
:100DC00043090878FF28F7D114B1C9F10000814622
:100DD000107800252C46AA4629462D2801D02B281C
:100DE00004D1521C2D2813D0002082468B46107847
:100DF000FF280FD04FF0000C0A21521CA5FB0178F0
:100E000004FB018105FB0C11C5194BEB0104EEE756
:100E10000120EAE7002108464FF00000BAF1000F78
:100E200002D000EB80004008C0F38158B8F1010FF8
:100E300001DD4FF0FF380C9809EB000755EA04007C
:100E400009D04FF0020917F5FA7F0BDA4FEACA70A2
:100E5000C6E900B012E04FEACA70C6E900B00DB0B2
:100E6000BDE8F08FB7F5FA7F0DDDF0487844D0E9A2
:100E70000010C6E9001040EACA707060FFF734FE47
:100E8000C0F80090EBE7391E02DAC8F1000200E07A
:100E9000424600DA794206A8FFF7D8FE06AB93E88F
:100EA000070003AB83E8070044F23E005BEA04015D
:100EB0000090584604D144F21E012C465D46009134
:100EC000210C0904014306D10099240444EA154485
:100ED0002D041039009104F07F41014306D100999F
:100EE000240244EA15642D020839009104F070418F
:100EF000014306D10099240144EA15742D01091F0C
:100F0000009104F04041014306D10099A40044EA55
:100F10009574AD00891E009104F00041084304D18E
:100F200000986D196441401E009042466846002FAB
:100F3000CDE9014503A902DD00F0E3FE01E000F088
:100F4000B8FEBAF1000F04460D4601D084F000440B
:100F500040F2FF7724F00040284303D0C4F30A5046
:100F6000B84212D1FFF7C0FDC0F80090C4F30A5098
:100F7000B8420AD1AE487844D0E90010C6E9001062
:100F800004F000410843706069E7C6E9005466E771
:100F90002DE9FF4F1F464FF0000A4FF0FF3845463E
:100FA00091B0D7E90146CDF83CA0FFF799FDC068A4
:100FB0000168405C1090B96912986D1C8847396AC5
:100FC000814688470028F6D1B9F1FF3F0AD0002EAC
:100FD00024F4D06411DDB9F12B0F08D0B9F12D0F35
:100FE0000BD102E0404615B03AE744F48064B96999
:100FF00012986D1C8847761E8146600504A901D5AC
:101000002D2000E02B20002E01F1010B0DF1300806
:101010008DF810003FDDB9F1690F08D0B9F1490F23
:1010200005D0B9F16E0F02D0B9F14E0F1CD13B467D
:1010300001A8009580E85002DDE912126FF002006D
:1010400005F021FAC11CCED10EE0B96912986D1CD1
:10105000884781461398761E44F4007405600F9803
:10106000401C002E0F9016DDB9F1300FEDD0B9F114
:10107000780F02D0B9F1580F0DD10F9801280AD17D
:101080003B46CDE90054DDE91212001F029605F03F
:10109000F8F9C11CA7D1109989453ED144F08004CC
:1010A00006E01399681CAAF1010A44F40074086070
:1010B000B9696D1C1298761E884730288146F0D099
:1010C0002BE01099894505D1200603D4761E44F003
:1010D000800418E0484603F01EF908B3761E0DF1AF
:1010E00023018B4544F4007408D2A9F130000BF8B9
:1010F000010B200607D5AAF1010003E0200602D467
:101100000AF101008246A00502D51399681C086007
:10111000B96912986D1C88478146002ED1DC53E0D6
:10112000002E51DDB9F1650F02D0B9F1450F4BD159
:10113000A00549D5B9696D1C1298761E24F4407437
:101140008847002E81460CDD2B2804D0B9F12D0FE5
:1011500007D144F48074B96912986D1C8847761ED3
:101160008146E00501D52D2100E02B2108F8011B67
:10117000CDF8008021E0761E0DF13901884544F458
:1011800000740CD2A9F1300010F0FF0088F80000C4
:1011900002D10099884509D908F1010806E0E00567
:1011A00001D5244801E042F20F708246B9691298D5
:1011B0006D1C8847814613980560002E04DD484663
:1011C00003F0A9F80028D6D1F96912988847FF20C2
:1011D00053468BF8000088F8000000200A900B901E
:1011E00004AA0CA90AA8FFF7D5FDA00502D46FF048
:1011F0000100F8E614F0240F0AD0E00714D1386893
:10120000DDE90A12031D3B600068C0E900120BE033
:101210000AA9684603F010F8E00705D13868009A7B
:10122000011D3960006802602846DCE6C45A0000EF
:10123000BA590000F1D8FFFF0446AFF30080204602
:10124000FFF701F84FF0013C50F8042B51F8043B34
:101250009A4221D1A2EB0C03934313EACC1317D18A
:1012600050F8042B51F8043B9A4215D1A2EB0C0321
:10127000934313EACC130BD150F8042B51F8043BE1
:101280009A4209D1A2EB0C03934313EACC13DBD0AF
:101290004FF00000704700BFD01A01BAB1FA81F1D7
:1012A00001F0180122FA01F0CB40C1F12001DBB2BC
:1012B000C0B2C01A2CFA01F3D11A914311EAC3113A
:1012C000E6D170472DE9FF4F1F464FF03C0987B02C
:1012D0004FF00042DDE9141001F10108DDF858A0DB
:1012E00002EA4050039000200490834605460446DD
:1012F0000590B969461E08988847AAF1010A02902C
:10130000BAF1000F37DD02982E2815D0102100F019
:1013100012FA00282ADB4FF0010B0499014316D082
:10132000B9F1000F0BDB4A46C11700F0F1F9054394
:101330000C43A9F1040905E00120059007E008B17C
:1013400045F0010501200490059800B9361DB969E2
:10135000089808F101088847BBF1000FAAF1010ABB
:101360000290CDD00999C1F80080C9E70298702891
:1013700008D0502806D0F96908988847BBF1000FBB
:1013800014D04FE0002002900120BBF1000F049028
:1013900009D0B969089808F101088847AAF101093C
:1013A000B9F1000F07DCF969089888476FF0010070
:1013B0000BB0BDE8F08F2B2804D02D280CD14FF0B6
:1013C000FF300490B969089808F101088847A9F12D
:1013D0000109B9F1000FE6DD411CE4D00A2100F05B
:1013E000AAF90028DFDB029908F1010801EB81016D
:1013F00000EB41000290B969089888470A2100F083
:101400009AF9099AA9F10109B9F1000FC2F800800F
:1014100001DD0028E7DAF9690898884704990298FD
:1014200000FB016655EA040004D004F040410900C5
:1014300002D006E0039898E0A40044EA9574AD0059
:10144000B61E04F00041080002D16D196441761EF9
:10145000159810F0240F03D04FF00B095C4803E0FF
:101460004FF028096FF07D008246564507DAAAEB57
:1014700006018944B9F1410F01DD4FF04109012016
:101480000021A9F1010200F043F9024628400B4671
:101490002140084301D0012100E00021501E0291AB
:1014A00043F1FF3128402140084301D0012000E0F2
:1014B00000200299834651EA0B014FD000210846D3
:1014C0004FF00000039900F4400039B100EB8000B8
:1014D0004FF4400100EBD07001EA60008015012854
:1014E00002DD4FF0FF3000E013D0401C36D00298F0
:1014F00060B3BBF1000F0CD14A460120002100F07F
:1015000007F928402140084301D0012000E00020D5
:10151000E0B101204A46002100F0FAF803464019E4
:101520000A4661412D1A8C4111D3B9F1400F09DDF2
:10153000159810F0240F02D0AAF1340603E0AAF1A6
:10154000170600E0761C00254FF0004406E05B1E05
:1015500042F1FF3220EA030521EA0204CAF1010048
:10156000B04206DA1B49039808430190002000901E
:101570000EE0039AC4F3D321E80A0A43164940EA6D
:1015800044500A433146CDE90002684602F0B0FEFD
:10159000159810F0240F0BD01598C00715D1386896
:1015A000DDE90012031D3B600068C0E900120CE099
:1015B00002A8694602F040FE1598C00705D13868B8
:1015C000029A011D3960006802604046F0E60000A2
:1015D00002FCFFFF0000F07F0000F03F2DE9FF4F0D
:1015E00092461D4685B04FF00041DDE9124BDDE922
:1015F00014727F1E01EA4B50414940F0FF4940EA16
:101600000108002122F020004928049102D04E2830
:1016100028D04CE03BA0012607C88DE80700A96947
:101620000698641C88477F1E014606D41DF80600F4
:1016300018B121F0200181420BD0E9690698884752
:10164000032E34D0082E32D06FF0010009B0BDE86F
:10165000F08F761C032E01D0082EE0D1601CCAF852
:101660000000DCE7A9690698641C88477F1E2AD41D
:1016700020F02000412826D1A9690698641C8847DB
:101680007F1E20D420F020004E281CD1A969069886
:10169000641C88477F1E48F4002849F48009CAF872
:1016A000004001D4282806D0E969069888475FEAF7
:1016B000CB7012D022E0A9690698641C88477F1E6F
:1016C00001D4002803DAE96906988847BCE729288D
:1016D000F1D1641CCAF80040E9E71BF0240F07D0E1
:1016E00028680499031D2B600068C0E9001805E014
:1016F0002868021D2A600068C0F800902046A5E70F
:101700000000F07F494E46494E4954590000000000
:10171000B2F120030AD5C2F1200301FA02F120FA46
:1017200003F300FA02F041EA0301704700FA03F103
:101730004FF0000070473A2800D2303820F02002E5
:10174000412A01D3A2F13700884201D34FF0FF3084
:1017500070475FEA400C08BF91F0000F4FEA8C23FE
:101760004FEAC12243EA51514FEA1C5018BF00F51D
:10177000F0404FEA300018BF41F000415FEA6C5C76
:1017800000F02980BCF1FF3F08BF40F08040704767
:10179000130C06BF12044FF0100C4FF0000C130E88
:1017A00004BF12020CF1080C130F04BF12010CF15C
:1017B000040C930F04BF92000CF1020CD30F04BF72
:1017C00052000CF1010C11464FF00002A0F11F0075
:1017D000A0EB0C00704711F0004F08BF704731F0CC
:1017E00000413FF4D5AF0B0C06BF09044FF0100CBD
:1017F0004FF0000C0B0E04BF09020CF1080C0B0F8C
:1018000004BF09010CF1040C8B0F04BF89000CF11B
:10181000020CCB0F04BF49000CF1010CCCF12003EA
:10182000A0EB0C0022FA03F302FA0CF241EA0301E6
:1018300000F10100704720F07F4C80EA030023F0A4
:101840007F47ACEB070303F57C5300F0004003F146
:10185000FF032DE980494FEA154B09B44FEA1443C1
:1018600025EA0B4E24EA03480FF2042606EB132761
:1018700049083E785FEA320203FB0667C7F50007B6
:1018800007FB06F64FEA54374FEAD64606F1020642
:1018900007FB066CCCF1005C4FEA1C472CEA074CB6
:1018A00007FB06F40CFB06F504EB15464FEA96160B
:1018B00034BF00204FF000404FEAD13706FB07FC51
:1018C0004FEA1C4C0CFB0BF7D21B03FB0CF761EB34
:1018D00007010CFB0EF7B0EB074072EB17420CFB55
:1018E00008F734BFA2EB0742B2EB074261EB1741A6
:1018F0004FEA0C444FEA910706FB07FC4FEA1C4CE9
:101900000CFB0BF7B0EBC74072EB573203FB0CF745
:1019100034BFA2EBC742B2EBC74261EB57310CFBBD
:101920000EF7B0EBC70072EB57720CFB08F734BF31
:10193000A2EBC702B2EBC70261EB5771039F4FEAFC
:10194000816141EA921104EBCC044FEAD1374FEAAE
:10195000826206FB07FC42EA90124FEA80604FEA7F
:101960001C4C0CFB0BF7D21B03FB0CF761EB0701C4
:101970000CFB0EF7B0EB074072EB17420CFB08F7BD
:1019800034BFA2EB0742B2EB074261EB17414FEACB
:101990008C554FEA910704EB9C2406FB07FC4FEAA9
:1019A0001C4C0CFB0BF7B0EBC74072EB573203FB40
:1019B0000CF734BFA2EBC742B2EBC74261EB573121
:1019C0000CFB0EF7B0EBC70072EB57720CFB08F77D
:1019D00034BFA2EBC702B2EBC70261EB577115EB44
:1019E0004C254FEA816141EA92114FEA82624FEA47
:1019F000D13742EA901206FB07FC44F100044FEA9B
:101A000080604FEA1C4C0CFB0BF7D21B03FB0CF75E
:101A100061EB07010CFB0EF7B0EB074072EB1742CE
:101A20000CFB08F734BFA2EB0742B2EB074261EBB5
:101A3000174115EB1C154FEA813141EA92414FEAFB
:101A4000823242EA90424FEA80304FEA0C7644F10B
:101A5000000448EA03434EEA0B484FF0000EB2EB95
:101A6000080C71EB030724BF624639464EEB0E0E9D
:101A70004FF0000B0018524149414BEB0B0BB2EBFE
:101A8000080C71EB03077BF1000B24BF624639465B
:101A90004EEB0E0E4FF0000B0018524149414BEB3C
:101AA0000B0BB2EB080C71EB03077BF1000B24BFAF
:101AB000624639464EEB0E0E51EA020718BF46F059
:101AC000010616EB0E7655F1000254F1000103D524
:101AD000BDE88901BDE80088BDE88901BDE800488E
:101AE000B619524141EB0101A3F101037047808017
:101AF0007F7E7D7C7B7A7978777676757473727168
:101B000071706F6E6E6D6C6C6B6A6A69686867661F
:101B100066656464636362616160605F5F5E5E5DB1
:101B20005D5C5C5B5B5A5A59595858575756565525
:101B300055555454535352525251515050504F4F87
:101B40004F4E4E4D4D4D4C4C4C4B4B4B4A4A4A49D7
:101B5000494948484847474747464646454545441A
:101B600044444443434343424242424141410000D2
:101B700046EA0646A3F570534FEA164646EA425631
:101B80004FEAD22242EA415210B54FEAD121A3F1E5
:101B9000010300F017F820F0004000F1010C00F004
:101BA000004701EB00501146BCF5006F40EA07000A
:101BB00000D210BD02484FF0000140EA070010BDFE
:101BC0000000F07F002B26D4770021D01CB54FEA0F
:101BD000370703B44FF010004FF010014FF0000032
:101BE0000FBCBDE810400BF1010BBBF1010F08BFAA
:101BF0005FEA170722BF12F1010211F101014FF054
:101C0000004143F1000300F0004043EA0000704748
:101C1000F9D35708DAE746EA064613F1400F4FEAD0
:101C200016461FDD13F1200FDFBF16430A460021C1
:101C300020335B42C8D0C3F1200746EA064602FAC9
:101C400007F74FEA164646EA0706C3F1200722FACD
:101C500003F201FA07F721FA03F14FF0000342EA19
:101C60000702B1E746EA020646EA06464FEA16468A
:101C700046EA0106BCBF46EA0646360C4FF00003B2
:101C80004FF000024FF000019EE72DE9C048934657
:101C900030B491E8380007C831EA400C48BF34EA54
:101CA000430C03D5FFF7C7FDFFF78CFFF0BCBDE881
:101CB00000882DE9C048934630B491E8380007C841
:101CC00031EA400C48BF34EA430C03D5FFF7B3FDBB
:101CD000FFF74EFFF0BCBDE800882DE9C0489346F1
:101CE00030B491E8380007C810F0804F08BF13F0F7
:101CF000804F03D100F019F8FFF764FFF0BCBDE896
:101D000000882DE9C048934630B491E8380007C8F0
:101D100010F0804F08BF13F0804F03D100F005F89A
:101D2000FFF726FFF0BCBDE8008820F07F4780EA7F
:101D3000030023F07F4C07EB0C03A3F57C5300F06A
:101D40000040A3F1FE0392F0000F00F0B38095F085
:101D5000000F00F077802DE901494FEA11404FEA6A
:101D6000144621EA004800FB06FC24EA064708FB6B
:101D700006F607FB08F800FB07F718EB06484CEBE4
:101D8000164C4FEA124B18EB07484FEA15464CEB3E
:101D9000174022EA0B4E0BFB06FC25EA06470EFB1A
:101DA00006F607FB0EFE0BFB07F71EEB064E4CEB91
:101DB000164C4FF000061EEB074E4CEB174B18EB82
:101DC0000B0840F1000018EB0E0B58EB000840F137
:101DD00000008F1A4FF000013CBFC943661B14BFBF
:101DE000B5EB040C00213CBFC943F61B4FEA174476
:101DF0004EEA8E0E27EA04454FEA1C4704FB0762B1
:101E00002CEA074C05FB07F70CFB05F604FB0CFC62
:101E100016EB074642EB174216EB0C4642EB1C4210
:101E20001BEB060658EB0202414146EA9E0601D52D
:101E3000BDE80189B619524141EB0101A3F101034B
:101E4000BDE801894FEA14454FEA114724EA0546E7
:101E500021EA074C05FB07F406FB07F70CFB06F12C
:101E600005FB0CFC11EB074144EB17444FEA12470A
:101E700011EB0C4144EB1C4422EA074C05FB07F232
:101E800006FB07F70CFB06F605FB0CFC16EB0746FA
:101E900042EB174216EB0C4642EB1C456A1854F114
:101EA000000148BF7047B619524141EB0101A3F14F
:101EB0000103704795F0000F37D04FEA11424FEA07
:101EC000144721EA024624EA074C02FB07F106FB0D
:101ED00007F70CFB06F402FB0CFC14EB074441EB88
:101EE00017414FEA154714EB0C4441EB1C4125EA1E
:101EF000074C02FB07F506FB07F70CFB06F602FB97
:101F00000CFC16EB074645EB174516EB0C4645EB6C
:101F10001C42121951F1000148BF7047B6195241D5
:101F200041EB0101A3F1010370474FEA14454FEA69
:101F3000114724EA054621EA074C05FB07F106FB99
:101F400007F70CFB06F24FF0000605FB0CFC12EB4A
:101F5000074241EB174112EB0C4251EB1C4148BFC9
:101F60007047921841EB0101A3F101037047000093
:101F700010B50749074800F0EFF8012807D10449D8
:101F8000044800F009F80021024800F01FF810BDD5
:101F900000802020A06002400246094B9A4201D2F4
:101FA000084801E00648103801F000531BB1064B09
:101FB0000B40C36002E0044B0B408360704700009D
:101FC00010640240006002407D0F7D0F21B1026865
:101FD00042F00102026003E0026822F001020260A6
:101FE00070470000016821F00101016000210160DB
:101FF00041608160C1600161212141614A4988429B
:1020000004D13D21484A103A91608CE0464918318C
:10201000884205D14FF47461434A103A916082E0DE
:1020200041493031884205D14FF474113E4A103A8B
:10203000916078E03C494831884205D14FF07461A5
:10204000394A103A91606EE037496031884204D1D4
:102050003649354A103AD16065E0334978318842D3
:1020600004D13349304A103AD1605CE02E499031B6
:10207000884204D12F492C4A103AD16053E02A49B2
:10208000A831884205D14FF03D51274A103AD1601E
:1020900049E02949884204D13D21274A083A116084
:1020A00041E025491831884205D14FF47461224A34
:1020B000083A116037E020493031884205D14FF4A9
:1020C00074111D4A083A11602DE01B4948318842BD
:1020D00005D14FF07461184A083A116023E016499F
:1020E0006031884204D11149134A121F11601AE06D
:1020F00011497831884204D10D490F4A121F1160ED
:1021000011E00D499031884204D10A490A4A121F50
:10211000116008E00849A831884204D14FF03D51D0
:10212000054A121F11607047106002403D000020F8
:10213000400F002000003D201064024001460020B6
:102140000A6802F001020AB1012000E00020704795
:102150000146486880B2704770B5024600200024EE
:102160000025124EB24201D2114B01E00F4B103B41
:10217000104E0E4036B11E2606EAD124166806EA35
:10218000040502E0566906F0800501F000560EB124
:102190005C6800E01C68084E344004EA010616B191
:1021A0000DB1012000E0002070BD0000106402406D
:1021B000006002403C0F3C0F7D0F7D0F10B501F019
:1021C00080034BB122B1436943F08003436103E0D4
:1021D000436923F08003436180290BD02AB103684F
:1021E00001F01E042343036004E0036801F01E04B1
:1021F000A343036010BD000010B500220268134B1A
:102200001A40CC680B6823434C6923438C692343F1
:10221000CC6923430C6A23434C6A23438C6A2343CF
:102220004C6B23438C6B23431A430260426922F0B8
:102230000702D1E90B3423431A4342610B6943601F
:102240004B6883608B68C36010BD00003F801CF04A
:10225000416070471CB501210F2000F09DFC042057
:10226000009001208DF804008DF8070002208DF801
:10227000050000208DF806006946044800F008F8C3
:102280000421024800F06FF81CBD0000000C024061
:10229000F0B50A4600210023002400BF3DE00125DF
:1022A00005FA01F3156805EA03049C4234D1056878
:1022B0004F000326BE40B543056015794E00B5407A
:1022C0000668354305601579012D02D01579022D78
:1022D00016D185684F000326BE40B5438560557909
:1022E0004E00B540866835438560456801268E40BE
:1022F000B5434560456896798E40B6B23543456032
:10230000C5684F000326BE40B543C560D5794E0071
:10231000B540C6683543C560491C1029BFD3F0BD20
:10232000F0B5002300244D07ED0E02FA05F3CE10A0
:1023300000F1200555F826504E07F70E0F26BE4037
:10234000B543CF1000F1200646F82750CE1000F11B
:10235000200555F8265045EA0304CE1000F120056B
:1023600045F82640F0BD4183704701837047000067
:102370001CB50121022000F00FFC3020009001204C
:102380008DF804008DF8070003208DF8050000206B
:102390008DF8060069460448FFF77AFF30210248AD
:1023A000FFF7E3FF1CBD00000004024010B5102140
:1023B0000A48FFF7D8FF20210848FFF7D4FF102074
:1023C00002F0ACFC10210548FFF7CFFF102002F00F
:1023D000A5FC10210148FFF7C6FF10BD0004024014
:1023E00010B510210A48FFF7BEFF20210848FFF76B
:1023F000BCFF102002F092FC10210548FFF7B5FF4A
:10240000102002F08BFC10210148FFF7ACFF10BD3B
:102410000004024070B5054600241D48006820F401
:1024200040601B490860084600680860002619E003
:1024300010211748FFF797FF102002F06FFC1021C2
:102440001348FFF792FF6006040E11481030006831
:1024500000F0200008B1601CC4B2082002F05EFC4D
:10246000701CC6B2082EE3DB0948006820F4406007
:10247000074908600846006840F48060086015B9A4
:10248000FFF7AEFF01E0FFF791FF204670BD0000AF
:102490000004024070B5044610211448FFF763FFA2
:1024A00000251FE004F0800020B120210F48FFF735
:1024B0005CFF03E020210D48FFF755FF6006040E86
:1024C000102002F02BFC10210848FFF74EFF1020CF
:1024D00002F024FC10210548FFF745FF102002F010
:1024E0001DFC6D1C082DDDD370BD000000040240F2
:1024F00010B520210A48FFF738FF10210848FFF7E0
:1025000034FF102002F00AFC20210548FFF72BFFC2
:10251000102002F003FC10210148FFF724FF10BD3A
:102520000004024010B510210A48FFF71CFF2021CB
:102530000848FFF718FF102002F0F0FB10210548B3
:10254000FFF713FF20210348FFF70FFF102002F0D1
:10255000E5FB10BD0004024010B5002420480068CF
:1025600020F440601E490860084600680860202189
:102570001B48FFF7FAFE10211948FFF7F6FE082066
:1025800002F0CCFB13E0601CC0B20446FA280EDD5A
:102590001348006820F4406011490860084600684C
:1025A00040F480600860FFF7BDFF012010BD0C48BB
:1025B0001030006800F020000028E4D108480068CE
:1025C00020F44060064908600846006840F48060D6
:1025D000086010210248FFF7C6FE0020E6E7000071
:1025E0000004024010B59FED140A144880ED000A63
:1025F0009FED130A80ED010A01F094FE0F498860F7
:102600009FED0D0A0F4880ED000A9FED0D0A80ED49
:10261000010A01F087FE0B4988609FED070A0A480E
:1026200080ED000A9FED060A80ED010A01F07AFEB6
:102630000549886010BD00000AD7A33C9402002021
:1026400000000000A0020020AC02002070B52DEDBB
:10265000048B0446B0EE408A01F064FE0546A06893
:10266000281A00EE100AB8EE400ADFED1C0A20EE30
:10267000200AF0EE408AA560F5EEC08AF1EE10FA6D
:1026800004D29FED170AF0EE408A0DE09FED150A87
:10269000F4EEC08AF1EE10FA06DD84ED018AB0EEA8
:1026A000480ABDEC048B70BD94ED000AD4ED000A1D
:1026B00070EEA80A80EE209A94ED010A20EE090A35
:1026C000F7EE000A70EEC90AF0EE409A40EE889AE2
:1026D000C4ED019AB0EE690AE3E70000BD37863524
:1026E0006F12833A9A99993E10B5FFF741FE4FF465
:1026F00080500F4908600FA0FDF7CEFD0A2002F0C0
:10270000F5FA02F017FC0E4908609FED0E0A0E481C
:1027100080ED000A01F006FE0C490860052002F079
:10272000E5FA02F083FB0A4880ED000A10BD0000C4
:10273000200000204D305F4153353630300D0A0007
:1027400028000020000000003000002024000020AD
:102750002C00002010B51BA0FDF79EFD1C4890ED3D
:10276000000A1C48D0ED000AB4EEE00AF1EE10FABF
:1027700004DD90ED000A164880ED000A154890ED42
:10278000000A154880ED040A124890ED000A13482B
:1027900080ED040A1248007830B90E4890ED000A26
:1027A000104880ED040A05E00F4890ED000A0D483E
:1027B00080ED040A0D4890ED000A0D4880ED040AF2
:1027C00010BD00004D4F543A20496E69740D0A0047
:1027D000400000203C000020B8020020DC02002065
:1027E0007C00002000030020500000204C0000204E
:1027F0002403002010B52DED028BB0EE408A044674
:10280000B5EEC08AF1EE10FA04D0164880ED008AC9
:102810001548046001F0CAFE02F008FB134880ED81
:10282000000A322002F062FA02F0D0FE104880ED79
:10283000000A052002F05AFA02F0B4FE0D4880EDBD
:10284000000A0D480078022805D10A4890ED000AD8
:102850000A4880ED000AC82002F048FABDEC028B5D
:1028600010BD000084000020340000202C00002057
:102870005C000020540000207D0000208800002023
:1028800070B5002100230F22C4781CB3174C2468B4
:1028900004F4E064C4F5E064C4F30721C1F1040466
:1028A000E3B20A4144789C40E1B284781440214369
:1028B0000C07210E0E4C05786155047804F01F05B5
:1028C0000124AC4005786D11AD0005F1E025C5F897
:1028D000004109E0047804F01F050124AC40054DD7
:1028E0000678761145F8264070BD00000CED00E03A
:1028F00000E400E080E100E010B5B6EE000A4148D7
:1029000080ED000A9FED400A80ED010A9FED3E0A2E
:1029100080ED020A9FED3C0A80ED030A9FED3A0A22
:1029200080ED050A9FED380A80ED060A9FED360A14
:1029300080ED070A01F0F6FC32490862B3EE040AA2
:10294000324880ED000A9FED300A80ED010A9FEDCC
:102950002E0A80ED020A9FED2C0A80ED030A9FEDFE
:102960002A0A80ED050A9FED280A80ED060A9FEDF0
:10297000260A80ED070A01F0D5FC24490862B6EE6C
:10298000000A234880ED000A9FED1F0A80ED010A2E
:102990009FED1D0A80ED020A9FED1B0A80ED030AE0
:1029A0009FED190A80ED050A9FED170A80ED060AD2
:1029B0009FED150A80ED070A01F0B4FC1449086286
:1029C000B6EE000A134880ED000A9FED0F0A80ED75
:1029D000010A9FED0D0A80ED020A9FED0B0A80EDC2
:1029E000030A9FED090A80ED050A9FED070A80EDB5
:1029F000060A9FED050A80ED070A01F093FC0549E0
:102A0000086210BD00030020000000002403002025
:102A1000B8020020DC02002070B52DED088B0446C2
:102A2000B0EE409A01F07EFC0546206A281A00EEBE
:102A3000100AB8EE400ADFED560A20EE200AB0EE8A
:102A4000408A2562B5EEC08AF1EE10FA06D9B6EEDC
:102A5000000AB4EEC08AF1EE10FA03DD9FED4D0AD4
:102A6000B0EE408A94ED000A60EE09AA94ED070AE0
:102A7000D4ED010A60EE880AB6EE001A60EE810A13
:102A800094ED051A31EE091AF0EE409A40EE819A63
:102A900094ED040AB1EE400AB4EEE90AF1EE10FA40
:102AA00004DD94ED040AB1EE400A0BE094ED040A53
:102AB000B4EEE90AF1EE10FA02D294ED040A01E054
:102AC000B0EE690AF0EE409A94ED020AD4ED050AE0
:102AD00079EE600A20EE200A80EE08BA3AEEA90AE2
:102AE00070EE0B8A94ED040AB1EE400AB4EEE80AE7
:102AF000F1EE10FA04DD94ED040AB1EE400A0BE0A9
:102B000094ED040AB4EEE80AF1EE10FA02D294ED64
:102B1000040A01E0B0EE680AF0EE408A94ED030A80
:102B2000B5EEC00AF1EE10FA26DD94ED060A38EE95
:102B3000C00A80EE08AA94ED030AB4EECA0AF1EEC8
:102B400010FA08D294ED060AD4ED030A00EE880AC2
:102B5000F0EE408A10E094ED030AB1EE400AB4EEC4
:102B6000CA0AF1EE10FA07DD94ED060AD4ED030A65
:102B700000EEC80AF0EE408AC4ED079AC4ED068A5A
:102B800084ED059AB0EE680ABDEC088B70BD0000BC
:102B9000BD3786356F12833A29B1064A126802435F
:102BA000044B1A6004E0034A12688243014B1A6026
:102BB000704700003038024029B1064A12680243CB
:102BC000044B1A6004E0034A12688243014B1A6006
:102BD000704700004038024029B1064A126802439B
:102BE000044B1A6004E0034A12688243014B1A60E6
:102BF000704700002038024029B1064A126802439B
:102C0000044B1A6004E0034A12688243014B1A60C5
:102C1000704700004438024029B1064A1268024356
:102C2000044B1A6004E0034A12688243014B1A60A5
:102C30007047000024380240F0B500210022002433
:102C4000022500260223324F3F6807F00C0121B114
:102C5000042905D0082937D105E02E4F076036E05A
:102C60002D4F076033E02A4F3F1F3F68C7F3805660
:102C7000274F3F1F3F6807F03F036EB1264FB7FB5A
:102C8000F3F7DFF88CC0ACF1040CDCF800C0CCF337
:102C9000881C07FB0CF40CE01E4FB7FBF3F7DFF8C2
:102CA00070C0ACF1040CDCF800C0CCF3881C07FB4E
:102CB0000CF4174F3F1F3F68C7F301477F1C7D008F
:102CC000B4FBF5F7076002E0124F076000BF00BFDA
:102CD0000F4F3F6807F0F0010909104F7A5C076851
:102CE000D74047600A4F3F6807F4E051890A0B4F0D
:102CF0007A5C4768D7408760054F3F6807F46041BA
:102D0000490B064F7A5C4768D740C760F0BD0000AA
:102D1000083802400024F40000127A00000000206D
:102D200070B5FFF7E5FB6C20FFF7B4FBFFF714FC71
:102D30000C20FFF7AFFBFFF70FFCFFF7D9FB6D206F
:102D4000FFF7A8FBFFF708FC0120FFF763FB044631
:102D50000020FFF75FFB0546FFF7E4FB05EB0420CF
:102D600080B270BD0CB5002001900090344800681E
:102D700040F480303249086000BF3148006800F4F8
:102D8000003000900198401C0190009818B90198FB
:102D9000B0F5A04FF1D12A48006800F4003010B11E
:102DA0000120009001E0002000900098012846D109
:102DB00023484030006840F080502149403108608D
:102DC0002048006840F440401E4908601C48083014
:102DD00000681B49083108600846006840F400405C
:102DE00008600846006840F4A05008601648091FB3
:102DF0000860081F006840F08070091F086000BF6D
:102E00000F48006800F000700028F9D040F205700B
:102E10000E4908600A480830006820F0030008499D
:102E2000083108600846006840F00200086000BFF2
:102E300003480830006800F00C000828F8D10CBDE9
:102E4000003802400070004008544007003C024037
:102E500002480068401C01490860704710000020CB
:102E600010B51548006840F4700013490860134815
:102E7000006840F001001149086000200F49083146
:102E800008600E4800680E4908400C4908600D486B
:102E9000091D0860081F006820F48020091F0860D1
:102EA000002006490C310860FFF75CFF4FF000601E
:102EB00001498039086010BD88ED00E0003802400B
:102EC000FFFFF6FE1030002400B58FB00121032073
:102ED000FFF762FE01210846FFF78EFE012208215E
:102EE0005548FFF71DFA012209215348FFF718FA48
:102EF00001220A215048FFF713FA01220D214F4801
:102F0000FFF70EFA01220E214C48FFF709FA0122C1
:102F10000F214A48FFF704FA4FF4E0600D900220B9
:102F20008DF8380000208DF83A0003208DF8390024
:102F300000208DF83B000DA93F48FFF7A9F94FF499
:102F400060400D9002208DF8380000208DF83A0086
:102F500003208DF8390000208DF83B000DA937487B
:102F6000FFF796F9364800F0A5F80020ADF82800E4
:102F70006020ADF82A0040F6AC500B900020ADF870
:102F8000300002208DF832000AA92D4800F062FAC4
:102F90007020ADF814000120ADF816000420ADF843
:102FA000180000200790ADF82000ADF82200ADF821
:102FB0002400ADF8260005A9214800F043F905A931
:102FC0001F4800F087F905A91D4800F0E3F9082122
:102FD0001B4800F075F90821194800F0CDF90821C7
:102FE000174800F027FA4FF40060ADF804004010D5
:102FF000ADF806000020ADF808006420ADF80A0026
:103000000020ADF80C004FF40050ADF80E00002089
:10301000ADF8100001A90A4800F020F80121084885
:1030200000F010F80121064800F034F801210448AE
:1030300000F024F80FB000BD000002400004024080
:103040000000014021B1028842F08002028004E0C9
:1030500002884FF67F731A40028070470A884B88B7
:103060001A438B881A43CB881A430B891A434B891E
:103070001A438B891A43A0F84420704721B1028873
:1030800042F00102028004E002884FF6FE731A400B
:103090000280704731B1B0F8442042F40042A0F8F9
:1030A000442005E0B0F84420C2F30E02A0F844200A
:1030B0007047000010B504465548844208D10121EC
:1030C0000846FFF7A9FD00210120FFF7A5FD9DE0BF
:1030D000B4F1804F08D101210846FFF77DFD0021A2
:1030E0000120FFF779FD91E04A48844208D101218F
:1030F0000220FFF771FD00210220FFF76DFD85E042
:103100004548844208D101210420FFF765FD0021D4
:103110000420FFF761FD79E04048844208D1012195
:103120000820FFF759FD00210820FFF755FD6DE04D
:103130003B48844208D101211020FFF74DFD0021BA
:103140001020FFF749FD61E03648844208D1012193
:103150002020FFF741FD00212020FFF73DFD55E035
:103160003148844208D101210220FFF755FD00219A
:103170000220FFF751FD49E02C48844209D101218A
:103180000804FFF749FD00214FF48030FFF744FDAC
:103190003CE02748844209D101214804FFF73CFD67
:1031A00000214FF40030FFF737FD2FE02148844223
:1031B00009D101218804FFF72FFD00214FF4802061
:1031C000FFF72AFD22E01C48844208D1012140205B
:1031D000FFF702FD00214020FFF7FEFC16E0174834
:1031E000844208D101218020FFF7F6FC00218020D5
:1031F000FFF7F2FC0AE01248844207D10121801552
:10320000FFF7EAFC0021A015FFF7E6FC10BD000067
:10321000000001400004004000080040000C004095
:103220000010004000140040000401400040014034
:10323000004401400048014000180040001C0040CC
:103240000020004070B5002400220023058C4FF6BA
:10325000FE7635400584028C8388048B4FF68F758B
:103260002C40B51E2C400D882C43751E2A408D899C
:103270002A434D882A43104DA84202D00F4DA84240
:1032800013D14FF6F7752A40CD892A434FF6FB75C7
:103290002A408D882A434FF6FF652B404FF6FF5595
:1032A0002B400D8A2B434D8A2B43838004838D68EA
:1032B0004563028470BD000000000140000401402D
:1032C0000A460021018B4FF6F77319401143018321
:1032D0007047000070B5002400220023058C4FF6D3
:1032E000EF7635400584028C8388048B48F6FF75A1
:1032F0002C404FF6FF452C400D884FF6FF7606EA2E
:1033000005252C434FF6DF752A408D8906EA051501
:103310002A434D8806EA05152A43154DA84202D0D6
:10332000144DA8421DD14FF67F752A40CD894FF626
:10333000FF7606EA05152A434FF6BF752A408D88A9
:1033400006EA05152A434FF6FF352B404FF2FF756D
:103350002B400D8A06EA85052B434D8A06EA850532
:103360002B43838004838D688563028470BD0000D5
:1033700000000140000401400A460021018B4FF289
:10338000FF7319404FF6FF7303EA022319430183C9
:103390007047000070B5002400220023058C4FF612
:1033A000FF6635400584028C8388848B4FF68F75C9
:1033B0002C404FF6FC752C400D882C434FF6FF55E2
:1033C0002A408D894FF6FF7606EA05252A434D8867
:1033D00006EA05252A43154DA84202D0144DA842FD
:1033E0001DD14FF2FF752A40CD894FF6FF7606EAD0
:1033F00005252A434FF6FF352A408D8806EA052524
:103400002A434EF6FF752B404DF6FF752B400D8A73
:1034100006EA05152B434D8A06EA05152B438380E2
:1034200084838D68C563028470BD00000000014084
:10343000000401400A460021818B4FF6F7731940C2
:103440001143818370474163704781637047C16353
:103450007047000000220288184B98420ED0184B8B
:1034600098420BD0B0F1804F08D0164B984205D04F
:10347000154B984202D0154B984204D14FF68F73EA
:103480001A404B881A43124B984207D0114B98426E
:1034900004D04FF6FF431A400B891A4302804B6851
:1034A000C3620B880385054B984202D0044B9842B7
:1034B00001D18B7A0386012383827047000001408B
:1034C000000401400004004000080040000C0040DF
:1034D000001000400014004010B540F2244115488F
:1034E00000F0A4F9012824D112480088124908608C
:1034F0001048001D008808601048FEF729FEC0F53E
:1035000080700D49086000210C48FEF75FFD00BF88
:103510000A48FEF713FE0028FAD14FF480710748DD
:10352000FEF796FE01210548FEF750FD01200449F3
:10353000086010BD00440040140000208860024074
:103540001800002010B596B0044601215E48FFF730
:1035500023FB01214804FFF72FFB072202215B48D0
:10356000FEF7DEFE072203215848FEF7D9FE0C20A5
:10357000149002208DF8540000208DF85600012090
:103580008DF8570002208DF8550014A94F48FEF71A
:103590007FFE26208DF83C0000208DF83D008DF840
:1035A0003E0001208DF83F000FA8FFF769F91120B8
:1035B0008DF83C0001208DF83D008DF83E008DF81F
:1035C0003F000FA8FFF75CF9414800F0B7F81094EE
:1035D0000020ADF84C000C20ADF84A000020ADF8FA
:1035E0004800ADF84600ADF8440010A9384800F096
:1035F0006DF901224021364800F096F80121344847
:1036000000F086F8012240F22441314800F038F9F8
:103610003048FEF7E7FC4FF0006000902C48001D9A
:1036200001902D48029040200390800004900020DB
:1036300005904FF480600690002007900890099054
:103640004FF480300A9000200B9003200C90002053
:103650000D900E9069461F48FEF7CEFD0122102105
:103660001C48FEF7ABFD1B481838FEF7BBFC4FF0BB
:10367000006000901648001D01901848029000203C
:1036800003904FF480700490002005904FF4806008
:1036900006900020079008904FF480700990400237
:1036A0000A9000200B9003200C9000200D900E90AB
:1036B000694608481838FEF79FFD0121054818386B
:1036C000FEF784FC16B010BD01002000000002408F
:1036D00000440040A06002409400002094010020BB
:1036E00010B5044600210848FEF770FCA1B2064858
:1036F000FEF7AEFD01210448FEF768FC012280219F
:10370000024800F011F810BDA060024000440040E3
:1037100021B1828942F40052828104E082894DF60F
:10372000FF731A40828170471AB1838A0B438382E8
:1037300002E0838A8B4383827047000010B5044601
:103740003248844208D101211020FFF765FA002198
:103750001020FFF761FA57E02D48844209D101217A
:103760004804FFF739FA00214FF40030FFF734FA2C
:103770004AE02848844209D101218804FFF72CFA45
:1037800000214FF48020FFF727FA3DE022488442D1
:1037900009D10121C804FFF71FFA00214FF40020CE
:1037A000FFF71AFA30E01D48844209D101210805CB
:1037B000FFF712FA00214FF48010FFF70DFA23E013
:1037C0001748844208D101212020FFF725FA002163
:1037D0002020FFF721FA17E01248844209D1012185
:1037E0008807FFF7F9F900214FF08040FFF7F4F95F
:1037F0000AE00D48844207D101214005FFF7ECF9AA
:1038000000216005FFF7E8F910BD0000001001403D
:103810000044004000480040004C00400050004080
:103820000014014000780040007C004070B5024662
:10383000002400230025002040F66A16B14200D182
:1038400000BFC1F3421501F01F03012606FA03F37E
:10385000012D02D19689334006E0022D02D1168A4D
:10386000334001E0968A33400C12012606FA04F434
:103870001688344013B10CB1012000E0002070BD67
:10388000F0B50346002400260025002040F66A1704
:10389000B94200D100BF1846C1F3421401F01F061F
:1038A000012707FA06F5012C01D10C3004E0022CA7
:1038B00001D1103000E014301AB107682F430760BF
:1038C00002E00768AF430760F0BD00002DE9FF4745
:1038D00005460E460024A14600BFA046B08900B1AF
:1038E00000BF2C8A24F44054F08804432C82AC8915
:1038F00041F20C608443B0883189084371890843E0
:103900000443AC81AC8A24F44074B0890443AC8293
:103910006846FFF791F92048854202D01F4885424A
:1039200002D1DDF80C9001E0DDF80890A88900F4E0
:10393000004040B109EBC90000EB091031684900B3
:10394000B0FBF1F707E009EBC90000EB09103168A3
:103950008900B0FBF1F76420B7FBF0F00401200907
:10396000642101FB1078A88900F4004040B13220A6
:1039700000EBC800B0FBF1F000F00700044308E0E2
:10398000322000EB08106421B0FBF1F000F00F00D2
:1039900004432C81BDE8FF87001001400014014062
:1039A00003B401984100009850EAC12018BF0420D8
:1039B0004A0D18BF40F0010040F2FF72B2EB515FB8
:1039C00008BF40F00200012808BF052002B0704780
:1039D00070B59B482DED020B2DED068B079D25F054
:1039E0000044A04218DC9748844202DC0AD10698C1
:1039F00040B19DED060BBDEC068B02B0BDE87040FA
:103A000000F0D6BB002DCCBF9FED8F0B9FED900B30
:103A1000BDEC068B02B070BD8F48A04215DD8F480B
:103A2000A042D8BF4FF0FF3458DD9DED060B51EC9E
:103A3000100BFFF7B5FF042808BF00F0EDFB9DED6C
:103A4000060BBDEC068B02B070BD9DED060B51EC74
:103A5000100B01F089F9CDE9060181489FED828BB9
:103A6000A0423CDD8248A0421FDD00249FED82ABD6
:103A70009DED060B53EC1A2B51EC100B01F0ACFE34
:103A80009DED060B41EC190B53EC1A2B51EC100B6E
:103A900002F046F953EC182B02F02AFB53EC192BD9
:103AA00001F056FFCDE9060149E09DED060B01242A
:103AB00053EC182B51EC100B01F08EFE9DED060B14
:103AC00041EC190B53EC182B51EC100B02F010FBCE
:103AD00053EC192B01F03CFFCDE906012FE06848BB
:103AE000A0421FDD02249FED689B9DED060B53EC69
:103AF000192B51EC100B02F013F953EC182B01F0B9
:103B00006BFE9DED060B41EC180B53EC192B51ECA1
:103B1000100B02F0EDFA53EC182B01F019FFCDE970
:103B200006010CE09DED060B032453EC102B9FEDDA
:103B3000580B51EC100B01F00BFFCDE906019DED88
:103B4000060B53EC102B51EC100B02F0E9F841EC92
:103B5000180B53EC182B02F0E3F841EC190B4E480C
:103B60000621B0EE490AF0EE690A784400F0A4FAA2
:103B700053EC182B51EC100B02F0D2F841EC180B5F
:103B80004648B0EE490AF0EE690A0521784400F093
:103B900093FA53EC192B51EC100B02F0C1F841ECE5
:103BA000100B51EC180B53EC102B002C0EDA01F01B
:103BB00013FE9DED061B53EC112B02F0B1F89DEDA9
:103BC000061B53EC112B02F087FA35E001F004FEDE
:103BD0009DED061B53EC112B02F0A2F841EC100BEB
:103BE0002F48784400EBC40090ED001B51EC100B03
:103BF00053EC112B02F07CFA9DED061B53EC112BBC
:103C000002F076FA41EC100B2648784400EBC40031
:103C100090ED001B51EC100B53EC112B02F05CFAF1
:103C200041EC100B002DA2BFBDEC068B02B070BDA5
:103C300051EC100B01F092FD41EC100B01E700007C
:103C4000000010440000F07F182D4454FB21F93F80
:103C5000182D4454FB21F9BF0000DC3F0000203E3A
:103C60000000F33F00000000000000000000F03FF3
:103C70000000E63F000000000000000000000040DF
:103C80000080034000000000000000000000F83F3A
:103C9000000000000000F0BFDA2C0000902C0000B3
:103CA0001A2C0000D22B000070B56B4E2DED040BCA
:103CB0002DED028B82B0DDF81CC0DDE905235C42EE
:103CC0002CF000411C4341EAD474049D22F00040D2
:103CD000B44205D86C422C4340EAD474B4420BD9A8
:103CE0009DED061B9DED040B02B0BDEC028B04B0F4
:103CF000BDE8704000F066BAACF14054A4F17F64B6
:103D00001C430BD0022404EAAC7444EAD274054389
:103D10009FED538B9FED542B07D015E09DED040BC9
:103D200051EC100B00F0F6FE42E0002C11BF012C0C
:103D30009DED040B02B0BDEC028B04BF04B070BD5E
:103D4000022C38D0032C3BD00B439FED491B9FED39
:103D50004A0B0AD0B14218D1B04209D121F08041BA
:103D600020F08040079105900FE0002A15DA10E05E
:103D7000434B7B44002C08BF93ED000B0DD0012C6E
:103D800010D0022C17D0032C1AD0B0421DD1002A1B
:103D900003DAB0EE410AF0EE610A02B0BDEC028B2C
:103DA00004B070BD93ED000B51EC100B01F0D6FC8C
:103DB00041EC100BF1E7B0EE480AF0EE680AECE7D0
:103DC000B0EE420AF0EE620AE7E7401A00153C281E
:103DD000C8BF8DED000B19DCBCF1000FBEBF10F1A8
:103DE0003C0F9FED290B8DED000B0FDB9DED060BBE
:103DF00053EC102B9DED040B51EC100B01F0A8FDC2
:103E000000F0B2FF00F086FECDE90001002C08BFF3
:103E10009DED000BC1D0012C10D0022C9FED1C0B8E
:103E200053EC102B9DED000B51EC100B0DD002F05C
:103E30005FF953EC182B02F05BF9B9E7019880F0B9
:103E4000004001909DED000BA7E702F051F953EC03
:103E5000182B02F041F9ABE70000F07F00000000F2
:103E6000182D4454FB210940182D4454FB2109C04E
:103E7000182D4454FB21F9BF182D4454FB21F93F60
:103E8000022B000000000000000000000000000005
:103E9000075C143326A6A13C30B583B00446FCF77A
:103EA00006FB9FED090B05468DED000B0022214618
:103EB0006846FCF7BBFD2846FCF7FEFA9DED000BBB
:103EC00003B030BD00000000000000000000000052
:103ED0002DED020B019820F0004001909DED000BAC
:103EE00002B0704710B52DED040B86B09DED060BAA
:103EF00010EE100A10EE901A8DED000B002818BF7E
:103F00000120084320F00040C0F17F6000F1E04054
:103F1000C00F21D19DED080B10EE101A10EE900A83
:103F20008DED000B002918BF0121084320F000404F
:103F3000C0F17F6000F1E040C00F0DD12949079822
:103F4000B1EB400F04BF0698002842D0099840000A
:103F500004BF089800283CD09DED080B53EC102BB3
:103F60009DED060B51EC100B01F0D2FFCDE90201E3
:103F70009DED020B40F2FF7110EE900A8DED000BEB
:103F800031EA105021D00798039900F0004001F069
:103F90000041884219D09DED080B8DED040B9DED7D
:103FA000020B8DED000B10EE900A059961F31E00D7
:103FB00005909DED041B9DED020B51EC110B53EC94
:103FC000102B02F089F8CDE902019DED020B0AB039
:103FD00010BD0120FCF770FA0AB0BDE8104000F0F7
:103FE000FBB800000000E0FF30B540F2FF742DED9B
:103FF000048BF0EE608A18EE901A85B0B0EE408A1D
:104000009FED2B9B05468DED008B34EA115147D077
:1040100053EC192B51EC180B01F0F2FD40D02A465D
:1040200051EC180B02F0FDF941EC180B18EE900A58
:104030008DED008B34EA10501CD053EC192B51EC51
:10404000180B01F0DDFD2BD10220FCF735FA00F052
:10405000E3F810EE901A18EE900A8DED020B8DED3C
:10406000008B61F31E0003909DED020B05B0BDECCB
:10407000048B30BD0220FCF71FFA00F0BDF810EEF3
:10408000901A18EE900A8DED020B8DED008B61F306
:104090001E0003909DED020B05B0BDEC048B30BDFE
:1040A00005B0B0EE480AF0EE680ABDEC048B30BDF6
:1040B000000000000000000070B504462DED028BEA
:1040C0004D1E00EBC500B0EE408AF0EE608A90ED28
:1040D000000B35F0060017D053EC182B51EC100BE9
:1040E00001F01EFE41EC100B6D1E04EBC50090EDBF
:1040F000001B51EC100B53EC112B01F06DFB41EC4C
:10410000100B35F00600E7D1022D36D0042D1CD05F
:10411000062D1CBFBDEC028B70BD53EC182B51EC6F
:10412000100B01F0FDFD94ED0A1B53EC112B01F077
:1041300053FB53EC182B01F0F3FD94ED081B53ECEB
:10414000112B01F049FB41EC100B53EC182B51ECF7
:10415000100B01F0E5FD94ED061B53EC112B01F063
:104160003BFB53EC182B01F0DBFD94ED040B53ECFF
:10417000102B01F031FB41EC100B53EC182B51ECE0
:10418000100B01F0CDFD94ED021B53EC112B01F04F
:1041900023FB53EC182B01F0C3FD94ED001B53ECF3
:1041A000112B01F019FBBDEC028B41EC100B70BD23
:1041B00010B553EC102B51EC100B01F00DFB41EC42
:1041C000100B10BD10B553EC112B51EC100B01F07E
:1041D00003FB41EC100B10BD9FED050B10B553EC2C
:1041E000102B51EC100B01F0B3FB41EC100B10BD88
:1041F00000000000000000009FED050B10B553EC1F
:10420000102B51EC100B01F08BFD41EC100B10BD8D
:1042100000000000000000709FED050B10B553EC8E
:10422000102B51EC100B01F07BFD41EC100B10BD7D
:10423000000000000000001030B504462DED048B96
:1042400081B06A4691ED008B51EC180B00F0A8FD8F
:1042500000989FED239B7E300090002821DC53ECDA
:10426000192B51EC180B01F0CBFC1AD0002140F6B1
:1042700008004FF00000054651EC180B01F07AFAE7
:1042800008EE100A40F6080005EA00014FF00000B1
:10429000B5EEC08AF1EE10FA04BF0220FCF70CF96B
:1042A00017E00098FF280EDB0220FCF705F953EC1D
:1042B000192B51EC180B01F0D9FE8CBF9FED0A8A27
:1042C0009FED0A8A05E051EC180B01F053FA08EE55
:1042D000100A84ED008A01B0BDEC048B30BD0000F3
:1042E0000000000000000000000080FF0000807F50
:1042F00010B5044690ED000B0846FFF775FE84EDFF
:10430000000B10BDF0EE400A00EE100AB8EEC00A35
:1043100020EE800A704730380A2801D20120704709
:104320000020704700BF0A4801684FF0E020826912
:10433000074800688142F6D10648801AA823B0FBDE
:10434000F3F001EB4103C3EBC11300EBC300704773
:10435000100000204090020010B52DED068BB0EE4D
:10436000408A18EE100A01F0ADFF41EC1A0B9FEDE8
:10437000101BB0EE4A0AF0EE6A0AFFF7B3FDB0EE8A
:10438000409AF0EE609A51EC190B01F0F3F908EE47
:10439000900AF5EEC08AF1EE10FA04DBB0EE680A7E
:1043A000BDEC068B10BD9FED040A38EE800AF7E7DE
:1043B00000000060FB211940DB0FC94010B52DED56
:1043C000068BB0EE408A9FED660AB4EEC08AF1EE2D
:1043D00010FA2BD29FED630A28EE000AB5EEC00A50
:1043E000F1EE10FA0ADBDFED5F0AB6EE000A00EE2E
:1043F000880ABDEEC00A10EE100A09E0DFED590A86
:10440000B6EE000A10EE880ABDEEC00A10EE100AE1
:10441000554951F8200000EE100AB8EEC00ADFED51
:10442000530A20EE200ABDEC068B10BD9FED500A0A
:10443000B4EEC08AF1EE10FA33D29FED4A0A28EEAC
:10444000000AB5EEC00AF1EE10FA0ADBDFED450A0C
:10445000B6EE000A00EE880ABDEEC00A10EE101A91
:1044600009E0DFED400AB6EE000A10EE880ABDEE64
:10447000C00A10EE101AC1F5C7713B4A52F821006C
:1044800001F0FAFB41EC1A0B9FED3A0B53EC102BA9
:1044900001F046FC41EC190B01F06CF900EE100A3A
:1044A000C1E79FED360AB4EEC08AF1EE10FA2BD2C6
:1044B0009FED2C0A28EE000AB5EEC00AF1EE10FAC4
:1044C0000ADBDFED280AB6EE000A00EE880ABDEE30
:1044D000C00A10EE100A09E0DFED220AB6EE000A6B
:1044E00010EE880ABDEEC00A10EE100AA0F5C770E3
:1044F0001D4951F8200000EE100AB8EEC00ADFEDA9
:10450000200A20EE200A8EE79FED160A28EE000A08
:10451000B5EEC00AF1EE10FA0ADBDFED120AB6EED4
:10452000000A00EE880ABDEEC00A10EE100A09E08B
:10453000DFED0C0AB6EE000A10EE880ABDEEC00AE6
:1045400010EE100AC0F54770074951F8200000EE40
:10455000100AB8EEC00ADFED0A0A20EE200A62E770
:10456000DB0FC93FE65FFD42BC64000817B7D138D6
:10457000DB0F49402D431CEBE2361A3FE4CB96405B
:1045800017B7D1B8F0EE400AB0EE601A11EE100A7B
:104590000349A1EB600001EE100A20EE810A70478A
:1045A000865A375F014600BF7047000010B52DEDF9
:1045B000088BA5A0FBF770FEA948006800287CD1F5
:1045C00000241CE000EE104AB8EEC00ADFEDA50A98
:1045D00060EE200A9FEDA41A80EE810ADFEDA30AA7
:1045E00070EE209AB0EE691ADFEDA10AA14890EDB5
:1045F000000A00F08BFE022000F078FB641CB4F58A
:10460000FA7FDFDD00F012FCB0EE408A4FF4FA745E
:104610001EE000EE104AB8EEC00ADFED920A20EE6E
:10462000200A9FED911AC0EE010A9FED900A30EE2C
:10463000800AF0EE409AB0EE691ADFED8D0A8D48DF
:1046400090ED000A00F062FE022000F04FFB641EB5
:10465000002CDEDA00F0EAFBF0EE408A9FED841ACF
:10466000DFED830A9FED820A00F050FEC82000F0C3
:104670003DFB18EE100A01F025FE41EC1A0B53EC3D
:104680001A2B7DA0FBF708FE18EE900A01F01AFE27
:1046900041EC1A0B53EC1A2B7CA0FBF7FDFD38EE16
:1046A000680A10EE101A084601F00CFE41EC1B0BD4
:1046B000B0EE4B0AF0EE6B0A00E074E0FFF708FC86
:1046C000B0EE40AAF0EE60AA51EC1A0B01F052F8DD
:1046D00009EE100AB4EE688AF1EE10FA06D09FEDEA
:1046E000700AB4EEC09AF1EE10FA0AD26DA0FBF790
:1046F000D3FD00217648FEF7C1FC0020BDEC088BFD
:1047000010BDB4EEE88AF1EE10FA07D271A0FBF703
:10471000C3FD4FF0FF305249086005E075A0FBF77C
:10472000BBFD01204E49086079A0FBF7B5FD7C4830
:1047300090ED000AF8EEC00A9FED4A0A19EE200A31
:1047400010EE101A084601F0BDFD41EC1B0BB0EE57
:104750004B0AF0EE6B0AFFF7BBFBB0EE40AAF0EE9F
:1047600060AA9FED700B53EC102B51EC1A0B01F06B
:104770007DFC14D26DA0FBF78FFDDFED3A0A80EED1
:10478000890AF6EE000A30EE200ABDEEC00A64483F
:1047900080ED000A01686BA0FBF77EFD06E06BA0D0
:1047A000FBF77AFD02E06BA0FBF776FD6F4890ED1A
:1047B000000AB5EEC00AF1EE10FA3FD19FED2B1AB8
:1047C000DFED2B0A2B4890ED000A00F09FFD4FF41F
:1047D0002F7000F08BFA00F029FB2148D0ED000A81
:1047E000F8EEE00A20EE200AF0EE40AA4C480068FD
:1047F000FFF788FDB0EE40AAFFF7AEFD5B4880ED05
:10480000000A142000F072FA59A0FBF745FD574842
:10481000006801F057FD41EC1A0B53EC1A2B5AA01B
:10482000FBF73AFD9FED121ADFED110A9FED100A1A
:1048300000F06CFDC82000F059FA02E054A0FBF72C
:104840002BFD01205AE700004D4F543A20416C697E
:10485000676E2073656E736F722E0D0A0000000084
:1048600034000020DB0FC9400000FA43E4CB96403F
:1048700000000000400000206D69645F616E676C9D
:10488000653D252E34660D0A00000000656E645FEC
:10489000616E676C653D252E34660D0A00000000D0
:1048A0000AD7233C4D4F543A204661696C65642019
:1048B000746F206E6F74696365206D6F76656D65CA
:1048C0006E74206C6F6F703232322E0D0A00000051
:1048D000000001404D4F543A2073656E736F725F54
:1048E000646972656374696F6E3D3D4343570D0A99
:1048F000000000004D4F543A2073656E736F725F75
:10490000646972656374696F6E3D3D43570D0A00BB
:104910004D4F543A20505020636865636B3A200035
:1049200044000020000000000000E03F6661696C68
:10493000202D20657374696D617465642070703A10
:104940000000000025640D0A000000004F4B210DFF
:104950000A0000004D4F543A20536B69702064697F
:10496000722063616C69622E0D0A000084000020D1
:104970004D4F543A205A65726F20656C65632E2046
:10498000616E676C653A0000252E34660D0A0000E2
:104990004D4F543A20536B6970206F66667365748F
:1049A0002063616C69622E0D0A00000010B52DEDC8
:1049B0000A8BB0EE408AFFF7B5FC04464C4800680D
:1049C000201A00EE100AB8EE400ADFED4A0A20EE87
:1049D000200AF0EE408AF5EEC08AF1EE10FA06D910
:1049E000B6EE000AF4EEC08AF1EE10FA03DD9FED98
:1049F000420AF0EE408A3E480460404890ED000ACA
:104A000020EE280A10EE101A084601F05BFC41EC7B
:104A10001A0B3B4890ED000A38EE400A10EE101ACF
:104A2000084601F04FFC41EC1C0BB0EE4C0AF0EED6
:104A30006C0AFFF74DFAB0EE40BAF0EE60BA53ECF4
:104A40001A2B51EC1B0B01F011FB30D22C4890EDCE
:104A5000000A38EE400AB5EEC00AF1EE10FA02D2B2
:104A60004FF0FF300CE0264890ED000A38EE400A87
:104A7000B5EEC00AF1EE10FA01DD012000E00020E1
:104A800000EE100AB8EEC00A1C48D0ED000A60EE35
:104A9000200A1B4890ED000A00EEA80A80ED000AEB
:104AA000164890ED000A174880ED000A07E0144808
:104AB00080ED008A9FED140A124880ED000A134829
:104AC00090ED009A124800680D4991ED000AFFF739
:104AD00019FCF0EE409AB0EE691ADFED0B0AB0EE69
:104AE000490A00F013FCB0EE490ABDEC0A8B10BD78
:104AF00048000020BD3786356F12833A4C000020F5
:104B0000540000205C000020000000004000002055
:104B10004400002010B541EC100BFEF759FF51EC9A
:104B2000100B10BD10B52DED028B56480068012802
:104B30007DD100205349086053480078502832D076
:104B400006DC412874D0482807D049280CD14CE015
:104B500054280AD05628F9D16BE04CA14F48FBF7F6
:104B6000A7FB0446FEF7BCFD83E04748401CFFF767
:104B700093F9B0EE408AF0EE608A51EC180B00F029
:104B8000F9FD474908600846006801F09BFB41ECCD
:104B9000180B53EC182B43A14048FBF789FB044644
:104BA000FEF79EFD65E03848401CFFF775F9B0EE52
:104BB000408AF0EE608A51EC180B00F0DBFD3C49B6
:104BC0000860084690ED000A10EE101A084601F041
:104BD00079FB41EC180B53EC182B36A12F48FBF74F
:104BE00067FB0446FEF77CFD43E02748401CFFF7C7
:104BF00053F9B0EE408AF0EE608A51EC180B00F0E9
:104C0000B9FD2B494860084690ED010A10EE101AD4
:104C1000084601F057FB41EC180B53EC182B28A168
:104C20001E48FBF745FB0446FEF75AFD21E025E050
:104C30000FE02648006801F045FB41EC180B53ECEF
:104C4000182B23A11548FBF733FB0446FEF748FD5C
:104C50000FE02248006801F035FB41EC180B53ECE3
:104C6000182B1FA10D48FBF723FB0446FEF738FD68
:104C700000BF00BF10210448FBF7F3FBBDEC028B23
:104C800010BD0000180000209401002048656C6CE5
:104C90006F20576F726C64210D0A00009400002091
:104CA0008800002052583D252E32660D0A00000073
:104CB00000030020503D252E32660D0A0000000042
:104CC000493D252E32660D0A000000005C000020E0
:104CD00056656C3D252E32660D0A000054000020FA
:104CE000416E673D252E32660D0A0000F0B506467E
:104CF000FFF718FB054600BFFFF714FB0446AC4264
:104D000001D3671B02E0C5F1FF30071906EB46002F
:104D1000C0EBC610B7EBC00FEED3F0BD00BF010073
:104D2000A0F10100FBD1704710B50B48D0ED000A8F
:104D30000A4890ED001A30EE811A0948D0ED000AB9
:104D4000F8EEE01A0748D0ED000A51EE210AB0EE65
:104D5000600AFFF701FB10BD540000208000002016
:104D6000440000208400002082B0CDE9000121F041
:104D7000004001909DED000B02B051EC100B70470C
:104D800000BF054A128802F04002002AF9D0C2B2E0
:104D9000014B1B1D1A8070470044004000000000BA
:104DA00010B582B01446CDE900010023009A2360BB
:104DB000194B21F0004098422ADA024328D0B0F57E
:104DC000801FA8BF226810DA9FED150B53EC102B43
:104DD0009DED000B51EC100B00F0A2FFCDE900019E
:104DE0006FF0350221F0004022600F4B6FF31E512F
:104DF00003EB20501044206041F0FF5040F0005081
:104E000001909DED000B00BF02B051EC100B10BDE6
:104E10009DED000BF8E700000000F07F00000000AF
:104E2000000000000000504302FCFFFF70B500F0DE
:104E300081F8044635480068251A281E01DB014622
:104E400000E0414200EE101AF8EEC00A304991ED40
:104E5000000AB8EEC00A9FED2F1A20EE010AF4EE08
:104E6000C00AF1EE10FA0DDD002D02DD9FED2A0AD9
:104E700001E09FED2A0A2A48D0ED000A30EE200A10
:104E800080ED000A21480460254890ED000ADFED1E
:104E9000250AB4EEE00AF1EE10FA0CDB9FED220ACF
:104EA00080ED000A214890ED000ADFED1E0A30EE89
:104EB000600A80ED000A1A4890ED000ADFED1C0A36
:104EC000B4EEE00AF1EE10FA0CD89FED170A80ED6F
:104ED000000A164890ED000ADFED120A30EE200AB3
:104EE00080ED000A00EE104AB8EEC01A084890EDB6
:104EF000000AB8EEC00AC1EE000A094890ED000AA7
:104F00009FED061A00EE810A70BD00002800002007
:104F100020000020CDCC4C3FDB0FC9C0DB0FC940C7
:104F2000300000207C594446000000002C00002086
:104F30007C5944C610B5FDF7F3FEC0F30B042046C0
:104F400010BD000010B52DED048BFFF7EBF9044602
:104F500018480068201A00EE100AB8EEC00ADFED0B
:104F6000160A20EE200AB0EE408AB5EEC08AF1EEB5
:104F700010FA06D9B6EE000AB4EEC08AF1EE10FAC5
:104F800003DD9FED0E0AB0EE408AFFF74FFFF0EE13
:104F9000408A0B4890ED000A38EEC00A80EE089A6D
:104FA000C0ED008A03480460B0EE490ABDEC048BF2
:104FB00010BD000024000020BD3786356F12833AF3
:104FC0002C00002010B519480078042803D0174899
:104FD0000078032800D110BD00F0E4FA144880EDF9
:104FE000000AFFF7A1FE134880ED000A124800787E
:104FF00020B1012803D0022803D101E005E004E03C
:1050000003E00EA0FBF748F900BF00BF144890ED85
:10501000001AF0EE410A90ED011AB0EE410A05487F
:1050200090ED001A00F072F900BFD4E77D00002077
:1050300054000020580000207C0000204D4F543ABE
:10504000206E6F20746F7271756520636F6E74725D
:105050006F6C2073656C6563746564210D0A0000D4
:105060006C000020FDF7F6F84FF4E130FEF76AFA25
:10507000FDF72AFF00F0C2FA4FF4FA70FFF736FE90
:10508000FDF732FBFDF7AEFAFDF736FCB2EE080A8B
:10509000334880ED000A072032490860B0EE000A6C
:1050A000314880ED000AB1EE040A304880ED000A74
:1050B000B3EE040A2E4880ED000A9FED2E0A2E481A
:1050C00080ED000A00202D49087001202C4908704D
:1050D0009FED2C0A2C4880ED000AB7EE000A80ED07
:1050E000010AB3EE040A294880ED000A9FED280A60
:1050F000254880ED030A9FED270A274880ED000A26
:105100009FED260A264880ED000AFDF723FB0020CC
:105110009FED220AFDF76EFB22A0FBF7BDF81DE014
:1051200000F078FA234909680844224908600846D3
:1051300000682149884208D300201E4908601F48A2
:10514000006880F004001D490860154890ED000AD1
:1051500000F036F8FFF736FFFFF7E4FCE0E7000069
:105160003800002044000020400000203C000020C7
:105170004C00002000004842500000207C0000202D
:105180007D000020CDCCCC3D000300202403002076
:105190000000C8420AD7A33CAC0200200000000077
:1051A000880000204D6F746F722072656164792EE3
:1051B0000D0A00009000002020A10700140C0240FE
:1051C00010B52DED028BB0EE408A00F0FFF9444897
:1051D00080ED000A4348007805287CD2DFE800F023
:1051E000033D0E5D6C004048007818B93F4880EDE3
:1051F000018A02E03E4880ED008A6CE03D4880ED87
:10520000008AD0ED000A3C4890ED001A70EEC10A09
:10521000B0EE600A3948FDF7FFFB394880ED000A1F
:10522000D0ED000A2E4890ED001A70EEC10AB0EEE3
:10523000600A3448FDF7F0FB2D4880ED000A2A484B
:10524000007848B92A4890ED000A284880ED010A04
:105250009FED2D0A80ED000A3DE0294880ED008A8F
:10526000D0ED000A1E4890ED001A70EEC10AB0EEB3
:10527000600A2448FDF7D0FB1D4880ED000A1A485B
:10528000007848B91A4890ED000A184880ED010AE4
:105290009FED1D0A80ED000A1DE0194880ED008A8F
:1052A00090ED000A00F0CEF9104880ED010A9FED64
:1052B000160A80ED000A0EE00E4880ED008A90ED9F
:1052C000000AFFF773FB094880ED010A9FED0E0A03
:1052D00080ED000A00BF00BFBDEC028B10BD0000D6
:1052E0005C0000207D0000207C0000206C0000207D
:1052F00060000020680000205400002024030020EB
:1053000064000020000300200000000010B52DED17
:10531000108B86B0F0EE40EAB0EE60FAB0EE41EAF3
:10532000B5EEC0FAF1EE10FA38D06FEE0F0A4EEE7D
:10533000AE0AB0EE600AFFF725F99348D0ED000AF7
:10534000C0EE20FA1FEE100A00F0BCFFCDE902010A
:105350001EEE900A00F0B6FFCDE900019DED021BA4
:105360009DED000BFEF7A0FCB0EE40CAF0EE60CA67
:105370001EEE100A00F0A6FF41EC1D0B53EC1C2B97
:1053800000F02AFA41EC1B0B00F0F4F904909DEDBB
:10539000040AFEF7E1FFB0EE40EA0EE07A4890ED35
:1053A000000ACEEE80FADFED790A7EEE200AB0EE3A
:1053B000600AFEF7D1FFB0EE40EADFED750A8EEE2F
:1053C000200AF7EE000A30EE200ABCEEC00A10EE0A
:1053D000104A00EE904AB8EE601ADFED6D1AF0EE5A
:1053E0004E0A51EE210AB0EE600AFEF7E7FFDFED4C
:1053F000690A20EE200A60EE2F8A00EE904AF8EE4D
:10540000600AB7EE001A30EEC11ADFED611AF0EE55
:105410004E0A41EE610AB0EE600AFEF7CFFFDFED03
:105420005D0A20EE200A20EE2F9AB7EE000A30EE39
:10543000680A30EE498A072C78D2DFE804F0770456
:10544000172A3D506300F0EE000A88EE200A78EE3D
:10545000890A70EE209AF0EE000A88EE200A30EEFB
:1054600009AAB0EE000AC8EE00AA66E0F0EE000A53
:1054700088EE200A70EE289AF0EE000A88EE200AE4
:1054800078EE890A30EE20AAB0EE000AC8EE00AA33
:1054900053E0B0EE000AC8EE009AF0EE000A88EE83
:1054A000200A78EE890A30EE20AAF0EE000A88EE93
:1054B000200A70EE09AA40E0B0EE000AC8EE009A99
:1054C000F0EE000A88EE200A30EE28AAF0EE000A7C
:1054D00088EE200A78EE890A70EE20AA2DE0F0EE20
:1054E000000A88EE200A70EE099AB0EE000A88EEF3
:1054F00000AAF0EE000A88EE200A78EE890A70EE23
:1055000020AA1AE0F0EE000A88EE200A78EE890A56
:1055100070EE209AB0EE000A88EE00AAF0EE000AC3
:1055200088EE200A70EE28AA07E0FFE7DFED1A9A5E
:105530009FED19AADFED18AA00BF00BF9FED170A63
:1055400029EE800ABCEEC00A10EE101A1448FDF7CE
:105550007AFF9FED120A2AEE000ABCEEC00A10EE96
:10556000101A0F48FDF771FF9FED0C0A2AEE800A12
:10557000BCEEC00A10EE101A0948FDF768FF06B02D
:10558000BDEC108B10BD000038000020DB0FC93FC0
:10559000920A863FD7B3DD3F0000000000C05A45A5
:1055A0000000014010B5FFF741FCF0EE400A05484D
:1055B00090ED000A044890ED001AB8EEC11A11EE01
:1055C000200A10BD800000203400002010B52DED11
:1055D000028BFFF7B7FCB0EE408A0648FDF736F8BD
:1055E0000548D0ED000AF8EEE00A20EE200ABDECF6
:1055F000028B10BDAC0200203400002004484FF0A4
:10560000E0214861002088610720086170470000A0
:105610004090020070B5FEF785FE04460848006819
:10562000844203D306480068251A04E00448006851
:10563000C0F1FF30051902480460284670BD000023
:105640008C00002010B52DED048BB0EE408AFEF7E3
:1056500069FE044623480068201A00EE100AB8EEDE
:10566000400ADFED210A20EE200AF0EE408AF5EE36
:10567000C08AF1EE10FA06D9B6EE000AF4EEC08A3E
:10568000F1EE10FA03DD9FED190AF0EE408A15489D
:1056900004601748D0ED000A48EE280AB0EE600A10
:1056A000FEF75AFE124880ED000A124880ED008A8B
:1056B000114890ED009A114800680D4991ED000ADB
:1056C000FEF720FEF0EE409AB0EE691ADFED0C0A0C
:1056D000B0EE490AFFF71AFEB0EE490ABDEC048BA2
:1056E00010BD000048000020BD3786356F12833A98
:1056F000540000205C0000204000002044000020F6
:105700000000000010B500290AD00878002807D052
:1057100005487844FBF796FD002801D0002010BD15
:105720000248784410BD00002A1200002212000036
:1057300010B500290AD00878002807D00548784419
:10574000FBF780FD002801D0002010BD02487844FE
:1057500010BD00001A1200001212000081F000417A
:10576000704780F00040704721F00041704720F002
:105770000040704721F00042A2F16052B2F5801F54
:1057800001F0004328BFD2F17F6C0BD95FEA001C07
:1057900043EAC20242EB507018BF704728BF20F0A6
:1057A00001007047B2F5801FBCBF184670474FEA32
:1057B000410C1CF5001F02D2084600F0F9BD70B57F
:1057C00000F058FB00000089FFF7F6BF4FF00040E3
:1057D000A0F580007047000010B591EA030F48BFA4
:1057E00083F0004300F18C84841A71EB030C05D222
:1057F000121943EB0C03001B61EB0C01DFF824E1F1
:105800004FEA1154A4EB135C1EEA430F18BF9EEA43
:10581000445F73D023EA0E03DCF1200E21EA045129
:1058200043F4801332D322FA0CFE10EB0E0023FA5D
:105830000CFE41EB0E01CCF1200E03FA0EFE10EB34
:105840000E0051F10001B1F5801FCCF1200E32D2D3
:1058500001EB045112FA0EF2BDE8104058BF704738
:10586000401C38BF5FEA420218BF7047002814BFCF
:1058700020F0010041F100014FEA410313F5001F40
:1058800038BF7047A1F1C04100F0EABB012A43EBE9
:105890000302ACF1200CDCF11F0E32BF4FF0000E02
:1058A00023FA0CF310EB030041EB0451B4EB115F4E
:1058B000D0D0A1EB045101F5801149085FEA300016
:1058C00001EB04510ED350F1000038BF12FA0EFE66
:1058D00008D1BDE81040C9E7401C38BF5FEA42026A
:1058E000CAD1C3E7BDE810404FEA410313F5001FDA
:1058F00038BF7047A1F1C04100F0B2BB9EEA445FDF
:1059000008D011EA5E0FBDE8104004BF01F000416D
:1059100000207047BDE8104070B500F0ABFA00BF42
:1059200064FBBE3E0000E0FF02494FF0000000F0C3
:1059300046BD00BF0000F87F491058BFC1F140418B
:105940005B1058BFC3F140438B42EFF300807047B8
:105950002DE9C04130B4DFF8A0C23CEA111418BFF1
:105960003CEA131400F0EC8081EA03051CEA1114F0
:1059700044EAD57418BF1CEA131500F0C780A4EBE5
:1059800005044FF0004545EAC12145EAC32341EA39
:10599000505143EA525304F17F74994204F50034A4
:1059A0004FEAC0204FEAC22208BF904200F09C801C
:1059B0004FEA13650FF24016765D4FEA134506FB7A
:1059C00005F7C7F1807706FB07F74FEAD737A7FB44
:1059D00003687642C8F58038A7FB06CE38BFA8F129
:1059E000010807FB08E64FF0000EA6FB028CE6FB61
:1059F00003CEDCF1000CCEF1004E38BFAEF1010E4B
:105A0000A6FB0C584FF000074FF00005E6FB0E8791
:105A1000A1FB08C6A0FB07CE16EB0E0645F100055C
:105A2000E1FB076515F1E04E7EBFA4F580345FEA27
:105A300046066D4116F1800745F100054FEA17272C
:105A40004FEA066647EA0567A6F1DE46B6F1805FD3
:105A50004FEA15251FD9384624F0010C05EBC47117
:105A6000BCF1FE6F01EB0C1102D8F0BCBDE8008167
:105A700024425CBF01F5801E9EEAC47F02D4F0BCC4
:105A8000BDE80081244238D4F0BCA1F1C041BDE89A
:105A9000004100F0E5BA4FEAD22242EA43524FEA0F
:105AA000D323A7FB02864FEAD02040EA415007FBF0
:105AB00003661EEA0E0F4FEAD12105FB026658BFAE
:105AC000A6EB0056B6EB00564FEA520E4EEAC37EE6
:105AD00018EB0E0E56EB530EBDD518EB02085E41C7
